:020000040000FA
:10000000C8130020C9010000E3010000E501000061
:1000100000000000000000000000000000000000E0
:10002000000000000000000000000000E7010000E8
:100030000000000000000000E9010000EB010000EA
:10004000ED010000ED010000A50D0000ED01000034
:10005000ED01000000000000ED010000ED010000D6
:10006000610D0000ED010000ED010000ED01000058
:10007000ED010000ED010000ED010000ED010000C8
:10008000ED010000ED010000ED010000ED010000B8
:10009000ED010000ED010000ED010000ED010000A8
:1000A000ED010000ED010000000000000000000074
:1000B0000000000000000000000000000000000040
:1000C00000F002F800F054F80CA030C808382418EA
:1000D0002D18A246671EAB4654465D46AC4201D180
:1000E00000F046F87E460F3E0FCCB646012633425E
:1000F00000D0FB1AA246AB4633431847CC1F000082
:10010000EC1F0000103A02D378C878C1FAD8520721
:1001100001D330C830C101D504680C6070470000BD
:100120000023002400250026103A01D378C1FBD813
:10013000520700D330C100D50B60704710B5642959
:1001400002D100F0D9F810BD632902D100F099FA6C
:1001500010BD002010BD1FB500F062FD040000209E
:10016000002101F053FF401C60601FBD10B510BDA1
:1001700000F034FB1146FFF7EEFF01F0DBF800F072
:100180003BFD03B4FFF7F2FF03BC00F04DFD0000A0
:1001900070B505460C46164602E00FCC0FC5103E62
:1001A000102EFAD2082E02D303CC03C5083E042E2B
:1001B00007D301CC01C5361F03E021782970641CE8
:1001C0006D1C761EF9D270BD03210C4802680A43EB
:1001D00002600B4802680A4302600A4880470A48E6
:1001E0000047FEE7FEE7FEE7FEE7FEE7FEE700006A
:1001F00006480749074A084B70470000240500409D
:1002000054050040C10C0000C1000000C8030020DC
:10021000C8130020C80B0020C80B00200FB40549EC
:1002200010B503AA029800F039FA10BC08BC04B05B
:100230001847000024000020F8B50E4604460020B0
:1002400020622046E1688847002829D0252802D06E
:100250006268A16820E0E168204600278847050021
:100260001ED028464138192802D80127FF02203520
:100270003246204627602946FFF760FF002808D055
:10028000012804D0F61DF608F6000836D9E7361D19
:10029000D7E762682846A1689047206A401CCFE7EC
:1002A000206AF8BD70B50C460546012A05D02878AD
:1002B000800600D5EA69002302E0012305E05B1C0B
:1002C000934202D2E05C0028F9D1A869E618C01A6E
:1002D000A861286AC01828622846C046C04604E0C3
:1002E0006A682078A968641C9047B442F8D328460D
:1002F000C046C04670BD0000F7B5002575291068DE
:10030000009914A611D0C046C046002802DA404227
:1003100011A608E0009909688A0701D50FA602E036
:10032000490704D50EA6012501E0C046C046009F3E
:100330000024243704E000F0E3F930313955641C1F
:100340000028F8D12B4632462146009800F036F9B5
:10035000FEBD0000000000002D0000002B0000008A
:10036000200000000FB400B589B00BA86A460090C9
:1003700003480A9900F0B6F909B008BC04B0184760
:1003800028000020FFB51D460027FF4383B05C68AE
:10039000002001909E68A96904987F1C88470090FE
:1003A000296A88470028F6D10098401C0CD0032009
:1003B00040028443002E19DD600614D500982B28D6
:1003C00009D02D280FD103E00020C04307B0F0BDB5
:1003D000012080020443A96904987F1C8847761E87
:1003E000002E009002DD0098302803D005980028E8
:1003F00025D035E00120A96940020443761E049807
:100400007F1C8847002E009003DD782805D05828EF
:1004100003D00598002810D022E00598002801D0CC
:1004200010281DD10120A96940028443761E04983A
:100430007F1C88470090102002E0082000E00A207E
:1004400005900DE00121059A49020C430199761EA1
:10045000514308180190A96904987F1C88470090AF
:10046000002E05DD0599009800F02CF90028E9DA46
:10047000E96904988847A00502D40120C043A5E794
:10048000E00722D1600611D56005019800D54042F1
:1004900029680A1D2A600968220501D5087014E040
:1004A000220701D5088010E008600EE02868011DD1
:1004B00029600068210502D50199017005E0210736
:1004C000019901D5018000E0016038467EE7FFB563
:1004D000144683B000200026009050680190916976
:1004E0009768049888470C9905460698084305D0F4
:1004F00009E0A1690498761C88470546216A2846C8
:1005000088470028F5D1681C03D00198C00704D0A3
:1005100017E00020C04307B0F0BD2068011D216036
:10052000006800900DE00198C00704D100980570A4
:100530000098401C0090A169761C04987F1E884793
:100540000546002F1CDD681C1AD0069800280FD025
:10055000E817C00E4019411140098A000699400170
:1005600051182A1A0968012090400142DBD107E0A6
:100570000C980028D7D12846216A88470028D2D075
:10058000E169049888470C98002807D1002E05DD02
:100590000198C00702D1009800210170A068B842FC
:1005A00004DD0C98002804D0002F02D00120C043A5
:1005B000B1E73046AFE7704770477047FFB5044674
:1005C0000D4681B0243000902168880604D51022A1
:1005D000E0699143216000E00120A84201DD471B52
:1005E00000E000270498A1697A191018081AA06180
:1005F0002078C00602D42046C046C046002608E047
:1006000003986268A168805D9047206A401C761C50
:10061000206204988642F3DB2078C0060AD5204683
:10062000C046C04606E06268A16830209047206A54
:10063000401C206238467F1E0028F4DC07E000984A
:100640006268A168405D9047206A401C206228468D
:100650006D1E0028F3DC2046C046C0462078000608
:1006600002D5022005B0F0BD0120FBE710B54369BB
:10067000002B02D0C046C04601E0FFF713FE012068
:1006800010BD1278014624310A7000224A700122FE
:10069000ECE711680022D243E8E70000084B70B590
:1006A0000D467B4400F045F80446284600F092F8D9
:1006B000002802D00020C04370BD204670BD00005D
:1006C000DF0800003A2800D23038202302469A433F
:1006D000412A01D310463738884201D30020C04355
:1006E00070470000044B10B57B449361034B7B447F
:1006F000D36100F037F810BD6108000099000000D8
:1007000001468008081A02091018020A1018020C83
:100710001018C008820012185200891A01E0401C0B
:100720000A390A29FBD2704701694A1C026108781C
:10073000704700B58FB002910021059105490193E2
:1007400079440391114604906846FFF775FD0FB098
:1007500000BD0000E5FFFFFF02685118137801603B
:100760001846704710B5D160054979445161054973
:100770007944116200211161114600F057F810BD53
:10078000EBFFFFFFA7000000704710B5C168104CD9
:100790008A020FD5036B42689A420BD125210A5C6D
:1007A0000146104600F002FA401C01D1204610BD5F
:1007B000002010BD0906890FF8D1026941689142F5
:1007C000F4D90268521C491E02604160F0E7000043
:1007D000FFFFFFFFC068802108407047754600F0AA
:1007E00013FAAE46050069465346C008C000854668
:1007F00018B020B5FFF7FCFC60BC00274908B646DE
:100800000026C0C5C0C5C0C5C0C5C0C5C0C5C0C51F
:10081000C0C5403D49008D46704710B5044600F004
:10082000F7F90068005DC007C00F10BDF3B50C46B6
:100830008FB000200C90012000260E9008460C304E
:1008400003906269039801219047051E2ED0252D43
:100850002DD0216A8847002818D0626903980121A9
:100860009047216A88470028F7D16269411E0398A2
:10087000904700E0761CA1690F988847216A884755
:100880000028F7D1E1690F988847DAE7A1690F9846
:100890008847A842074601D1761CD2E7E1690F9844
:1008A00088477F1C02D10C98002877D06BE16269E1
:1008B000039800273D46394690472A280CD16269A3
:1008C000039801219047012506E00A214F433F1874
:1008D000303FEBD410200543626903980121904713
:1008E000014630390A2903D2AC498F42DEDCECE7FD
:1008F000E90600D4AA4F6C280AD04C2810D06828EA
:1009000024D06A282ED074280CD07A280AD00DE082
:1009100062690398012190476C2823D004211CE0D0
:10092000202005436269039801219047A76065284C
:1009300065604FD026DC582839D01ADC452849D0CC
:1009400012DC252834D04128B0D143E062690398F5
:1009500001219047682802D008210D43E6E70120D5
:10096000C002DEE70220DCE7462833D047289DD1CD
:1009700030E05B2870D061282CD063286CD06428CC
:1009800094D161E06F284FD009DC662822D0672817
:1009900020D0692826D06E2817D12EE0EFE07028ED
:1009A0004DD073286FD075284ED078280DD154E0E3
:1009B000A1690F9888472528054600D16CE7E169B1
:1009C0000F9888476D1C00D16DE7DCE00A224CE0EF
:1009D0000A2252E0012023466A460F99C043C046CE
:1009E000C046C5E040212846234608436060A8076A
:1009F00001D5002239E000223FE0E80700D020E7DF
:100A00002068011D21600068290501D5067018E7DE
:100A1000290701D5068014E7A90703D5F117066059
:100A200041600EE706600CE7402128462346084354
:100A30006060A80701D5082217E008221DE0594987
:100A400028460840606016E04021284623460843B7
:100A50006060A807BCD5B9E715E0402128460843E7
:100A60006060A80707D52346102201200F99C043D4
:100A7000C046C0467CE01022234601200F99C043A7
:100A8000FFF780FC74E0002163280B460191009180
:100A900002910D9102D05B2807D03BE0E80601D41B
:100AA0000120A0600120009034E0E06801210D9059
:100AB0006269039890475E2807D101200190E068A1
:100AC00001210D906269039890472169002906D1A0
:100AD0000B4604AA8F00491C0829D351FADB0028D1
:100AE00051D02169002926D00298401C02906269E9
:100AF0000398012190475D28F1D10198002808D082
:100B0000002004AB8100401C5A58D24308285A5098
:100B1000F8DB04AB2069002820791CD04007029A3A
:100B200000980D9B0092224602901F480F991DD5F8
:100B3000C046C0461CE0C117C90E09184A11490930
:100B4000930004AA9A184901411A136801208840A9
:100B500003431360CBE74007224613480F9902D5A1
:100B6000C046C04604E0FFF7B2FC01E0C046C04604
:100B700000280ADA401C06D10E98002803D0002075
:100B8000C04311B0F0BD0C98FBE7E90702D10C9906
:100B9000491C0C91361800200E9052E6CCCCCC0C9F
:100BA000FFFFFF7FF1F7FFFFFEFFFFFFCA68431C57
:100BB0000FD00E4B1A420CD1D3070AD0252358541C
:100BC0004B680B6300238B600B6053019B0F03D0BA
:100BD00005E00020C043704701235B061A43044B25
:100BE0001A40044B1A43CA60704700008020080076
:100BF000BFFFDFFF0010480010B50446C046C046E6
:100C00002046FFF7BEFA10BD004870476803002079
:100C100010B500F005F8001D10BD00BFF113000075
:100C2000004870478803002001491820ABBEFEE74A
:100C300026000200024670B50A4392072AD11E4DD3
:100C4000EE0104C808C9541B9443344017D0D0B2F5
:100C5000D9B2401A2106014310D190B299B2401A7C
:100C6000210401430AD110021902000A090A401A9C
:100C70002102014302D1100E190E401A70BD9A4292
:100C8000DFD010BA19BA884201D9012070BD002006
:100C9000C04370BD02780B78401C491C002A09D063
:100CA0009A4207D102780B78401C491C002A01D0D7
:100CB0009A42EFD0D01A70BD0101010170470000C7
:100CC00010B500F013FB002805D01F491D484860EF
:100CD000C8131E4988611E48018CC9B201290BD175
:100CE000828C120708D1028D1206120F042A03D13A
:100CF000828D1206120F0AD0012921D1818C090799
:100D00001ED1018D0906090F0A2904D007E0114AF6
:100D100001219160F5E7828D1206120F05D00D2991
:100D20000ED1808D0006000F0AD10B480168012901
:100D300004D00A49016001680129FCD1C021416148
:100D400010BD0000DFFF07C000050040006C004040
:100D5000C00F00F00006004000EC06407593000054
:100D600010B50E4C2046627901790078002A05D032
:100D70000A460146607800F09DFF01E000F06EFF3A
:100D80002079401CC0B22071E178884201D9A07856
:100D9000207103490020086010BD000010000020F1
:100DA0004081004010B501F09DF810BD30B474468C
:100DB000641E2578641CAB4200D21D46635D5B0057
:100DC000E31830BC18470000BFF34F8F04490348B5
:100DD000C860BFF34F8F00BFFDE700000400FA05B5
:100DE00000ED00E00EB50021029000916A460191ED
:100DF0000148FFF7E9FF00000140000010B58268DC
:100E0000C368934203D000F0AAF8002010BD05206B
:100E100010BD002906D0002A02D0531E134203D071
:100E2000092070470E207047016083800021816097
:100E3000C1600846704710B58268C3689A1A8388F3
:100E40009A4203D800F095F8002010BD042010BD90
:100E500010B5044609488168C2688088511A8142E9
:100E600007D10121064800F095FC002801D005209B
:100E700010BD21460148FFF7C1FF10BD4803002007
:100E80001E00002070B50446224888B01E460D00A2
:100E900042601CD0A888296882B21F48FFF7B9FFBA
:100EA000002815D1A889A96882B21B481030FFF725
:100EB000B0FF00280CD1202218496846FFF768F9D6
:100EC000A06806902079002804D0012103E00720C3
:100ED00008B070BD0021684601750677607900286A
:100EE00000D00E2069464875E0780290A078039003
:100EF00020780190607800900949684600F0E6FB90
:100F00000028E5D100F06CFC02480121801C00F0B3
:100F100041FCDDE71C0000204803002064200000A5
:100F2000351E000010B50446064801214470401CDF
:100F300000F0B0FC112803D121460348FFF77BFFE6
:100F400010BD00001C0000205803002008B56846B2
:100F5000FFF77EFF0528FAD06846007808BD826852
:100F600083881A4003689A5C0A708168491C816012
:100F70007047C26883881A4003689954C168491C45
:100F8000C160704710B50446C0B2FFF7CBFF2046E2
:100F900010BD000070B500F0B7FE104D6862002073
:100FA0000446060200F0B0FE641C3043E4B2042C98
:100FB000F7D3E861082068610948A86100206863E8
:100FC000084EFE203070002400F09EFE3119641C93
:100FD000E4B24870FE2CF7D36E6070BD001500407F
:100FE000FF0004032C02002008B51348FFF716F990
:100FF000694612A0FFF7B6F9684600783038022833
:1010000011D8684601780EA0FFF708F96846017804
:101010000D4830290CD031290CD0012101700BA0D2
:10102000FFF7FCF808BD072105A0FFF7F7F8DFE799
:101030000221F3E70021F1E784200000256300008E
:1010400025630D0A00000000000000200D0A0000CA
:1010500008B51AA0FFF7E2F8694628A0FFF782F961
:1010600068460078303807280FD868460078FFF7C0
:1010700059FF68460178224830390B00FFF796FE89
:1010800007090B11131517191B000720FFF74AFF5B
:10109000E2E7042100E0002141701AA0FFF7BEF84A
:1010A00008BDFC21F8E7F821F6E7F421F4E7F02188
:1010B000F2E7EC21F0E7D821EEE70000456E746519
:1010C00072206F757470757420706F776572202848
:1010D0002730273D2B342064426D2C202731273DBB
:1010E000302064426D2C2E2E2E2C2737273D2D3399
:1010F000302064426D293A0D0A000000256300008B
:10110000000000200D0A000010B514A0FFF786F8BB
:1011100015A0FFF783F824A0FFF780F82BA0FFF7B6
:101120007DF830A0FFF77AF839A0FFF777F83FA0F5
:10113000FFF774F843A0FFF771F84AA0FFF76EF8C5
:101140004EA0FFF76BF859A0FFF768F85CA0FFF717
:1011500065F860A0FFF762F810BD00005573616785
:10116000653A0D0A00000000613A20456E74657210
:10117000207374617274206368616E6E656C2066A2
:101180006F722073776565702F6368616E6E656C32
:1011900020666F7220636F6E7374616E742063617A
:1011A00072726965720D0A00623A20456E7465724A
:1011B00020656E64206368616E6E656C20666F7278
:1011C0002073776565700D0A00000000633A2053B4
:1011D0007461727420545820636172726965720D73
:1011E0000A000000643A20456E7465722074696DCF
:1011F00065206F6E2065616368206368616E6E654F
:101200006C2028316D732D39396D73290D0A00005A
:10121000653A2043616E63656C2073776565702F56
:10122000636172726965720D0A0000006D3A2045B3
:101230006E746572206461746120726174650D0A58
:10124000000000006F3A205374617274206D6F6467
:10125000756C6174656420545820636172726965AD
:10126000720D0A00703A20456E746572206F7574B5
:1012700070757420706F7765720D0A00733A205094
:1012800072696E742063757272656E742064656C29
:1012900061792C206368616E6E656C7320616E6489
:1012A00020736F206F6E0D0A00000000723A205309
:1012B000746172742052582073776565700D0A004E
:1012C000743A2053746172742054582073776565A2
:1012D000700D0A00783A20537461727420525820BD
:1012E000636172726965720D0A0000001048018C1A
:1012F000C9B2012917D1818C090714D1018D0906C2
:101300000A0F03D1828D1206120F0ED0090F012988
:1013100003D1828D1206120F07D0032903D1808DCD
:101320000006000F01D00020704701207047000028
:10133000C00F00F088B000247048012625460660E2
:101340006F482746046081050E6001680029FCD0C3
:101350006C4801AB07C807C36B486D4A41C36B4873
:101360000690012040020790032304A901A8FFF77B
:1013700089FD002801D0FFF735FD66A0FEF74EFF7E
:10138000FF2067490130086062B65F4EF61E04A96F
:1013900064A0FEF7E7FF6846007C61380300FFF7B2
:1013A00005FD180D1E32344A6D6D6B6D6D6D6D4E01
:1013B0006D51566D595E616D6D6D666D5AA0FEF78B
:1013C0002DFF514966A0491CFEF7CCFF70685028DC
:1013D00001D8014626E063A0FEF720FFEEE76AA0F1
:1013E000FEF71CFF48495EA0491DFEF7BBFFB06831
:1013F000502804DC7068002801DBB16812E059A0B5
:10140000FEF70CFFEBE7012440E06CA0FEF706FFBF
:101410003D4953A00931FEF7A5FFF068401E63283F
:1014200005D2F16872A0FEF7F9FE2C4626E072A004
:10143000FEF7F4FEE9E700F033FC00251EE0FFF7BD
:10144000D3FDF2E7022475A0FEF7E8FE2AE0FFF7DD
:10145000FFFDEAE7052477A0FEF7E0FE44E000F098
:1014600095FA0BE0032476A0FEF7D8FE26E00424CC
:1014700076A0FEF7D3FE2AE0FFF746FE2300FFF733
:1014800095FC060405111D26330480E7B07800287A
:1014900002D000F005FCB77032793178707800F036
:1014A00009FC1EE0B078002802D000F0F9FBB7700C
:1014B00032793178707800F0B7FB12E0307B009021
:1014C000337A32793178707800F00EFC12E0B0781F
:1014D000002802D000F0E4FBB7703179307800F0DA
:1014E000BDFB2546002452E7337B327A31793078D0
:1014F00000F0C6FB0120B070F3E7000000D0004010
:101500000001004038200000030000202C000020D3
:10151000211E0000524620546573740D0A0000001D
:1015200000E100E025630000456E7465722073746D
:10153000617274206368616E6E656C202874776FC9
:1015400020646563696D616C206469676974732CDC
:1015500020303020746F203830293A0D0A00000006
:10156000256400004368616E6E656C206D75737450
:10157000206265206265747765656E203020616E3B
:10158000642038300D0A0000456E74657220656E67
:1015900064206368616E6E656C202874776F2064C8
:1015A0006563696D616C206469676974732C2030B0
:1015B0003020746F203830293A0D0A00456E74656A
:1015C000722064656C617920696E206D73202874C7
:1015D000776F20646563696D616C20646967697405
:1015E000732C20303120746F203939293A0D0A00CC
:1015F00025640D0A0000000044656C6179206D755A
:101600007374206265206265747765656E20312091
:10161000616E642039390D0A000000005458206DB5
:101620006F64756C61746564206361727269657260
:101630000D0A000052582053776565700D0A0000AE
:1016400054582053776565700D0A00005258206386
:101650006F6E7374616E7420636172726965720D6E
:101660000A0000008207D30EFF229A408907090E64
:1016700010B59940002808DB8408104BA400E4183A
:10168000236893430B4323600AE003071B0F083BC7
:101690009C080B4BA400E318DC6994430C43DC6109
:1016A000C206D20E01219140002801DB054A1160DB
:1016B000002801DB0448016010BD000000E400E0E8
:1016C00000ED00E080E200E000E100E0F3B52A4C2C
:1016D0000746E07E81B0002801D00820FEBD002F23
:1016E00000D1264F386800F03AF9387801263146A3
:1016F0008140234881600021786800F027F9214D5E
:10170000B8696862787D397D0843E86603CFE86090
:101710006961387B083F01280FD10021B86800F0CB
:1017200015F9F86800F01BF9387B31468140144800
:101730008160F968B868A9602861029860603969B9
:10174000216000280ED0FF230F481D33397F00226F
:10175000C250FF234533C2500D4A0C48506002204E
:10176000FFF780FF042028600020E0752076A07538
:10177000E676A076FEBD00002C0300204420000089
:1017800000050050002500400020004080000200BD
:1017900000230040F8B5104B81245E680022A400AD
:1017A0000E4D002E00D0AC60DF7D002F0BD01A7ED6
:1017B000002A04D0002E00D06C601120F8BD186102
:1017C0000122197604E0D9750024D8605C761C7675
:1017D00000F012F8F8BD00002C03002000230040A8
:1017E00010B5044CA07E002803D100F0C5FA0120FA
:1017F000A07610BD2C030020F8B5234DA87E104321
:1018000001D100F0B9FA6868204C002805D0812089
:101810001F49800048600020F8BDFF2045300021AE
:101820002150FF212531204600F0A3F80546FF2175
:101830000931204600F09DF80746FF21453120463A
:1018400000F097F80646394631432943E9D0284647
:10185000304306D100F066FA0B48C17D407E8142DC
:10186000DFD800210848002DC17501D00320F8BD44
:10187000002E01D00F20F8BD817E0120002901D06B
:101880002060C8E76060C6E72C030020002000400D
:101890000023004010B5064A937D002B01D0112093
:1018A00010BD917590600020908200F003F810BD8B
:1018B0002C030020F8B50026194FFF251D357E5159
:1018C0000120B86000F086FA164C6168002910D03B
:1018D00022E0FF2701372946114800F04AF8002886
:1018E00002D1A08AB842F6D1A08AB84201D000F055
:1018F00071FAA08AA17D8842EBD3A18AC81FF9386A
:101900000CD0074F2946384600F033F80028F9D0AC
:101910000120F8600020A0753046F8BD0F26F9E7D9
:10192000002000402C03002030B552000A439900EB
:10193000039C0A432102049D0A4329040A430249E5
:1019400080004018026030BD000700501CB5002226
:101950000B46009211460192FFF7E6FF1CBD1CB535
:10196000002100910B46012201911146FFF7DCFF97
:101970001CBD4058002800D00120704703221202ED
:1019800080184068084000D00120704710B523A09F
:10199000FEF744FC254C2078002805D0012813D000
:1019A000022804D122A000E02AA0FEF737FC6078CC
:1019B000F0282DD00ADC002811D004280DD0D8281A
:1019C0002AD0EC280ED125E02BA0EEE7F4281DD07C
:1019D000F82819D0FC2805D114E030A000E037A089
:1019E000FEF71CFC3DA06168FEF718FC42A0A16850
:1019F000FEF714FC47A0E168FEF710FC4CA0FEF7D0
:101A00000DFC10BD4CA0EBE753A0E9E75AA0E7E7B7
:101A100061A0E5E768A0E3E76FA0E1E750617261CC
:101A20006D65746572733A0D0A00000000000020B5
:101A30004461746120726174652E2E2E2E2E2E2E1E
:101A40002E2E2E2E3A20323530204B6269742F73A1
:101A50000D0A00004461746120726174652E2E2E9F
:101A60002E2E2E2E2E2E2E2E3A2031204D626974CF
:101A70002F730D0A000000004461746120726174CC
:101A8000652E2E2E2E2E2E2E2E2E2E2E3A2032204B
:101A90004D6269742F730D0A0000000054582050E5
:101AA0006F7765722E2E2E2E2E2E2E2E2E2E2E2E51
:101AB0003A202B342064426D0D0A00005458205007
:101AC0006F7765722E2E2E2E2E2E2E2E2E2E2E2E31
:101AD0003A20302064426D0D0A00000028537461E2
:101AE000727429204368616E6E656C2E2E2E2E2E28
:101AF0003A2025640D0A0000456E64204368616E3B
:101B00006E656C2E2E2E2E2E2E2E2E2E3A20256415
:101B10000D0A000054696D65206F6E206561636871
:101B2000206368616E6E656C3A20256420000000B9
:101B3000206D730D0A000000545820506F776572B5
:101B40002E2E2E2E2E2E2E2E2E2E2E2E3A202D34B2
:101B50002064426D0D0A0000545820506F77657262
:101B60002E2E2E2E2E2E2E2E2E2E2E2E3A202D388E
:101B70002064426D0D0A0000545820506F77657242
:101B80002E2E2E2E2E2E2E2E2E2E2E2E3A202D3175
:101B9000322064426D0D0A00545820506F776572F0
:101BA0002E2E2E2E2E2E2E2E2E2E2E2E3A202D3155
:101BB000362064426D0D0A00545820506F776572CC
:101BC0002E2E2E2E2E2E2E2E2E2E2E2E3A202D3234
:101BD000302064426D0D0A00545820506F776572B2
:101BE0002E2E2E2E2E2E2E2E2E2E2E2E3A202D3313
:101BF000302064426D0D0A0007480021016007484B
:101C00000161074A1160074B01221A610269002A2B
:101C1000FCD001617047000000120040001100403C
:101C2000401500400010004070B514460D460646B1
:101C3000FFF7E2FFFFF7AEF9054907200860054B03
:101C4000DE601D619C6004490120086070BD0000D9
:101C500000120040001500400010004010B50C4676
:101C6000FFF7CAFF03490120086003498C6003495C
:101C7000486010BD001200400015004000100040F8
:101C800010B504460548047081700171C2700021CE
:101C90004171184600F07EF810BD000010000020D1
:101CA00010B5034901204860FFF7A6FF10BD0000F2
:101CB0000080004070B514460D460646FFF79CFFB5
:101CC000064901200860064BDE601D619C60044AE5
:101CD0000321403211600349086070BD00120040CA
:101CE000001500400010004070B5064C049D607067
:101CF0002170A2702271E37001206071284600F00B
:101D000049F870BD100000200448002101600168FE
:101D10000029FCD0024880687047000000D10040D4
:101D200000D5004030B50A48FF21C57D0022094C8E
:101D30000931094B002D625007D09969437EC26872
:101D4000D154417E491C417630BD986930BD0000B8
:101D50002C03002000200040002500401FB5012377
:101D60006A46137010720348019106C8684690478E
:101D70001FBD00002C030020FF2205482532002152
:101D80008150FF220932815001210160704700001B
:101D90000020004010B50B4B012159600A4A116028
:101DA0000A4A002454600224946004241461084CFC
:101DB0000A0462607D22D2005043044A403210601F
:101DC000196010BD00800040008200400085004086
:101DD00000830040FF2107481D3100224250064881
:101DE000828A8168895C828A521C82820348C1612E
:101DF00070470000002000402C0300200025004018
:101E00001FB500216A461170107204488268019261
:101E1000817506C8684690471FBD00002C0300204E
:101E200010B50178022901D0012902D14068FEF7DE
:101E3000D9FF10BD7CB50178284D01290AD00229AF
:101E40002FD000292CD129462548FEF7D7FF00289E
:101E500033D036E04068017821481038FEF7EBFFB8
:101E60001F4C103C002805D001216A4611700190DA
:101E7000684608E0A068E168081A012805D100203A
:101E800069460870684669688847A068E168081A6A
:101E9000A188884204D811480121801CFFF77AFCF0
:101EA0007CBD02216A461170C06801900B48012177
:101EB000801CFFF76FFC68460CE001210748FFF724
:101EC000E9FC07488168C0688842E9D10320694677
:101ED00008706846696888477CBD00001C000020C7
:101EE00058030020F0B5454D012185B04902284630
:101EF000FFF744FD01270026414C002824D0FF2194
:101F000025312846FFF735FD00281DD0FF2025305C
:101F10002E5081203B4980008860A07E002800D19F
:101F20006F600221684601703749086808600390B5
:101F3000E17D68460172E0680190E675267606CC80
:101F40006846083C90472BE004212846FFF716FD21
:101F5000002825D0FF2109312846FFF70AFD002877
:101F60001ED0FFF7DFFEE07D617E884218D1207E23
:101F7000002808D0627EE168E0752069E06026767E
:101F8000667610460AE0A07E002800D16F608120AE
:101F90001C4980008860E675607EE168FFF7DEFE20
:101FA000FF211D312846FFF7E4FC00280DD0A18A4F
:101FB000A07D814202D2FFF70DFF06E0FF211D3117
:101FC0006E50002801D0FFF71BFFFF214531284646
:101FD000FFF7CFFC00280ED0FF2045302E50A07E0A
:101FE000002800D02F60E07D002804D0E675607ED8
:101FF000E168FFF7B3FE05B0F0BD0000002000402F
:102000002C030020002300408024004010B500294C
:102010000AD00878002807D005487844FEF70AFE61
:10202000002801D0002010BD0248784410BD0000F7
:10203000CE000000C60000001918000000000000DB
:1020400000E0D701000000000000000000000000D8
:1020500000000000000000000000000000509D0093
:10206000030000000000000000000000000000006D
:1020700000000000000000000000000000509D0073
:1020800003000000456E7465722064617461207203
:1020900061746520282730273D323530204B626936
:1020A000742F732C202731273D31204D6269742F06
:1020B0007320616E64202732273D32204D6269749F
:1020C0002F73293A0D0A0000F821000000000020BB
:1020D0002C00000004010000242200002C0000203D
:1020E0009C130000200100001001000043000000CC
:1020F000F8FFFFFF00404040404040404040414129
:1021000041414140404040404040404040404040CC
:102110004040404040050202020202020202020266
:102120000202020202202020202020202020200263
:1021300002020202020290909090909010101010F3
:10214000101010101010101010101010101010108F
:102150000202020202028888888888880808080823
:1021600008080808080808080808080808080808EF
:102170000202020240000000000000000000000017
:10218000000000000000000000000000000000004F
:10219000000000000000000000000000000000003F
:1021A000000000000000000000000000000000002F
:1021B000000000000000000000000000000000001F
:1021C000000000000000000000000000000000000F
:1021D00000000000000000000000000000000000FF
:1021E00000000000000000000000000000000000EF
:1021F00000000000000000000100000000000000DE
:10220000500000000A000000000000000000000074
:102210000024F400000000000000000000000000A6
:0422200000000000BA
:04000005000000C136
:00000001FF
