:04000003000004BD38
:10000000007F0020BD040000E50400003906000068
:10001000E9040000EB040000ED0400006462FFDF6F
:10002000939D939B2028056E01010000EF040000C2
:10003000F1040000CC630000F304000099470000C5
:10004000F7040000F7040000153B0000113B00001E
:10005000F704000000000000F704000000000000AA
:10006000F7040000F7040000F7040000F7040000A4
:10007000F7040000F7040000F7040000F704000094
:10008000F7040000F7040000F7040000F704000084
:10009000F7040000F7040000F7040000F704000074
:1000A000F7040000F7040000F7040000000000005F
:1000B0000000000000000000000000000000000040
:1000C0000000000000000000000000000000000030
:1000D000000000000000000000000000F5450000E6
:1000E0000000000000000000000000000000000010
:1000F0000000000000000000000000000000000000
:1001000000000000000000000000000000000000EF
:1001100000000000000000000000000000000000DF
:1004000010B5054C237833B9044B13B10448AFF34E
:1004100000800123237010BD3C020020000000007A
:10042000AC77000008B5034B1BB103490348AFF399
:10043000008008BD0000000040020020AC770000F2
:10044000A3F5803A704700BF174B002B08BF134B32
:100450009D46FFF7F5FF00218B460F461348144ACF
:10046000121A05F06DFF0E4B002B00D098470D4B74
:10047000002B00D098470020002104000D000D48FB
:10048000002802D00C48AFF3008000F0A3F9200050
:10049000290000F0BBF905F007FF00BF00000800CD
:1004A0000000000000000000007F00203C0200204F
:1004B000C82B002000000000000000000649074A89
:1004C000074B9B1A03DD043BC858D050FBDC03F0FC
:1004D000AFFBFFF7B9FF0000D47700000000002059
:1004E0003C020020FEE7FEE7FEE7FEE7FEE7FEE750
:1004F000FEE7FEE7FEE7FEE7034613F8012B002ABE
:10050000FBD1181A0138704708B54FF08043D3F873
:100510000034DB030AD403F0A1FC28B903F0A0FCEB
:10052000003818BF012008BD0120FCE70020FAE7D1
:100530004FF08053184AD3F80031934211D14FF055
:100540001023D3F80C32D9070BD5144B0022C3F873
:1005500000284FF40042C3F804280222C3F80828F8
:1005600070474FF080530C21D3F8003193420CBFF9
:100570000A2311239A0002F1A0420220C2F80017B8
:100580004FF0A041D1F81015C2F8000721FA03F38B
:10059000DB07DAD4704700BF3328050000E00140D4
:1005A00008B5EFF3088400F00F030D2B01D1EFF332
:1005B0000984E3699A0554BF04F1200504F1240578
:1005C000C30658BF483503F00DF9EFF3098003F077
:1005D00009F9EFF3088003F005F9EFF3148003F055
:1005E00001F9284603F0FEF8606903F0FBF8A06902
:1005F00003F0F8F8E0690E4C03F0F4F8E06A03F059
:10060000F1F8A06A03F0EEF8206B03F0EBF8E06B72
:1006100003F0E8F8606B03F0E5F8A06B03F0E2F894
:1006200004494322002003F0C1F900F02FF9FEE74E
:1006300000ED00E0586400007046FFF7B1FF70471E
:1006400001207047002070472DE9F84F03F082F831
:1006500010B1642004F012F904F028F9484B494F16
:100660001860002003F0DEFB002003F0F3FB012004
:1006700003F0F2FB02F0E4FE05F0E4F9012001F0E2
:1006800059FC002005F0ECF901250023DFF8F88083
:100690003E4E3F483B701A462946C8F80030357038
:1006A00004F0F1F8032104F0F3F8DFF8E890DFF844
:1006B000E8A00B244FF0FF32002140F2032004F0A9
:1006C000EDF883051FFA80FB01D503F09FFF1BF0B7
:1006D000010F22D05A2001F047FC3B78012B04D1B6
:1006E000D8F800304BB900233B703378042B14D872
:1006F000DFE803F03A2913330900013BC8F8003062
:10070000002BF0D0F1E73B783BB90CB1013C04D1B0
:100710000020002405F0A4F934701BF0020FC9D0AA
:1007200099F80030002BC5D09AF800305A1E012AE3
:100730001DD805BB012B04D1002289F800208AF8BE
:100740000020012518E00CB1013CE6D1012005F0A4
:1007500087F9032333700024DFE705F0A3F90028AD
:10076000DBD002233370D8E700F090F8D5E7002300
:1007700089F80030E5E70025284603F06DFB99E78E
:100780006002002065020020680200206C02002048
:100790009D07000064020020AC01002010B50A4C47
:1007A0000221206804F063F8084A1368591C11609C
:1007B000074A5343B3F1553F05D820680121BDE8EE
:1007C000104004F054B810BD600200205C0200200C
:1007D000ABAAAAAA7047002383F31488BFF36F8FD4
:1007E0008546084770470000024B01221A70024BF1
:1007F0001870704764020020AC010020024B4FF4D7
:100800000071186804F033B86002002008B503F0E6
:100810003BFC03F0C7FA02F0DFFEFFF789FEFFF7AB
:1008200073FE10BB164B1C69FCB1607B237B43EA53
:100830000023A07B43EA0043E07B43EA006003F02F
:1008400039F990B102F086FF78B9627B237B43EAE5
:100850000223A27B43EA0243E27B43EA0263094AA2
:100860009360D3E90001FFF7B6FF03F0F1FF002228
:100870001146054803F0F1FF03F0F4FFFEE700BF67
:10088000CC63000000ED00E049060000BFF34F8F8D
:100890000549064BCA6802F4E0621343CB60BFF31C
:1008A0004F8F00BFFDE700BF00ED00E00400FA0538
:1008B000DFF854C0F0B54FF0FF33002401278C421D
:1008C00003DB93FAA3F0C043F0BD065D07220025C9
:1008D00016F0010F1CBF07FA02FE45EA0E05013AA9
:1008E0004FEA5606F4D283EA05630822002B02F190
:1008F000FF324FEA4303B8BF83EA0C0312F0FF0252
:10090000F4D10134DBE700BFB71DC104DFF854C0E8
:10091000F0B500240127C04390FAA0F0944203DB15
:1009200090FAA0F0C043F0BD0E5D0723002516F03D
:10093000010F1CBF07FA03FE45EA0E05013B4FEA13
:100940005606F4D280EA05600823002803F1FF333D
:100950004FEA4000B8BF80EA0C0013F0FF03F4D167
:100960000134DBE7B71DC10400F0A0BBF0B50023E4
:1009700089B0CDE906330D4616460593441C06AFF3
:1009800005AB01934FF4807300930297234607AAA7
:100990003146284600F0D4FF38B9069A1AB10598B6
:1009A000214600F083FA09B0F0BD02280CD1069A66
:1009B0001AB9079BF61A1D44E2E70598214600F094
:1009C00075FA0028F5D0EEE7012809D1069A2AB178
:1009D0000598214600F06AFA0028E4D11320E2E7E6
:1009E00004280DD0431FDBB2012BC9D8053818BF2E
:1009F000012004494FF4B07202F0D8FF1620D2E76C
:100A00001520D0E78F64000010B540F201120446B3
:100A1000002105F095FC00F06DFF00232370BDE878
:100A2000104000F011BA00F00FBA08B503F056F804
:100A3000431E5842584108BD08B500231A4600F02D
:100A400015F9003818BF012008BDF0B5044690F82C
:100A500030002F2885B00F4615462DD8C0F130063E
:100A6000964228BF16463246204405F041FC94F8D1
:100A700030103144C9B22F2984F8301027D900230F
:100A80001A46204600F0F2F820B303AB0022009390
:100A9000114602AB00F02AF9D0B9029894F8302040
:100AA0006063214600F002FA90B9636B94F830203D
:100AB00013443744AD1B6363606B2A46394600F02C
:100AC000F5F928B9626B2A446263142000E0002023
:100AD00005B0F0BD1C20FBE708B503F0E7FE054BB1
:100AE00005491B681B1A584258416222BDE808405C
:100AF00002F05CBF7C0300208F64000000F0D6BAD7
:100B000070B5084E336804460D46984740B93369BE
:100B100029462046984700280CBF0320012070BDBD
:100B20000020FCE7B001002010B500F1080403220A
:100B30000748214605F01BFC40B106480322214628
:100B400005F015FC00280CBF0120032010BD00BFDC
:100B5000C1640000C564000070B5144D2E780446D1
:100B600036B185220020124902F020FF022070BD1C
:100B7000012801D98B22F5E703F098FE0D4B4FF4C5
:100B80008272186031460C4805F0DAFB01232B70A5
:100B90000A4B094803EB0414094B1C60636898472F
:100BA0000028E4D003232B70E1E700BF7803002086
:100BB0008F6400007C03002074020020B00100203C
:100BC0007002002070B5164D2B78012B04460E469E
:100BD00007D01449A422002002F0E8FE0224204697
:100BE00070BDFFF779FF104B10481B6821469B68CA
:100BF000324698471328044602D102232B70EEE7B1
:100C0000142800D048B928780649431E58424FF0AE
:100C1000B202584102F0CAFEE1E70323EEE700BF4B
:100C2000780300208F64000070020020740200200E
:100C300010B5094C207828B90849C02202F0B6FE48
:100C4000022010BDFFF748FF054B06481B68DB6814
:100C5000984700232370F4E7780300208F64000096
:100C600070020020740200200020704730B5054655
:100C700008462F2885B094BF00200120184947223C
:100C80001C4602F093FE0C2205F1200101A805F09C
:100C90002FFB0CB9134B1C70134B029A9A420ED1C6
:100CA00003F13653019803F5672303F26F6398420B
:100CB00013D0FC3BC31A5842584105B030BD2846FA
:100CC00002F0F8FE28B114B9064B01221A70032075
:100CD000F3E7002C18BF0320EFE70220EDE700BF89
:100CE000C9640000BA0300202028056E2DE9F047F2
:100CF000DDF8208006460D4691461F4613B1B8F137
:100D0000000F09D171224049002002F04FFE4FF040
:100D100002094846BDE8F0874FF0000AC3F800A07A
:100D2000C8F800A0FFF78CFC044600B3022E0CD1DB
:100D3000B9F1000F02D0B5F5004F55D1334B1C6807
:100D40004FF400454FF0000905E0032EF0D00024D9
:100D500025464FF01C0902F08EFD08B9012E50D037
:100D6000B9F1000FD5D1002C47D1B822CBE7FFF75E
:100D700069FC0028EBD0012E08D1B9F1000F01D099
:100D8000002D36D1214B00251C68DBE7032EDED178
:100D90001F4B1A69002ADAD00C325378157845EACD
:100DA0000325937845EA0345D37855EA03650DD1C9
:100DB0005179137943EA0123917943EA0143D179C7
:100DC00053EA016302D1134B1C68BBE7517A137AD3
:100DD00043EA0123917A43EA0143D17A43EA01636A
:100DE000012BF0D01432D8E7544655464FF01B097A
:100DF000B1E725464FF01A09ADE73D60C8F800405D
:100E000087E74FF01C0984E7C9640000946500007F
:100E1000CC6300000065000070B506460C46154620
:100E2000FFF710FC48B1032E07D1064B1B6923B115
:100E300029462046FFF718FF08B9002070BD1D2085
:100E4000FCE700BFCC63000038B50F4D2C783CB1F7
:100E50000E49DA22002002F0A9FD0224204638BD06
:100E60000B483022FF2105F06BFA01232B70094B50
:100E70001C70094B1C60094B1C60094B1C60094B22
:100E80001C70094B1C70E9E7C1030020C964000015
:100E900084030020B9030020B4030020BC03002019
:100EA00080030020B8030020C00300202DE9F04F8C
:100EB000734E15463278012A85B004460F4608D095
:100EC00000207049EF2202F071FD022005B0BDE85C
:100ED000F08F6D4B197821B96C491A7008606C4914
:100EE0000860DFF8B08198F80030002B70D1684AB4
:100EF00013685919A342116048D1DFF89CA1DFF8AB
:100F00009CB1DAF80000C0F13009A94528BFA94614
:100F100039464A46584405F0EBF9DAF800004844EF
:100F20002F28CAF800004F44A5EB09054C444BD9C3
:100F3000A0F1300358425841524940F2111202F0D8
:100F400035FD524ADAF80010126801235846FFF7BF
:100F50008DFE534B187002ABDFF844914B49009360
:100F6000096899F8000003AB0122FFF7BFFE50B9F2
:100F700002F085FC70B1484B48491A6899F80000A6
:100F8000FFF74AFF30B1032333709FE7444B03223E
:100F90001A70E0E798F800003A4980F001004FF439
:100FA0009A7202F003FD029800F058F90028EAD185
:100FB000012388F80030384B38491A68334B1868D9
:100FC00000F0B0F920B1DEE798F80030002BF2D144
:100FD00098F8003033B12A463946204600F0A2F98D
:100FE0000028D0D12E4B1B78022B43D0032B03D0EB
:100FF000012B42D0002069E72A4B187800283FF4E3
:1010000065AF294B186900283FF460AF00F10C026E
:101010005178137843EA0123917843EA0143D17868
:1010200053EA01630BD15079137943EA0023907995
:1010300043EA0043D07953EA006002D146E79C427C
:101040000CD35379107940EA0320937940EA0340A6
:10105000D37940EA03608442034601D91432D7E7CA
:1010600000283FF433AF2C449C42C3D30223337097
:1010700013202BE74FF4F833F5E74FF40043F2E782
:10108000C1030020C9640000C0030020BC0300208D
:1010900080030020B8030020B40300208403002054
:1010A000B9030020BA030020CC63000010B50E4B3A
:1010B0001C783CB920460D4940F26B1202F076FCD8
:1010C000022010BD00221A70094B187808B100F0F8
:1010D000CBF9022CF5D0074B1B78032BF1D000285D
:1010E00008BF2520EDE700BFC1030020C964000050
:1010F000B8030020B90300202DE9F041DFF8448057
:10110000114E98F80030114F0446CBB9104B32689D
:101110001B6810499B68386898470123054688F882
:10112000003032680B48FF2105F00AF93368B4FB40
:10113000F3F003FB1040241A3C602846BDE8F08120
:101140000025EEE7C4070020D8070020D4070020C0
:10115000DC070020C4030020F8B5384F3B685B690A
:10116000054698473B6806469B69284698470446CB
:1011700006B140B9324940F23512002002F016FCA7
:1011800002242046F8BDB6F5806F8CBF00200120F8
:101190002B494FF49D7202F009FC4FF48060B0FBC4
:1011A000F6F07043A0F5806358425841244940F25C
:1011B0003B1202F0FBFBA6428CBF0020012020491D
:1011C0004FF49E7202F0F2FBB4FBF6F006FB104007
:1011D000B0FA80F040091A491A4E40F23D1202F06E
:1011E000E5FBB5FBF4F0184B04FB10501C60174BEB
:1011F000281A18603B68164D1B6A3060B4F5806F82
:1012000028BF4FF480642C6033B19847044618B16E
:101210003B685B689847B4E70E4B1B7833B13B687B
:101220003068DB68984704460028F1D12A680A48EC
:10123000FF2105F085F80024A3E700BFDC070020AC
:1012400004650000C8070020CC070020D407002058
:10125000D8070020E4070020C4030020F8B5254F7C
:101260003D78044635B147222349002002F09EFB19
:1012700002242AE000282AD0436843B3836833B3AA
:10128000C36823B3036913B3436903B38369F3B139
:10129000C369E3B14FF48062FF211848184E05F08E
:1012A0004FF8184B346001221A70174B1D70174B02
:1012B0001D60174B1D60174B1D60174B1D60174BB2
:1012C0001D6023689847044618B12046F8BD4D229A
:1012D000CAE7134B1B784BB933681B69984705461F
:1012E00020B133685B6898472C46EEE701233B70DA
:1012F000EBE700BFE507002004650000C403002001
:10130000DC070020C4070020D0070020D4070020FD
:10131000D8070020C8070020CC070020E0070020E5
:10132000E40700202DE9F74F454D95F80080B8F10E
:10133000010F83460E46144608D0002041497B2207
:1013400002F034FB022003B0BDE8F08F3E4F3A7844
:1013500052B9FFF701FF10B102232B70F3E73B4AAC
:1013600087F80080C2F800B0DFF8E480374FD8F883
:1013700000003A68BBFBF0F1B2FBF0FC00FB11B1DE
:1013800000FB1C20ABEB0101121A914204D058461D
:10139000FFF7B2FE0028DFD1DFF8B8A03A68DAF82C
:1013A0000000BBFBF0F1B2FBF0FC00FB11B100FB55
:1013B0001C20ABEB0101121A914236D1DFF8989054
:1013C000D9F80020D8F800100A445A4504D85846E5
:1013D000FFF792FE0028BFD16CB3204BDAF8001063
:1013E0001A680A445A4504D85846FFF7B5FE002843
:1013F000B2D1D9F80000D8F80020194B0244A2EB72
:101400000B02A242ABEB000028BF22463146184433
:10141000019204F06DFF019A1248B2FA82F1490973
:10142000017093441644A41ACAE75846FFF794FE85
:101430000028C3D090E7C7F800B0204683E700BF7C
:10144000E507002004650000D0070020E007002029
:10145000D8070020CC070020D4070020C8070020B0
:10146000C4030020C407002070B5194E307830B98D
:101470001849CC2202F09AFA0224204670BD0128B5
:1014800023D10020FFF738FE0546134B1B685B682D
:1014900098474FF480620446FF21104804F050FF43
:1014A0000F4B01221A700F4A002313700E4A33703B
:1014B00013600E4A13600E4A13600E4A13600E4A00
:1014C0009C4208BF2C461360D7E70025DDE700BF2C
:1014D000E507002004650000DC070020C4030020AD
:1014E000C4070020D0070020D4070020D807002020
:1014F000C8070020CC070020E00700204FF48070D0
:1015000070474FF480507047024B1878431E584282
:10151000584170470518002008B50D4B187828B9B8
:101520000C49832202F042FA022008BD0020187004
:1015300002F00CFC50B9084B1B780BB10020F4E70B
:10154000FFF77EF80028F9D12520EEE71F20ECE711
:1015500005180020386500000618002038B5174D22
:101560002C783CB116496222002002F01FFA0224B6
:10157000204638BD22462146204602F0E5FBD0B980
:10158000104B11481C70114B1C70114B1C70114BEF
:101590001C60114B1C60114B1C70114B1C60114BDB
:1015A0001C60114B4FF4805221461C6004F0C8FEB1
:1015B00001232B70DCE71E24DAE700BF05180020AA
:1015C00038650000061800200508002004080020E7
:1015D000FC070020F807002000080020F00700208A
:1015E000EC070020F4070020E807002038B52C4D58
:1015F0002B78012B044606D000202A49FF2202F056
:10160000D5F9022038BDC0F30B0040B1254940F2A6
:101610000712002002F0CAF902202870F2E7224ADD
:10162000137853B1214B22491B6809680B449C4233
:1016300003D01C494FF48772ECE7B4F5004F22D376
:1016400001231370194B1C60194B4FF48052B4F5F1
:10165000F83F1A601BD2FEF7F5FF78B1B4F5004FE2
:101660000CD1204601F038FEA8B922464FF4807113
:10167000204601F03AFE80B90020C3E7204601F081
:101680002BFE0028F8D002232B702120BAE723205C
:1016900002232B70B6E71020FAE72020F8E700BFFE
:1016A0000518002038650000FC070020F80700201E
:1016B0000008002070B5154D2B78012B07D00020B5
:1016C000134940F2371202F071F9022070BD114E39
:1016D000337843B100200E4940F23D1202F066F922
:1016E00002202870F2E74FF400442046FFF77EFF07
:1016F00018B102232B702220E8E704F58054B4F5DA
:10170000F83FF2D101233370E0E700BF0518002055
:1017100038650000040800202DE9F047694D2B785A
:10172000012B06460C46174608D06749A222002026
:1017300002F03CF902242046BDE8F087C3B21BB199
:10174000AB22614900200EE0FF2A02D912F0FF000F
:1017500001D0B222F5E7C6F30B031344B3F5805F63
:1017600006D9B9225849022402F020F92C70E2E788
:10177000564B1B787BB9564B187808B9C122F1E754
:10178000544B1B689E4204D3534A126813449E4232
:1017900001D3C722D5E7514A137843B1504B514981
:1017A0001B6809680B449E4201D0CF22C9E7B6F5F9
:1017B000004F05D2FE4203D002232B702024BAE74B
:1017C00001231370464BA6F500491E60454BB9F541
:1017D000B83F1F605ED2FEF735FF002860D0C6F527
:1017E000F738DFF804A108F5FE7847453A46DAF8FD
:1017F000000028BF42462146FFF788F8B6F5104F93
:10180000CAF8000007D239483A462146484404F055
:101810006FFD00248FE7F319B3F5F83F40D1C6F50B
:10182000F733C6F5F73203F2FD1302F5FF72E15C00
:10183000A35C14F808201B0443EA01231343C6F5F4
:10184000F73202F2FF12A25C43EA0263984223D10C
:1018500022463946304601F048FDF8B94FF40040C1
:1018600001F03AFDA0B9214A4FF480514FF40040F5
:1018700001F03BFD00280CBF0024202401F0A8FD4E
:101880001B4B01221A70002CC3D002232B7052E78D
:101890001024F3E72324F8E72724F6E72024F4E7CD
:1018A00022463946304601F020FD0446002883D107
:1018B0003E44B6F5F83FACD301F08AFD0C4B012253
:1018C0001A7038E705180020386500000408002069
:1018D000FC070020F807002000080020F007002087
:1018E000EC070020F4070020E8070020050800208E
:1018F0000618002008B525220948002104F020FD23
:10190000084A00231360084A1370084A1370084AF3
:101910001370084A1370084A1380084A137008BDF0
:101920000F18002038180020351800200E1800204D
:101930003C18002034180020081800203D18002012
:101940002DE9F74F9246964A0E9F89464518117821
:101950009846002306463B6021B101783A2940F0C1
:10196000D68013708F4B1A78C2B18F4C214600225B
:101970001A70404611F8042B04F0BAFC22783B6838
:101980008A49607813443B600B68A4781B0C1B04E5
:1019900040EA04200343134490440B60824C0196B8
:1019A000019EAE4200F0B380019B13F8012B01931E
:1019B0000D2AF5D03A2A1DD00A2AF1D07C497D4B58
:1019C00009781B78002900F0DC80D00602F00F01B6
:1019D00058BF0931E25C774801F00F011143E1542F
:1019E00022780133DBB2111D9942037040DA0023E3
:1019F000184610E025220021204604F0A1FC6C4A84
:101A0000002313706B4A13706B4A1370C8E714F805
:101A10000CC06044C0B25FFA83FC614503F101036E
:101A2000F5DA002840F0B880634B197801BB01213A
:101A300019706378A17894F803B043EA01235BBA84
:101A400098B26370C3F30723A370BBF10D0F0FD8D7
:101A5000DFE80BF0142F600E7C0E0E0E0E0E070E3C
:101A60000E146279237943EA0223544A5BBA138045
:101A70004F4A1378B3FA83F35B09C6E74F4B1B88D1
:101A80003BB14F490988994203D04E490988994290
:101A90003AD1DFF818B14C4BDBF800C00CEA030177
:101AA00001438C453F4917D001230B701E444FF072
:101AB000020B0C9B3A68FF219A1A404604F040FC46
:101AC0003A4B3A681B68AD1B9B1A0D9AA9EB0505AA
:101AD0001360CAF8005035E0002008703B494046CA
:101AE00004F006FC21783A68374B0A443A60DBF888
:101AF0000020A0781340627842EA002213430B448E
:101B00008844CBF80030B3E7254B01221A704FF020
:101B1000000BCEE70C9B3A68FF219A1A404604F06E
:101B20000FFC224A396813685B1A0D990B606379C0
:101B30002179AD1B1B01A9EB050543EA0133CAF866
:101B400000501360584603B0BDE8F08F0C9B3A6814
:101B5000FF219A1A404604F0F3FB144A39681368CF
:101B60005B1A0D990B6063792179AD1B1B04A9EBFE
:101B7000050543EA0163CAF8005013604FF0020BF9
:101B8000E0E7242B3FF674AF02F00F01D20658BFF6
:101B900009310901E1546BE74FF0040B89E700BFFD
:101BA0003D180020341800200F180020381800209D
:101BB000351800200E1800203C18002008180020BE
:101BC0000C1800200A1800200000FFFF1318002046
:101BD000024B0021186802F065BE00BF68180020A3
:101BE000014B186802F060BE6818002008B502F0CA
:101BF0005DFE064B06491B681B1A5842584140F2CD
:101C00006912BDE8084001F0D1BE00BF6C18002089
:101C10009865000038B5104D104C0FCD0FC40FCD96
:101C20000FC495E8030084E8030000F03FFB0C4874
:101C300001F094F901F030F90A4B18600A4B4FF4A7
:101C400000721A60094B01221A60094B094A400AC6
:101C50001860094B1A6038BDCC65000040180020A0
:101C6000491E00009C2B0020642B0020602B0020CC
:101C70005C2B002074180020582B002070470000B7
:101C800008B5FFF7A5FF074B1978074B1A788A426A
:101C900003D1022A04BF01221A70BDE80840FFF7F1
:101CA0009FBF00BF741A0020751A00202DE9F84369
:101CB000064613380128454C454994BF00200120B1
:101CC0004FF43A7201F072FE94F82030032B07D1E2
:101CD000BDE8F8433E494FF43B72002001F066BE78
:101CE0002368002B50D0A569E269AA424CD325B1E4
:101CF0006568A268AA1A5542554105F0010294F898
:101D0000269084F82520002B40D194F82770033FBB
:101D100018BF0127002D3BD094F8248094F823307D
:101D2000002B236908BF0025013333D060682849A0
:101D3000013040F20A3218BF012001F037FE62681C
:101D400023699B1A6269B2EB432F8CBF01230023E6
:101D500016B3032384F8203094F82030032B0CD1E1
:101D600094F821303BB1FEF763FF002384F8213063
:101D70009E4208BF0646174B1E70B9F1000F23D1D3
:101D8000BDE8F843FFF77CBF0025B6E70127C1E7B0
:101D9000A846C3E70023DBE7B9F1000F09D033B948
:101DA000002FD6D0B8F1000F08BF0426D1E70626D1
:101DB000CFE7002DCDD1B8F1000F01D00223C9E744
:101DC000002FC9D00123C5E7BDE8F88340180020E3
:101DD000986500003E18002030B4194C94F820504B
:101DE000032D06D130BC174940F23522002001F006
:101DF000DDBD256805B92060A068013094F8270092
:101E000008BFA1600328A06908BF84F8273090426A
:101E100007D9E069904204D91AB1032030BCFFF71A
:101E200045BF481C02D0A0688842F6D1032B03D0DE
:101E300094F827109942F0D1A2610020EEE700BF8C
:101E400040180020986500002DE9F041354C1D46F2
:101E500007468846164600F0ADFA94F82030032B6A
:101E60001FD0B8F1020F16D1D4F80080B04518D1B8
:101E7000284601F065F80646284601F03DF804467C
:101E80003846FEF751FE3246034621464046BDE83D
:101E9000F041FFF7A1BFB8F1000F04D0B8F1010F76
:101EA0001BD0BDE8F0813846FEF73EFE0328F8D08F
:101EB000284601F050F88307F3D43846FEF734FE85
:101EC0000746284601F03CF80446284601F014F87D
:101ED0003B46014622463046D9E72368B342E0D16B
:101EE00094F8223033B100234FF0FF322360A26018
:101EF000A361D6E70C4D0FCD0FC40FCD0FC495E8ED
:101F0000030084E80300FFF763FE084B1A78012AF8
:101F100004D1074A1278022A08BF1A70BDE8F041BE
:101F2000FFF75EBE40180020CC650000751A002047
:101F3000741A002010B50446FFF758FEFFF76AFE3A
:101F40000649074A074B2CB1022010700122087085
:101F50001A6010BD0C7014701C60FAE7741A00202F
:101F6000751A0020942B0020F8B5414E414C0546CF
:101F7000FFF73CFEFFF72CFE327823789A4203D11C
:101F8000BDE8F840FFF72CBE3B4940F2F9120120B2
:101F900001F00CFD3378022B11D1384B93F820302F
:101FA000012B55D008D9023B012B05D9324940F20B
:101FB0000B22002001F0FAFC4FF4FA7304E0002B2E
:101FC00037D12278022A3BD12D4A11684EF65F2084
:101FD000814203D80D4499421560D1D925783778CC
:101FE0003570012D08BF02234FF0000608BF237093
:101FF0001660FFF7F5FD022F16D1204C94F8203023
:10200000032B05D00123304684F82630FFF74EFE1F
:1020100094F820001849C31E584240F2111258414A
:1020200001F0C4FC00F068FA012D17D9022D19D077
:10203000F8BD012B04D12378022B0CD0002BC3D088
:102040000D4940F21B22002001F0B0FC0023BBE749
:1020500044F62063B8E740F6C413B5E7094B002205
:102060001A60E5E7FFF7D6FD064B0122F8E700BF4F
:10207000741A0020751A002098650000401800208E
:1020800070180020942B002008B5FFF7AFFD014B1E
:10209000187808BD3E18002008B502F007FC094B6F
:1020A0001860002002F0FCFB074B1860FFF7B2FD40
:1020B000064A00231370064A1370064A1360064A44
:1020C000136008BD6C18002068180020741A0020E6
:1020D000751A002070180020942B002070B504465B
:1020E0000D461646FFF782FD064B1B684BB10120DB
:1020F000FEF77AFB324629462046BDE8704000F0E4
:1021000033BF70BD942B00202DE9F0410546884671
:102110001646FFF76BFD534B1B68CBB1524B534C2C
:1021200000221A6094F82030032B11D00120FEF712
:102130005BFB32464146284600F042FF94F82030CF
:10214000032B05D094F8223023B163689D423ED220
:10215000BDE8F08171024046FEF7D2FC0328074635
:1021600020D094F82100424940F2852280F00100FD
:1021700001F01CFC681C18BF01203D4940F286227A
:1021800001F014FC6368013394F8273008BF6560E0
:10219000032B636808BF84F827709D4207D0032093
:1021A000FFF784FD94F82230002BD1D0CDE794F8CE
:1021B0002730BB42F3D13846FEF7CEFC0028EFD1E2
:1021C0000123E56084F8213084F82230E8E7E368F1
:1021D0009D420AD0BCD22369013308BF256123691F
:1021E000AB4294BF23612561B2E7E369354403EB59
:1021F0004623770294F82360E361E56026B100206E
:10220000BDE8F041FFF752BD19494FF4317201208A
:1022100001F0CCFB164994F8210040F2C52201F0F0
:10222000C5FB39464046FEF7CDFC1328054610D1C4
:10223000FEF7FEFC0123054684F8216084F8233074
:1022400084F82430FFF71AFD63693B446361284634
:10225000D6E7142803BF012384F82430354684F8D8
:102260002460F1E7942B0020701800204018002013
:1022700098650000002203461146104618470000EA
:1022800070B5064607480D46FEF736F904462DB1EF
:1022900036B902460349284604F02AF8204670BDA4
:1022A0000024FBE7F46500007047000037B5304CB0
:1022B000304A23464FF0806113F81F0F002814BFE7
:1022C0001846104600F0FEFC2B48FFF7D3FF14F829
:1022D000145F2949034629480022954218BF204629
:1022E00000F032FF2648FFF7C5FF254903460022CC
:1022F000244800F029FFFFF7C7FE40B12248FFF74E
:10230000B9FF214903460022204800F01DFF204B61
:10231000204A2148412101F025FA58B11F48FFF712
:10232000A9FF1E49034600221D4800F00DFF0021B1
:1023300000F0E0FD002300934FF400430193FEF70B
:1023400081F980B1009801994FF4807203F0C0FFC9
:10235000044640B91348FFF78DFF12490346224651
:10236000114800F0F1FEFFF79FFF03B030BD00BF42
:10237000CC63000060660000952600006C660000DB
:10238000092A0000786600005927000084660000D2
:10239000BA1A0020B81A0020761A002091280000EE
:1023A000C76A00008122000090660000002070478C
:1023B00000207047F7B507460C46FFF7F7FF20B936
:1023C00001F04CFD18B1022C0AD103B0F0BD01F0B0
:1023D00047FD0028F7D101F04EFA0028F3D1F4E7C9
:1023E000002C6FD101230DF1070138468DF807301D
:1023F000FFF7DEFF10BB3C4E4FF0FF3531680B227C
:10240000384603F065FF00B935790134102C06F128
:102410000806F3D16B1C1DD00F2D4CD8DFE805F05A
:1024200008150E1E272B2D313337393D3F434549C3
:10243000FEF708F910B1012001F03CF99DF80730D2
:10244000002BC2D0FFF71CFCBFE72849E222002086
:1024500001F0ACFA00238DF80730EFE7244B1C683D
:10246000236898472369984763689847E6E70120FF
:1024700001F0FBF9E2E70020FAE7012001F0F6F9AC
:10248000DCE70020FAE7012001F0F1F9D6E70020AF
:10249000FAE7002001F0CCF9D0E70120FAE70120AB
:1024A00001F0E6F9CAE70020FAE7012001F0CCF9D3
:1024B000C4E70020FAE70D494FF48872002001F0CC
:1024C00075FABBE7012C80D10A490B22384603F08C
:1024D000FFFE00287FF479AF01F084FA03B0BDE875
:1024E000F040FFF7CDBB00BFE86A00009C6600002B
:1024F00000650000C76A000008B5FEF7A1F820B12A
:10250000FFF7C2FD08B9FEF7C1F9FEF79BF820B14D
:1025100001F018F930B1FEF7B9F9054A1368013333
:10252000136008BD01F08AF90128F6D1F3E700BF76
:10253000BC1A00202DE9F04FA5B004AE2E9C074632
:10254000884691460021802230469A4603F0F8FEE4
:10255000631E31467E3413F8012F1AB19C4201F8F4
:10256000012BF8D1DFF81CB135462B78402B0ED06B
:102570005BB9AD1B0195009653464A464146384625
:1025800001F0DFF925B0BDE8F08F0135EDE76B789C
:10259000562B33D8412B01D83B4C37E0423B142B10
:1025A000FAD801A252F823F0512600009925000024
:1025B0006326000099250000992500009925000058
:1025C0005726000099250000992500009925000054
:1025D0009925000007260000992500009925000094
:1025E00099250000992500006F260000992500001C
:1025F0005D2600004B26000069260000623BDAB22F
:10260000142ACCD9C8E700F09FFE04462846FDF7FF
:1026100073FF03902046FDF76FFF039A11180239EC
:102620000346294424A8884229D9023AA91CE8185B
:10263000039303F06BFE039B21461A46284603F0E2
:1026400057FE2B78002B90D193E700F065FEDCE776
:1026500000F066FED9E700F067FED6E700F068FEFE
:10266000D3E700F069FED0E700F06AFECDE79BF803
:102670002A30064C064A002B08BF1446C6E715440C
:1026800077E700BFCC630000CB660000F663000074
:10269000D1660000F7B50F4600B1F1B94502560208
:1026A0000F4B00932A4600233146384601F067F964
:1026B0000C4B0093044603462A4631463846FFF742
:1026C00039FF094B0093044423462A4631463846D5
:1026D00001F055F9204403B0F0BD0020FBE700BF36
:1026E0000A670000DA670000DD6700002DE9F743A4
:1026F0000A9C0094984605460E46174601F03FF99D
:102700004FF00209124B00933A4608EB00033146A2
:102710000446CDF80490284601F013F90B9B009372
:10272000044408EB04033A463146284601F027F9F1
:10273000084B00930444CDF8049008EB04033A4698
:102740003146284601F0FDF8204403B0BDE8F0838F
:102750000A6800009A6800002DE9F74F0D4692467E
:102760000446FFF791FC064600F09AFD0746304606
:1027700000F0AAFD06460CB1002D4BD14FEA442BC8
:10278000254B01974FEA4A2A00935A4600235146A7
:102790002846FFF7ABFF214B0093044603465A46F9
:1027A0005146284601F0EBF81D4F044407F1140987
:1027B0004FF001086EB9022301931A4B00935A4659
:1027C00023465146284601F0BCF8204403B0BDE83A
:1027D000F08F4F45EFD0B8F1000F0AD102230193DB
:1027E000114B00935A4623465146284601F0A9F85A
:1027F0000444F3070AD53B6800935A4623465146E2
:10280000284601F0BCF84FF000080444C6F3470620
:102810000437CFE70020D9E7006800000668000011
:10282000D46A00009A6800000D68000070B4049E2D
:10283000044D054C002E08BF2C46049470BCFFF7D5
:1028400055BF00BF10680000AA7600002DE9F041D6
:1028500086B00DF10C0804460D4640460D991F4602
:10286000164601F034F800F118030DEB03000023C5
:1028700000F80C3C0C9B0093CDF804803B4632469C
:1028800029462046FFF732FF06B0BDE8F081000080
:102890002DE9F04F87B000230E46029308B10029BE
:1028A00075D13C4B1B78012B6ED0022B3A4B14BFD9
:1028B0004FF00008984644025502384B00932246D8
:1028C00000232946304601F05AF8354B0193354B29
:1028D000009307460346224629463046FFF706FF87
:1028E000314B1B8801930744304B009322463B46F3
:1028F00029463046FFF7AAFF07EB000AB8F1000FA0
:102900000AD02B4A00925346CDF80480224629462D
:102910003046FFF7EBFE824402A800F07FFF8046BE
:1029200070B3029A62B3234A009253462246294664
:10293000304601F024F8DFF880B0824400270DF122
:102940000C090AF10A02B2F5007F19D20A2259468F
:10295000484603F0CDFC029A484652F8271000F092
:102960009DFF0A23019322465346CDF80090294645
:10297000304600F0E6FF0137FAB290458244E0D8D5
:10298000504607B0BDE8F08FDFF8308093E79A46F5
:10299000F6E700BFBA1A00201D6800002968000091
:1029A000761A002032680000B81A0020376800004C
:1029B0003C680000436800009C630000126800004F
:1029C0002DE9F04186B0002405460E4698460D9943
:1029D000049447F630030DF10E0017460393ADF84B
:1029E00014408DF8164000F059FF03AB01930C9B87
:1029F00000933A464346314628468DF81640FFF785
:102A000075FE06B0BDE8F0812DE9F04385B00D46B6
:102A100056024702644B00933A460023314628464B
:102A200000F0ADFF614B0093044603463A46314641
:102A30002846FFF77FFD5E4B0093044423463A4649
:102A400031462846FFF776FD044400F012FF594B4B
:102A500001903A463146009328462346FFF7E6FEAA
:102A6000044400F008FF544B01903A46314600936D
:102A700028462346FFF7DAFE044400F0FEFE4F4BE3
:102A800001903A463146009328462346FFF7CEFE92
:102A9000044400F0F4FE4A4B01903A46314600935C
:102AA00028462346FFF7C2FE044400F0D3FE454B00
:102AB000019000933A46234631462846FFF7B6FE7A
:102AC000414B0093044423463A463146284600F0E1
:102AD00056FF3E4B0093044423463A46314628466F
:102AE000FFF728FD044400F04DFC08B30DF1080881
:102AF0004FF0060936494A46404603F0F9FB354B8C
:102B000000933A4623463146284600F038FF0444F5
:102B100000F05AFD04220146404600F0FCFE234628
:102B2000CDE900893A463146284600F00AFF0444C0
:102B3000294B00933A4623463146284600F01FFFB2
:102B4000044400F009FC58B100F036FC234B01901E
:102B500000933A46234631462846FFF731FF0444A6
:102B600000F030FC1E4B019000933A46234631465C
:102B70002846FFF725FF1B4B1B68019304441A4BA3
:102B800000933A46234631462846FFF75FFE174B2F
:102B90000093044423463A4631462846FFF7CAFCD0
:102BA000204405B0BDE8F0834E6800009D68000039
:102BB000AD680000BA680000C5680000D868000071
:102BC000EB6800000869000015690000306900002A
:102BD000A6630000496900005D690000B569000056
:102BE000C4690000BC1A0020D2690000E06900003E
:102BF0007047704710B5540208462246002103F082
:102C00009FFB204610BD000008B5034608463BB9AF
:102C100004494FF4007203F06BFB4FF4007008BDE1
:102C20000020FCE7C81E002008B5034608463BB953
:102C300004494FF4007203F05BFB4FF4007008BDD1
:102C40000020FCE7D120002083185B02B3F5806FE1
:102C500070B506460D46144607D900200B4940F2D0
:102C6000632200F0A3FE002070BD4FF4007200212B
:102C7000284603F065FB36B9054B06491A68284615
:102C8000520103F035FB6002EEE700BF686B000005
:102C9000C41E0020C41A002043000133B3F5007F96
:102CA00005D3064940F23912002000F07FBE044AE5
:102CB00002F81010090AD154704700BF686B000079
:102CC000C81E00202DE9F84FDFF89091644D654C47
:102CD000DFF89481654F8A464FF400720021064662
:102CE00048464FF0000B03F02BFB4FF4007200211D
:102CF0005F4803F025FBC02259465E48C5F800B086
:102D000003F01EFB4FF4806259465B4803F018FB4A
:102D10005A4B5B4A83F800B05A4B5B491A604846ED
:102D20004FF40072C4F800B0C8F800B0C7F800B0A3
:102D300003F0DEFA99F80C3099F80B200AF5803A86
:102D400042EA0322BAFBF2F399F80D2041F25A0A43
:102D50000AFB02F199426AD94FF4AB724B495846CB
:102D600000F024FE99F80D300AFB03F3B3F5803F21
:102D70004FF0000264D389F8132089F81420C3F3BC
:102D8000072289F82120C3F3074289F8222089F815
:102D900020301A0E89F8232099F80D20B3FBF2F3A6
:102DA0005B00DFF8D0A03A4903F2FF13C3F34722D8
:102DB00089F81620C3F347433022504689F817306C
:102DC00003F096FA99F8172099F8163043EA02238F
:102DD0000422C8F80020DAF808205B02CAF8143090
:102DE000CAF8203002EB4302DAF82C301A44204BA8
:102DF0003A60F8221A70FF225A7001204FF6FF71D4
:102E00002860FFF749FF2B6822491B4801332B60DC
:102E100020220023236003F06BFA17480B2231466F
:102E200003F066FA236801332360BDE8F88F4FF69C
:102E3000917A0AFB02F29A4298D240F259128DE737
:102E4000C3F3072189F8133089F8141089F820207A
:102E500089F8212089F822209CE700BFD12000209A
:102E6000C8200020C41E002094230020C01A002087
:102E7000C81E0020D4220020C41A0020D020002028
:102E8000F32B0000CC200020CA6B0000686B000010
:102E9000EC6D0000CA6D000010B5144BDC7C187D91
:102EA00054EA002006D0DC7A1B7B44EA0324444326
:102EB000204610BD93F8210093F8204044EA0024F6
:102EC00093F8220044EA004493F8230054EA006493
:102ED00005D0DA7A1B7B42EA03235C43E8E7044926
:102EE00040F28912204600F061FDE1E7D120002088
:102EF000686B0000C1727047427F037F43EA022380
:102F0000827F43EA0243C27F53EA026311D0837E89
:102F1000C07E094A43EA0020517B831ED07A127B8F
:102F200040EA022205480068B0FBF2F001FB030012
:102F300070474FF0FF307047D1200020C01A0020AA
:102F4000427F037F43EA0223827FC07F43EA02433A
:102F500043EA00607047C07A70470000014B186078
:102F6000704700BFCC2000202DE9F0478946044679
:102F70001546002152024846104E03F0E1F906F1D1
:102F8000C00A00273846B368844207EB53270ED3A4
:102F9000A7420CD9A7EB0408A84528BFA846201AC9
:102FA00033684246494698474444A5EB080515B1A5
:102FB0000C365645E6D1BDE8F08700BFD42200208C
:102FC0002DE9F74F4FF00008DFF85890DFF858A0D0
:102FD0000446154640464FF00C0BD9F800205FFA26
:102FE00088F39A4202D803B0BDE8F08F0BFB03A32D
:102FF00084429E6800EB56260DD3B4420BD2371B99
:10300000AF4228BF2F46201A5B6801913A46984785
:1030100001993C44ED1B08F10108002DE3D0304636
:10302000DBE700BF94230020D4220020F0B5034644
:103030000078E52885B011D088B120280ED0114F36
:103040005E1E03F10A0416F8015F10223946684635
:1030500003F04EF9A5F16103192B02D8002005B049
:10306000F0BD1F2D01D8052DF8D16A46002312F8B6
:10307000011B8D42F2D00133102BF8D1B442E2D1C2
:103080000120ECE7996B000083185B02B3F5806FB9
:103090002DE9F74F884608D928494FF41F720020C0
:1030A00003B0BDE8F04F00F081BC254BDFF89490F1
:1030B000B0FA80F46409560203EB402A770901EB69
:1030C000441B0AEB4415BC4207D3324641465046E6
:1030D00003B0BDE8F04F03F00BB920225946284653
:1030E00003F0F6F8B8B10B225946284603F0F0F881
:1030F0002A460190D9F800C05B4602215846E047B5
:103100009BF80020E52A0BD15B462A460121284680
:10311000D9F800C0E04701340BF1200B2035D2E78D
:10312000019B002BF7D05846FFF780FF0028F2D014
:103130005B462A4600215846EAE700BF686B00005C
:10314000C41A0020CC2000202DE9F74FDFF824819D
:103150001C468A4691468346FFF768FF40F2951267
:10316000454900F023FC98F80C2098F80B7047EACA
:10317000022798F80D207A43531E2344B3FBF2F73D
:103180004CB33E4D2E6800237A1E9A42286815D80B
:103190004FF6FF71FFF780FD2B6801332B60384A33
:1031A00013681F2B19D94FF4D5723349002000F052
:1031B000FDFB0025284603B0BDE8F08F411C89B215
:1031C00001920093FFF768FD2968009B019A013185
:1031D00029600133D9E72646E1E72A4D2A4905EB64
:1031E0004315013313602846202203F081F80B2297
:1031F0005946284603F07CF8C6F307412348297551
:10320000310E697501682C77C4F307226A77AE76B0
:10321000C4F30742C6F30726240E0F29AA77EC77DA
:10322000EE7602D94FF4DC72BFE7194B194E1A4AF9
:103230000C244C4303EB040CBAF1000F18BF5646A4
:10324000B9F1000F1E5118BF4A46CCF8042098F877
:103250000C4098F80B30114A43EA042398F80D40CB
:1032600063437B43CCF808301378013101330160AC
:1032700013709FE7D1200020686B0000C820002059
:10328000C41E0020C41A0020AA6B00009423002052
:10329000D4220020F52B0000F12B0000D0200020CC
:1032A000272808B503D8054B53F8200028B900207B
:1032B0000349F72200F07AFB024808BDB075000010
:1032C0001C6E00009C68000027289ABF014B185C08
:1032D000012070475076000010B5EFF3108472B6ED
:1032E00000F036FD84F3108810BD10B5EFF31084A4
:1032F00072B600F03DFD84F3108810BDB0F5003FBC
:1033000007D201390844B0F5003F2CBF002001204E
:1033100070470020704700000048704716240020C6
:1033200000487047B423002000487047C72300209E
:1033300000487047F523002000487047BE23002056
:10334000004870474724002000487047E8230020C9
:10335000004870475C24002008B50C212020FFF7AE
:10336000CDFF48B10020054B026A9A4204D1406A61
:10337000034BC31A5842584108BD00BF939D939B0D
:103380002028056E08B50C2148F22000FFF7B6FF93
:1033900050B14FF40043064A196A914205D1586A68
:1033A000044BC31A5842584108BD0020FCE700BF37
:1033B0008F9E939B2028056E014B1868704700BFB5
:1033C00098230020014B1868704700BFA0230020FD
:1033D000F8B50024164F174E174D3C6047F6FC71A8
:1033E000204634602C60FFF789FF28B147F6FC7156
:1033F0002046FDF75DFA386010494FF40040FFF7B2
:103400007DFF28B10D494FF40040FDF751FA3060BF
:103410004FF480514FF4F830FFF770FF30B14FF4A4
:1034200080514FF4F830FDF743FA2860F8BD00BF33
:1034300098230020A02300209C230020FC6F010083
:103440002DE9F041FFF7C4FF5448DFF85081544F95
:1034500000F00EFE01F05EFA0522002104465148FC
:1034600002F06EFF212200214D4802F069FF212267
:1034700000214D4802F064FF092200214B4802F070
:103480005FFF48480522002102F05AFF042500266C
:10349000B81958F8041B00F001FA013D064415F074
:1034A000FF05F6B2F4D1BD55DFF804813E4F042686
:1034B000781958F8041B00F0F1F9013E054416F0A4
:1034C000FF06EDB2F4D17E55384D3A49284600F05A
:1034D000E5F9C0B22E5401F0EBF9324D0146042259
:1034E000284602F005FFC4F30F32C4F30733092A5C
:1034F00088BF5733304A2E7198BF3033DBB2137018
:10350000C4F30323092B8CBF573330335370C4F3F8
:103510000313092B04F00F048CBF57333033092CED
:103520008CBF573430349370D470244B244800241B
:10353000147130221A7032225A7035229A70372252
:10354000DA701C713122214602F0FAFE15491C483E
:1035500002F0FEFE18491A4802F0FAFE1049184817
:1035600002F0F6FE1149164802F0F2FE1448FCF78C
:10357000C3FFC0B2134B421C52001A7003225A7090
:103580000F4A2546E1B2884201D8BDE8F08112F821
:10359000011B9970DD7001340233F3E7A42300208E
:1035A000C7230020B4230020F5230020BE230020E1
:1035B0004C2400202028056EB92300204724002039
:1035C000162400205C24002008B5FFF7DBFE10B1B4
:1035D0004FF40043986A08BD70B52F4D2F4C8E22D2
:1035E0000021284602F0ACFE6278237843EA0223E9
:1035F000A27843EA0243E27843EA0263284A93420C
:1036000047D16379227942EA03228E2A164638BFCF
:103610008E268E2A28BF8E222146284602F068FE7A
:10362000002385F847308E2200211C4802F088FED6
:10363000642323706C2363707623A37026716B233D
:1036400018491948E370360A4122667102F050FEAB
:1036500095F8483095F84B2084F8483095F8493073
:1036600084F8493084F84B2095F84A300F491048C7
:1036700084F84A30920002F03BFE95F88C3084F8D2
:103680008C3095F88D3084F88D30BDE8704000F0B6
:10369000EBB88E26C7E700BFC0240020007F0020C3
:1036A000646C766BC7240020077F00200C25002067
:1036B0004C7F0020014B9871704700BF007F0020B5
:1036C000F8B50D460646FCF717FF41220446471C95
:1036D0000021114802F034FE412F84BF403C3619CE
:1036E0000E4C88BF41273A463146E01D02F000FEED
:1036F00084F848502D0A84F84950FCF7A1FF18B10E
:10370000012384F84A30F8BDFCF79CFF08B102237E
:10371000F7E784F84A00F6E7077F0020007F0020E3
:1037200010B5074C41220021E01D02F009FE0023E4
:1037300084F8483084F8493084F84B3010BD00BF1D
:10374000007F0020024B9879003818BF0120704795
:10375000007F0020024B9879003818BF0120704785
:10376000C02400202DE9F84306461C488846174629
:103770001D46FCF7C1FE044626B1424600213046F4
:1037800002F0DEFD0FB100233B800DB100232B7052
:10379000DFF84C9099F80700E8B1621C90453FBFF4
:1037A000C8F1070189184944424628BF09F10701B9
:1037B00056B199F8483099F8490043EA00233B8014
:1037C000304602F095FD01E0002FF9D115B199F8CE
:1037D0004A302B700120BDE8F88300BF077F00202E
:1037E000007F00200C4B93F84B100F29024610D895
:1037F000481CC0B2123183F84B0003EB8103C2F3C3
:1038000007211A715971C2F30741120E9971DA71C9
:1038100070470020704700BF007F0020034B024626
:1038200093F84B0008B14C3313607047007F0020C1
:10383000014B83F88C007047007F0020014B93F808
:103840008C007047007F0020014B83F88D0070478B
:10385000007F0020034B93F88D00003818BF012033
:10386000704700BF007F0020704770477047704767
:1038700070470020704701207047002070470020EB
:1038800070470000044B0A0901F00F019A5C5B5C71
:1038900002704370022070477876000070B50D46C4
:1038A000090E0646FFF7EEFFC5F307410446301840
:1038B000FFF7E8FF0444C5F307213019FFF7E2FFE3
:1038C0000444E9B23019FFF7DDFF204470BDF0B5C4
:1038D000054600200A4603460A24B2B950EA03040A
:1038E00004BF012013462C180A260027B1FBF6F26C
:1038F00006FB1211303104F8011D11462A1B024447
:10390000824277EB0302F1D3F0BD013043F10003B3
:10391000B2FBF4F2E1E7F8B5154606460F46FFF7AD
:10392000D6FF854204460AD92A4630212C1B304650
:1039300002F006FD30193946FFF7C9FF2C46204634
:10394000F8BD70B5059DC0B15E19964215D35418E7
:103950009C4212D393423BBFD11AAA1A9B1AD21887
:103960002ABF2A4600230021A64284BFA41B1219A5
:10397000049C1844214402F0BBFC284670BD2DE98C
:10398000F341DDF82080044640460D4616461F46AA
:10399000FCF7B2FDCDF8008001903B463246294647
:1039A0002046FFF7CEFF02B0BDE8F081F8B5034630
:1039B0000D461646A8B9EFF3108772B602460146C7
:1039C000FFF7D0FE044618B931462846FFF778FEC7
:1039D00087F310882CB9EFF30383DB0601D1FEF7E0
:1039E0004FF9F8BD10B5EFF3108472B6FFF798FEEB
:1039F00084F3108810BD00002D4BF7B51C690546F7
:103A00000CB30422002301460DEB0200019302F0E7
:103A10006FFC019804F1D4035A7819785E7941EA71
:103A200002219A7841EA0241DA7841EA02611A7980
:103A300042EA06229E7942EA0642DE7942EA0662BC
:103A400051EA020602D1002003B0F0BD884201D342
:103A5000904201D91433DFE704260422A9190DEBA3
:103A6000020002F045FC019804F10C035A78197821
:103A70005F7941EA02219A7841EA0241DA7841EA23
:103A800002611A7942EA07229F7942EA0742DF7906
:103A900042EA076251EA0207D5D0884201D3904238
:103AA00001D91433E2E70436102ED6D10120CBE73A
:103AB000CC630000084A126808B503460AB1126ACE
:103AC00022B91846BDE80840FFF796BF9047003876
:103AD00018BF012008BD00BF580200200B4A126821
:103AE000034612B1526A02B110471A783A2A08D135
:103AF000187A302807D0323803288CBF00200120E4
:103B00007047002070470120704700BF5802002016
:103B100000F0A2BA2DE9F041374DD5F8200120B3CD
:103B2000364B0024C5F820411E68D5F84C05821993
:103B30001A60334B196801441960324B1E68B24257
:103B40004DD2B61A304F202E28BF20263246384696
:103B500002F0CEFB0123C5F84475C5F84865AB609B
:103B60004FF48073C5F804332046234BD3F810215B
:103B700062B100211022C3F81011C3F80823234BAF
:103B80001A6861F341021A6040F002001A4BD3F840
:103B9000442122B10022C3F8442140F04000D3F870
:103BA0002421B2B1D3F88024C3F88024150748BF7C
:103BB00040F080000021540748BF40F48070C3F8F3
:103BC0002411910748BF40F40070D30748BF40F06C
:103BD00020000F4B1B686BB1BDE8F04118474FF454
:103BE0008073C5F80833094B1A6864F300021A6041
:103BF0000920BAE7BDE8F0810020004078250020C8
:103C0000542500207C2500205825002080250020F8
:103C1000502500204FF08053D3F830010D2804D0F8
:103C2000A0F110035842584170470120704700002E
:103C300008B5FFF7EFFF40B14FF080430022C3F813
:103C40000C21C3F81021C3F83825FFF7E3FF002843
:103C500046D04FF08052374BD2F80414C3F82015E9
:103C6000D2F80814C3F82415D2F80C14C3F8281598
:103C7000D2F81014C3F82C15D2F81414C3F8301568
:103C8000D2F81814C3F83415D2F81C14C3F8401530
:103C9000D2F82014C3F84415D2F82414C3F84815F8
:103CA000D2F82814C3F84C15D2F82C14C3F85015C8
:103CB000D2F83014C3F85415D2F83414C3F8601590
:103CC000D2F83814C3F86415D2F83C14C3F8681558
:103CD000D2F84014C3F86C15D2F84424C3F8702508
:103CE000FFF798FF48B14FF08043D3F80024D20784
:103CF00044BF6FF00102C3F800244FF08053D3E9B2
:103D00004C230D2A10D1022B02D80B4AD35C3BB1B5
:103D10004FF01023D3F808224FF08043C3F8582502
:103D2000064B074A1A6008BD102AF9D1032BEFD8B9
:103D3000044AEBE700C0004089760000D001002073
:103D40000090D0038C760000002070470020704760
:103D5000064B0222C3F80425C3F80805D3F8002453
:103D6000D207FBD50020C3F80405704700E00140EE
:103D70000B4B30B521F003010124C3F80445114475
:103D8000801A8A4203D10020C3F8040530BD84188C
:103D900052F8045B2560D3F80044E407FBD5F0E754
:103DA00000E001401B4B1B681F2B2ED84FF0A04298
:103DB00003F5E071032042F82100012101FA03F329
:103DC000C2F80C35144B1A681F2A1AD84FF0A043BA
:103DD00003EB82030322C3F80027C3F80027C3F8CC
:103DE00000270E4B1B681F2B07D84FF0A04203F58E
:103DF000E0730C2142F823107047094A03F01F03B7
:103E0000F5E7074B02F01F02E2E7054A03F01F0344
:103E1000CEE700BF982500209C250020A02500208B
:103E200000030050094B1B681F2B0BD84FF0A0411B
:103E3000012202FA03F310B9C1F80C357047C1F83A
:103E400008357047024903F01F03F1E79C25002065
:103E500000030050FFF7E6BFFFF7E4BF0020704704
:103E6000074B1B681F2B8ABF064A4FF0A04203F086
:103E70001F03D2F81005D840C04300F0010070477E
:103E8000A02500200003005010B101280CD070477D
:103E90004FF08043C3F80401D3F804210222C3F891
:103EA000042301229A6070474FF080430022C3F838
:103EB0000021D3F80021C3F8040318607047435869
:103EC000002B1EBF002242504258A1F5807114BF42
:103ED00001230023890803FA01F0704703680BB13E
:103EE00008461847704707B5002A8DF8001041684A
:103EF00008BF4FF4807201920A4342606946FFF79F
:103F0000EDFF03B05DF804FB2DE9F74301238B724D
:103F10004D7ADFF83881DFF838910E464FF4827120
:103F20000746FFF7CCFF4FF4927104463846FFF77F
:103F3000C6FF4FF4A67104433846FFF7C0FF4FF4A5
:103F4000A87104433846FFF7BAFF4FF4B271044337
:103F50003846FFF7B4FF4FF4B47104433846FFF717
:103F6000AEFFEDB20443002C35D0042D55D8DFE868
:103F700005F0033845565D0014F0020302D024F02A
:103F80000204F0E7610110D5E20258BF01258DF867
:103F900000304CBF02252B46694630468DF8043070
:103FA00024F0C364FFF79AFFDDE7A3010BD50323D9
:103FB0008DF8003004F40023002B0BBF01230023F5
:103FC00003250425E8E7D7F8D024C7F8D024062134
:103FD0003046FFF788FF00237572B37203B0BDE867
:103FE000F0831C4D254003D024F480140225BAE749
:103FF000D7F8D024C7F8D0240221E9E714EA08054D
:10400000F6D001238DF80030D7F84C35019369467E
:104010003046FFF763FF24F002040025A3E714EA0B
:1040200009050CD024F4002404259CE714EA0805B3
:1040300005D004238DF80030D7F83C35E6E7D7F8F3
:10404000D024C7F8D0240521C2E700BF0200000633
:10405000020008060200100603498B7A13B90348D0
:10406000FFF752BF704700BF84250020003000409A
:104070004FF08053D3F8002102601A6E42605B6EED
:1040800083600023C36070474FF08053F0B4D3F8CF
:1040900000211B4B1B4E1C4D1C4C1D481D499A42B8
:1040A0001D4A1E4B1BD1292737600F262E60112574
:1040B000256002240460032008601D2111601C2279
:1040C0001A604FF08043D3F80C24D3F80C34D90392
:1040D00001D5D30711D4F0BC0120FFF7D5BE0627C8
:1040E00037600E262E600F2525601D2404600820F1
:1040F00008601C2111601E22E2E7F0BC704700BF7F
:1041000033280500A02500209C25002098250020AC
:10411000A8250020A425002090250020942500201B
:104120000020704700207047002070470020704733
:104130000020704770470020704700207047000043
:10414000F0B5124F124C87B009252A463946684609
:1041500002F0CEF82A466946204602F0C9F8172632
:104160000C4B0025324607F1090168461D7002F02C
:10417000BFF83246694604F1090002F0B9F8E57269
:1041800007B0BDE8F040FDF787BF00BFAC6300009B
:10419000AD250020F62600204FF08053D3F83001E3
:1041A0000D2804D0A0F11003584258417047012057
:1041B0007047000008B5FFF7EFFF48B1144B49F214
:1041C00075320321C3F8002CC3F8141DC3F8002C6A
:1041D000104B0122C3F800250F4AD3F8001409053B
:1041E00001D4013AF9D1D3F8002422F40062C3F8D3
:1041F0000024FFF7D1FF48B1054B49F27532002189
:10420000C3F8002CC3F8141DC3F8002C08BD00BF70
:1042100000E00640007002400071020010F0780FCC
:1042200070B5C4B224D104F07F04C0F3C0101A4B9F
:1042300004EBC00592B233F81550954228BF1546DD
:10424000164A142623B206FB042290B19B0003F108
:10425000804303F51C33C2F80016C2F8045601224D
:104260005A60D3F80821002AFBD00022C3F80821A5
:1042700070BD9B0003F1804303F51C33C2F80017A7
:10428000C2F8045701229A62D3F83021002AFBD0E9
:104290000022C3F83021EBE7042B0020007002401D
:1042A00010B5FFF779FF0A4C20B1FFF783FF002319
:1042B000C4F80035FFF77EFF0123C4F80433054B33
:1042C000402283F827238022C3F884215A6010BD3E
:1042D0000070024000E100E0054BD3F8042520B156
:1042E00042F00102C3F80425704722F00102F9E709
:1042F0000070024038B50B4D0B4C4FF0FF33C5F842
:1043000008330A4B00211960094B01221A6020462C
:10431000202202F015F8402323802382054BC5F8A4
:10432000043338BD00700240042B0020242B0020F1
:10433000F82600200104A001704770477047000074
:10434000837813F0780F13D1C27802F00302012AA8
:104350000ED04179027942EA0122D90903F07F03A4
:1043600003EBC103402A034928BF402221F8132050
:10437000704700BF042B00200038024B18BF0120FB
:1043800018607047F826002010F0780FC2B214D1E0
:1043900002F07F0310F0800F4FF0010202FA03F2E7
:1043A000064B05D0D3F810150A43C3F81025704703
:1043B000D3F814150A43C3F814257047007002405F
:1043C00010F0780FC2B212D102F07F030421012253
:1043D00099409A40064BC3F80813D3F81015D243FE
:1043E0000A4010F0800FC3F8102500D070477047C6
:1043F0000070024010F0780FC3B21ED113F07F039B
:10440000C0F3C01017D00D4A40B143F0800143F40F
:10441000C073C2F80C15C2F80C35704743F48071B4
:10442000C2F80C35C2F80C15044A03F59473002148
:1044300042F8231001E00028F6D0704700700240D7
:1044400010F0780FC3B20ED113F07F03064A02D1E9
:1044500001235365704701064CBF43F4C07343F416
:104460008073C2F8183570470070024010F0780F62
:10447000C3B20BD103F07F03054A10F0800F18BFC1
:1044800043F08003C2F81835FFF7B4BF704700BF90
:10449000007002402DE9F04100F078030D46C0F3B2
:1044A000C0110B43C4B25AD114F07F0438D12D4B44
:1044B0001E682EB92C4B1B687BB33046BDE8F081DB
:1044C0001C602A4BD3F880242A70D3F884246A70A5
:1044D000D3F88824AA70D3F88C24EA70D3F89024F7
:1044E0002A71D3F894246A71D3F89824D2B2AA71AD
:1044F000D3F89C14E97142EA012212B21C4952B964
:1045000001220A601A650826184B04F594740022EB
:1045100043F82420D1E70C60F5E7154B1B68E3B99D
:1045200004F59473DFF8448058F82370B9B29142CF
:1045300088BF1746BEB20F49F21C22F0030201EBFE
:104540008411FFF76BFE3246284601F0D1FE002CA5
:10455000DAD10123C8F85030D6E72646D4E7002642
:10456000ABE700BF242B0020F8260020007002409B
:10457000FC2600200427002010F0780F70B5C3B28D
:10458000054629D1C0F3C014280623D513F07F03B4
:1045900005D11348006808BB12480468D4B1124C16
:1045A00003F1080034F8106094B2B44228BF3446D6
:1045B00023B9B4423EBF0D4B01221A600C4E06EBEC
:1045C00080162246304601F093FE224631462846A8
:1045D000FFF724FE204670BD0024FBE71C46F9E7E8
:1045E000FC260020F8260020042B002000270020B5
:1045F00004270020044B8022C3F88420BFF34F8F90
:10460000BFF36F8FFCF7FAB800E100E0F8B5434B59
:10461000D3F8002152B10022C3F80021FFF76AFE4F
:1046200001F020FA3E4B1B6803B198473B4BD3F88F
:10463000582192B1D3F800440022C3F80024C3F8F3
:104640005821E20503D5374B1B6803B19847A305F2
:1046500003D5354B1B6803B19847304CD4F854311F
:1046600033B10023C4F85431304B1B6803B1984771
:10467000D4F85C3163B12E4B01221A602D4A00231D
:104680001360C4F85C312C4B1B680BB102209847B7
:10469000224BD3F8282182B1264A14680022C3F89D
:1046A0002821254B1B6823B1244A12689AB308209D
:1046B000984714B1194B01221A65184BD3F86021A1
:1046C0002AB3D3F86C541C4F00220124C3F8602194
:1046D0002646C3F86C5406FA04F32B4204D057F86C
:1046E00024300BB1082098470134082CF3D1124F25
:1046F00001244FF4803606FA04F32B4204D057F815
:1047000024300BB1042098470134082CF3D10C4B12
:1047100080225A60F8BD0420CAE700BF0070024042
:10472000107700001C770000147700001877000055
:10473000242B002000270020C8760000F826002047
:1047400000E100E00C4A0D49002313600C4A13609D
:104750000C4A13600C4A13600C4A13600C4A136035
:104760004FF0E022E02051610A4981F82300936173
:1047700007231361704700BF382B0020FEC30900D8
:10478000282B00203C2B0020302B0020342B002035
:104790002C2B002000ED00E00C4B1A6810B50C4CDF
:1047A0004AB10C4B1B6833B12068B0FBF3F103FB3B
:1047B000110000B99047236801332360064B1A6843
:1047C00012B11A68013A1A6010BD00BF302B0020E8
:1047D000382B0020342B00203C2B0020014B18608C
:1047E000704700BF302B0020014B1860704700BF9E
:1047F000342B0020024B18601A68002AFCD1704745
:104800003C2B002072B6034A13681843106062B64E
:10481000704700BF282B0020054B1A680242FCD0CD
:10482000186872B61A6822EA00021A6062B6704707
:10483000282B0020014B1860704700BF2C2B002054
:10484000024B1B680BB10020184770472C2B00202F
:1048500008B5FFF777FF002008BD08B5FFF7EAFFAE
:10486000012008BD08B5FFF7EBFF002008BD10B51B
:1048700008460C46FFF7C6FF204610BD08B5FFF7F7
:10488000B9FF002008BD08B5FFF7A8FF012008BD4B
:1048900008B50846FFF7A8FF002008BDFFF7BCBF1A
:1048A00000207047002070470020704701207047AB
:1048B00080B400AF154B1B69002B22D0134B1B6932
:1048C00093F89C2193F89D1109020A4393F89E11D5
:1048D00009040A4393F89F311B061343002B10D0A1
:1048E0000A4B1B6993F89C2193F89D1109020A4316
:1048F00093F89E1109040A4393F89F311B06134352
:1049000000E0034B1846BD4680BC7047CC630000F6
:10491000D063000080B400AF0F4B1B69002B14D094
:104920000D4B1B6993F8A02193F8A1311B0213438F
:104930009BB2002B09D0084B1B6993F8A02193F878
:10494000A1311B0213439BB201E0034B5B88184665
:10495000BD4680BC704700BFCC63000000F054B877
:1049600010B51A4B1A4A19791278914201D00020D9
:1049700015E05A78FE2A13D0FF2AF8D1DA78997810
:1049800041EA02219A79DB7942EA03230B43EED113
:1049900000F070F80028EAD001F0C0F8012010BD46
:1049A0009A78D97852EA0122E1D19879DC7940EA03
:1049B0000424012CDBD100F071F80028D7D0054B7E
:1049C000054A1A6001F07EF8E8E700BFBE2B002020
:1049D000F6260020A82B0020762600207047000035
:1049E00010B50446FFF72CFD2306064B4ABF4FF4D3
:1049F0008030012004F00F0400FA04F41868044326
:104A00001C6010BDB02B0020154B1B791A0603F05B
:104A10008F0042BF03F00F024FF480339340114ADE
:104A2000127858BF012342F0800258BF834082426F
:104A300014D10D4A1268134210D00C494A780B78F1
:104A400043EA02238A7843EA0243CA7843EA0263CC
:104A5000074A934202D10D22FFF78EBD704700BF77
:104A6000BE2B00207D770000B02B0020872B00207C
:104A700055534253064A00231360064A137053707D
:104A80009370D370044B07221A700120704700BF47
:104A9000B82B0020872B0020482B0020024B00223F
:104AA0001A700120704700BF7626002010B51A4A00
:104AB0001A4C517A137A43EA0123917AD27A43EA63
:104AC000014343EA0263226815499342154A96BF9F
:104AD0002360042303231370134B2268187840F0DB
:104AE0008000FFF749FD114A517A137A43EA012306
:104AF000917A43EA0143D17A43EA016321685B1A60
:104B0000C3F3072113725172C3F307411B0ED37213
:104B100000231373917210BD682B0020442B0020DA
:104B2000B6260020482B00207D770000872B002030
:104B3000094908B555230B7053234B70CB70074BB5
:104B4000187842228A7040F080000D22FFF714FD91
:104B5000034B05221A7008BD872B00207D770000CB
:104B6000482B002038B51A4B1D681A4B1D606DBBD1
:104B7000194B1A4C597A1A7A42EA0122997A42EA76
:104B80000142D97A52EA016209D093F90C30002B24
:104B90000BDA134B187840F08000FFF721FF012358
:104BA0002373FFF7C5FF284638BD627A237A43EAAC
:104BB0000223A27A43EA0243E27A43EA0263094A01
:104BC00012689342EBD0084B1878E6E70125EAE734
:104BD000942B0020982B0020682B0020872B00208E
:104BE0007D770000442B00207E7700002DE9F843FC
:104BF0003E4F3F4B3A681B683E4D9A423DD33E4B79
:104C00001878002440F08000FFF7EAFE2C73FFF7CD
:104C10008FFFFFF7A7FF394EDFF8E4803368DFF836
:104C2000E490002808BF0024002B31D1002C31D0A3
:104C3000354BD8F800201B6838681344013BB3FBA0
:104C4000F2F3D9F800209A4228BF1A462F4B196870
:104C5000FDF744FA2D4B31681868274B014418784A
:104C6000224640F08000FFF787FC3368264A234441
:104C7000336013681B1B13600CE0254B1A78254B1F
:104C800033F81240204B1B689C4228BF1C46C0E7EB
:104C9000002CDFD1D9F80010D8F8002033684A433F
:104CA0009A4204D1002333603B680B443B606A7A2C
:104CB0002B7A43EA0223AA7A43EA0243EA7A43EAD6
:104CC00002631B1BC3F307222B726A72C3F30742F2
:104CD0001B0EAA72EB7234B10B4B1B681BB90E4A48
:104CE0002B7303211170BDE8F88300BF402B002017
:104CF0005C2B0020872B00207D770000542B0020A8
:104D0000642B0020602B00204C2B0020582B00200F
:104D1000BC2B002080770000482B00202DE9F047B5
:104D2000484B494E1B683268484F9A4209D3484B5A
:104D3000002418783C60FFF753FE464B1C73FFF7C6
:104D4000F7FEFFF70FFF00B93860DFF80C813A6813
:104D5000D8F80030414813440268934250D8404C80
:104D6000404D00213A68D8F800308A424FD83E4D75
:104D7000D1182B68C8F80010A3EB0209C5F8009001
:104D8000DAB1DFF8E8A00468DAF80020B9F1000F22
:104D900045D1002943D0631E0B44B3FBF4F4314BDF
:104DA00030681968944228BF14462246FDF7ACF9D2
:104DB0003268C8F8009022443260264A3968507A36
:104DC000137A43EA0023907A43EA0043D07A43EA15
:104DD00000635B1AC3F3072013725072C3F30740DA
:104DE0001B0E9072D37259B32B681BB1204B1B78EA
:104DF000052B25D100231373BDE8F047FFF798BEBC
:104E0000BDE8F0471B49FE220020FEF7CFBD2A680F
:104E100014F801CB0A44013102F803C0A2E754435D
:104E2000A142CAD10F4B30681968FDF76DF9002314
:104E3000DAF80020C8F80030336813443360BCE768
:104E4000BDE8F0875C2B0020402B0020442B002085
:104E50007E770000872B0020542B0020642B00203D
:104E6000B6260020582B00204C2B0020602B002061
:104E7000482B002085770000F8B53E4E3E4B326847
:104E80001B683E4D9A4209D33D4B002418782C6094
:104E9000FFF7A6FD3B4B1C73FFF74AFEFFF762FED0
:104EA000394C00283AD12860384A286811682368AC
:104EB000091A1160364A1568364A126803446A4373
:104EC0009342236004D10023236033682B44336072
:104ED0002C4A547A137A43EA0423947A43EA04432B
:104EE000D47A43EA04631B1AC3F30724137254727F
:104EF000C3F307441B0E9472D372002838D019B143
:104F0000254B1B78052B33D1244B1B68B3FA83F355
:104F10005B091373BDE8F840FFF70ABE2A682368EF
:104F2000002AC1D01E4F83B91A4B39681A68174B33
:104F300030681B681344013BB3FBF2F3144A126858
:104F40009A4228BF1A46FDF7C9F83B6822682F68C5
:104F5000144899183A4413448B42A5D011F8017BA8
:104F600010F8012B9742F7D00C4B00221A609BE7F8
:104F7000F8BD00BF402B00205C2B0020442B0020FC
:104F80007E770000872B0020542B00204C2B002024
:104F9000602B0020642B0020482B0020502B002089
:104FA000582B0020B626002010B5304CA27C637C24
:104FB00043EA0223E27C43EA0243227D43EA02639E
:104FC0002B4A1BBA13602B4A00211160E27BA82AEE
:104FD00021D01BD82A2A2AD02F2A28D0282A2BD001
:104FE000254A12685343254A1360617A227A42EABD
:104FF0000122A17A42EA0142E17A52EA016222D117
:105000001F4B01221A73FFF793FD13E0AA2AE7D181
:10501000FFF7A8FD70B1A27D637D43EA0223E27D24
:1050200043EA0243227E43EA02631BBAD8E7FFF752
:1050300099FD08B9002010BDA37DE27D43EA02235B
:105040005BBA9BB2CCE793420DD094F90C30002BA5
:10505000B5BF0C4B0C4B18781878B8BF40F08000E7
:10506000FFF7BEFCCCE70120E5E700BF682B00207E
:10507000402B0020542B0020642B00204C2B0020C0
:10508000872B00207D7700007E77000010B5124B43
:10509000587A1C7A44EA0024987A44EA0044D87A80
:1050A00054EA006406D10D4B02221A73FFF740FD4B
:1050B000204610BD93F90C30002B0ADB084B187802
:1050C000FFF78EFC054B02221A730024FFF730FD18
:1050D000EEE70124ECE700BF682B0020872B0020BF
:1050E0007E77000010B5FFF7D1FF00283AD01E4BA5
:1050F0001E4870221A7000241D4A5C7012680168F4
:1051000032EA01011BD006219970282119735C73C2
:10511000026000220A21DA701A715A719A711A72A9
:105120005A729A72DA729A73DA731A745A74D9715B
:10513000104B1222BDE810401A60FFF7B7BC2AB925
:10514000022199703A2119735A73E2E70A4A127BD5
:1051500012B99A701A73F7E705229A7020221A730F
:105160005973D6E710BD00BFB6260020982B00204B
:10517000942B0020442B0020872B002010B5FFF734
:1051800085FF18B3124B002280211A7059705A7192
:1051900002219A71DA7120200E4A9970D970187123
:1051A000116808331C220C7874B101311C70013A6B
:1051B00012F0FF0203F10103F5D1074B2422BDE8F1
:1051C00010401A60FFF772BC1870F0E710BD00BF06
:1051D000B6260020D8010020442B002010B5FFF790
:1051E00055FF48B3FFF7BEFC30B3144B14490322FC
:1051F0001A7000225A700968DA70C9019970114B4F
:1052000004201860104B5C7A197A41EA04219C7AD8
:1052100041EA0441DC7A41EA0461814208D90B4940
:10522000187208724A728A72CA725A729A72DA7262
:10523000BDE81040FFF73ABC10BD00BFB626002005
:10524000A02B0020442B0020872B0020682B00205F
:1052500010B5FFF71BFF68B3FFF784FC50B3164A85
:10526000062100235170154913709370096813715A
:10527000C901D17053719371D371114A0820106024
:10528000104A547A117A41EA0421947A41EA04419D
:10529000D47A41EA0461814208D90B49107208723C
:1052A0004B728B72CB7253729372D372BDE8104003
:1052B000FFF7FCBB10BD00BFB6260020A02B0020CE
:1052C000442B0020872B0020682B002008B5FFF717
:1052D000DDFEE8B1FFF746FCD0B10E4B1A680E4B6D
:1052E000013A110E1970110C5970DA70110A0B4A3B
:1052F00099701268DA71110E1971110C5971110A35
:105300009971074B08221A60BDE80840FFF7CEBB31
:1053100008BD00BF5C2B0020B6260020642B0020B7
:10532000442B002010B5FFF7B1FE002839D0FFF75D
:1053300019FC002835D01B4B0821D97000221A49CE
:105340001A705A709A700968D971080E1871080C91
:105350005871080A02211972144998710968D972A2
:10536000080C5872080A9872114B0C201860114BE7
:105370005C7A197A41EA04219C7A41EA0441DC7A98
:1053800041EA0461814208D90B49187208724A72D5
:105390008A72CA725A729A72DA72BDE81040FFF7C6
:1053A00085BB10BDB62600205C2B0020642B00209E
:1053B000442B0020872B0020682B002038B5FFF7F6
:1053C00065FE00283ED0204B204C214D02221A7051
:1053D0005A70204B2A6003211970617A237A43EABC
:1053E0000123A17A43EA0143E17A43EA016393424C
:1053F00009D91949227200230A724B728B72CB723F
:105400006372A372E372154B0F491878022240F0C1
:105410008000FFF7B1F8627A237A43EA0223A27A86
:1054200043EA0243E27A43EA02632A689B1AC3F31F
:10543000072223726272C3F307421B0EE372012339
:10544000A272237338BD00BFB6260020872B002030
:10545000442B0020482B0020682B00207D77000083
:1054600010B5FFF713FE40B31449154C00234B70E1
:10547000CB77144B202203200A701870124B226045
:10548000187840F08000FFF777F8104A517A137AC5
:1054900043EA0123917A43EA0143D17A43EA016363
:1054A00021685B1AC3F3072113725172C3F30741DA
:1054B0001B0ED37201239172137310BDB626002008
:1054C000442B0020482B00207D770000872B0020F4
:1054D00010B5134A517A137AD47A43EA0123917AA8
:1054E00043EA014353EA046413D092F90C30002BD1
:1054F000B5BF0C4B0C4B18781878B8BF40F0800043
:10550000FFF76EFA094B01221A73BDE81040FFF74E
:105510000FBBFFF727FB10B1044B1C73F5E710BD61
:10552000682B00207D7700007E770000872B00200D
:1055300038B5094B094C9D7C5DB9D87C084B00F00F
:1055400001001860FFF74AFA2573BDE83840FFF7FD
:10555000EFBA01232373F8E7682B0020872B002084
:10556000942B0020034B044ADB7C03F001031373EC
:10557000FFF7DEBA682B0020872B0020024B0022A9
:105580001A73FFF7D5BA00BF872B0020A04BA14AA2
:105590001968A1481F2970B54FF000030D46144645
:1055A00028BF1F25AB423BD11F2940F014816278F0
:1055B000237843EA0223A27843EA0243E27843EAEB
:1055C0000263964A934240F0068162792379944DB2
:1055D00043EA0223A27943EA02432B71C3F3072271
:1055E0001B0C6A71AB71E379EB71627A237A43EA3F
:1055F0000223A27A43EA02432B72C3F307221B0C55
:105600006A72AB72E37AEB72637B1BB9A37B013BDB
:105610000F2B0BD901232B73BDE87040FFF788BA1D
:1056200010F8016B02F8016B0133BBE7E37B2F2B12
:105630005ED8192B2AD8032B68D0122B6AD0002BE6
:10564000E8D1BDE87040FFF743BF9E3B0C2BE1D88B
:1056500001A252F823F000BF555700001556000074
:10566000155600004D57000015560000C9570000A0
:10567000155600001556000015560000155600007E
:105680005D57000015560000855700001A3B152B8A
:10569000C0D801A252F823F02D5700001D5700007A
:1056A000155600001556000025570000155600003D
:1056B0001556000015560000155600003D57000015
:1056C00015560000455700001556000015560000FD
:1056D0005D57000015560000855700001556000064
:1056E0001556000015560000155600009B57000087
:1056F000AA2B8FD89D2BA8D85A2B1BD0912B01D029
:10570000352B87D1BDE87040FFF738BFBDE870404A
:10571000FFF7E8BCBDE87040FFF730BDBDE8704062
:10572000FFF706BFBDE87040FFF71CBFBDE8704043
:10573000FFF754BDBDE87040FFF78ABDBDE870407B
:10574000FFF7F0BDBDE87040FFF7C0BDBDE8704099
:10575000FFF734BEBDE87040FFF782BEFFF724FCC0
:1057600060B394F90C30002B06DA2E4B02221A702B
:10577000BDE87040FFF73ABA2B4B1878FFF730F9C5
:10578000022348E7FFF710FCC0B194F90C30002B5E
:1057900015DB244B01221A7010E0237C13F0020366
:1057A0003FF439AFFFF700FC40B194F90C30002B07
:1057B00005DB1C4A012313701C4A136070BD1C4B8F
:1057C000187840F08000D9E7194B187840F0800035
:1057D000FFF706F91EE7164B164C1D7845F08000C2
:1057E000FFF7FEF805F00F0522684FF48033AB4059
:1057F000134323600C4B1D782846FFF7F1F820680F
:105800000123AB40034323600622064BC3E700BFDE
:10581000442B0020682B0020B6260020555342431D
:10582000872B0020482B00207E770000502B002083
:105830007D770000B82B002008B5104A1378023B92
:10584000032B19D8DFE803F002120C160C4BDB7B9C
:1058500003F07F03282B0FD1BDE80840FFF7C6B93E
:10586000084B187840F08000FFF7BAF8BDE8084010
:10587000FFF75EB90023137008BD00BF482B00205E
:10588000682B00207D77000008B5214B1A78072A85
:1058900031D8DFE802F02C043030301430261D4BB4
:1058A000DB7B2F2B07D003F07F032A2B2ED1BDE803
:1058B0000840FFF733BABDE80840FFF7DDBA164BE2
:1058C00016491A7801239340154A1268134218BFEB
:1058D0000120BDE8084040F23F4208BF0020FEF72B
:1058E00065B800221A700F4B1B681F2B0ED1BDE844
:1058F0000840FFF74BBE084B1878FFF771F80A4BCA
:1059000002221A73BDE80840FFF712B908BD00BFB4
:10591000482B0020682B00207E7700008577000050
:10592000B02B0020442B0020872B002008B5064B0D
:1059300006491A88064B1878FEF7ACFD054B18602F
:10594000BDE80840FFF7A0BFC2760000B6260020E1
:105950007E770000442B0020420710B5044602D594
:105960000020FFF7E3FF230703D5BDE81040FFF752
:1059700063BF10BD2D4A137813F01F0370B50546A1
:1059800003D0022B1BD000230FE09478D27844EA96
:105990000224012C09D1264E48B12046FEF7CCFC4A
:1059A000338843F0020333802B46184670BDFEF760
:1059B000C3FC338823F0020333800123F5E7117918
:1059C0000B0642BF01F00F034FF480349C40194B8B
:1059D0001B7801F08F065CBF0124B440002BE4D09B
:1059E00011F00F03E1D0144B1B682340DDD09378F6
:1059F000D27853EA0223C6D138B13046FEF720FDF3
:105A00000E4A136823431360CEE70D4B1B681C42FC
:105A1000D3D13046FEF72AFD3046FEF79FFF074AF6
:105A2000136823EA04031360C7E700BFBE2B0020FE
:105A3000A62B0020A42B0020B42B0020B02B00208C
:105A4000B82B002008B5054B00221A70FEF778FB32
:105A5000FEF770FBBDE80840FEF722BCBC2B00201F
:105A6000FEF73ABC084B1A78084B1A80084A002304
:105A70001370084A1370084A4FF001111160074A69
:105A80001360074A1360704784770000A62B00203C
:105A9000A52B0020A42B0020B42B0020B02B00202D
:105AA000B82B0020024B1878003818BF012070472F
:105AB000A42B0020024908220020FEF7EBBC00BF07
:105AC000BE2B002010B50A490A4C0A78A3889342DD
:105AD00098BF1A460AB9084B1A7021688020FEF751
:105AE0004BFD236803442360A388181AA08010BDCF
:105AF0007C770000A82B0020C62B002010B5064C98
:105B00000020A2882168FEF7C5FC236803442360B7
:105B1000A388181AA08010BDA82B002000221146CF
:105B20008020FEF729BD0000024B03491A780020AF
:105B3000FEF7B0BC7C770000762600202DE9F04F00
:105B4000034687B09B07019040F18980914C924DAC
:105B5000FFF7B0FF2078C009FEF70EFCE279A379C9
:105B600043EA0223AB802378C3F34112012A00F0F9
:105B70003D83022A00F04F83002A40F0B38063780F
:105B80000B2B00F2AF80DFE813F00C004D00AD00EE
:105B90005900AD005B00A600AD00A101A7018A027B
:105BA0009E02237803F01F03012B07D0022B15D090
:105BB000002B40F09780794B2B6030E0784B1B78BE
:105BC000002B00F08F80774B22791B789A4280F06F
:105BD0008980754B00221A705A70EDE794F90430F1
:105BE0002279002BB5BF02F00F0102F08F014FF4B4
:105BF000803301238B406A49097809B9170771D1AD
:105C00006A4A126813426DD06949674A09680B42B3
:105C100014BF012300231370002353702A60FFF781
:105C200051FF1CE00020FFF7A5FE00285AD0FFF727
:105C300075FF604B1B6893B1984710E00120F2E7B5
:105C40002378DE064ED1A0785B4B60F07F02012105
:105C500000F07F001A70FEF770FBFFF75FFF019BFB
:105C6000580717D54B4D95F90030002BC0F2F08244
:105C7000494CA38873B1FFF741FFA38853B92B7830
:105C8000C3F34112012A00F0D3828020FEF7D8FB33
:105C90000023A380019B19070DD53E4B93F90030DB
:105CA000002B80F2D8823C4B9B8813B9434B1B7866
:105CB0000BB1FFF707FF019B5A0602D50020FEF744
:105CC000D5FB019B1B0640F1D482802007B0BDE8C4
:105CD000F04FFEF7CBBB237813F01F0313D0012B3B
:105CE00000F0EC8094F90030002BC0F29F82A37981
:105CF000E27953EA022300F099820020FEF7A0FB2C
:105D00000023AB80ABE7E378013B0E2BEAD801A27E
:105D100052F823F0515D0000D95D00006D5E000077
:105D2000E55C0000E55C0000795D0000315E00008C
:105D3000E55C0000E55C0000E55C0000E55C00005F
:105D4000E55C0000E55C0000E55C0000A75E00008B
:105D50001B4B2B6012230593059BAA889A427FF662
:105D60005EAF184AAB801278013A1A427FF457AFFF
:105D7000124B01221A7052E7134B1B78002BB1D043
:105D8000124B134A1978134B002918BF13462B6086
:105D90000A23E0E7BE2B0020A82B0020A62B002022
:105DA000A42B0020BD2B002076260020B42B002041
:105DB000B02B002008770000A52B0020C62B002068
