:04000003000084F97C
:020000040000FA
:10800000007F0020F984000021850000CDA400003D
:10801000258500002785000029850000A442FCDF9B
:108020008F9E939B2028056E02010000358500007D
:108030002D850000786A01009F850000AF85000053
:10804000399D0000338500006D1101004D0B0100CA
:108050003385000000000000D99C000000000000F3
:108060003385000033850000338500003385000030
:108070003385000033850000338500003385000020
:108080003385000033850000338500003385000010
:108090003385000033850000338500003385000000
:1080A00033850000338500003385000000000000A8
:1080B00000000000000000000000000000000000C0
:1080C00000000000000000000000000000000000B0
:1080D00000000000000000000000000091230100EB
:1080E0000000000000000000000000000000000090
:1080F0000000000000000000000000000000000080
:10810000000000000000000000000000000000006F
:10811000000000000000000000000000000000005F
:108400000348044B834202D0034B03B11847704723
:10841000CC0C0020CC0C00200000000005480649D0
:108420000B1AD90F01EBA301491002D0034B03B182
:1084300018477047CC0C0020CC0C00200000000036
:1084400010B5064C237843B9FFF7DAFF044B13B19C
:108450000448AFF300800123237010BDD00C00202E
:10846000000000003086010008B5044B1BB1044930
:108470000448AFF30080BDE80840CFE700000000EB
:10848000D40C002030860100A3F5803A704700BF6D
:10849000154B002B08BF114B9D46FFF7F5FF002140
:1084A0008B460F461148124A121A00F0F3F90C4B92
:1084B000002B00D098470B4B002B00D09847002092
:1084C000002104000D000B4800F07EF806F067FB69
:1084D0002000290006F0F2FC00F07CF80000080003
:1084E000000000009DEB0000007F0020D00C002069
:1084F000A44F0020FD8500000649074A074B9B1A40
:1085000003DD043BC858D050FBDC08F0BDFEFFF78C
:10851000BFFF00005886010000000020CC0C0020A6
:10852000FEE7FEE7FEE7FEE7FEE7FEE7FEE7FEE723
:10853000FEE7FEE71EF0040F0CBFEFF30880EFF339
:108540000980816911F8021CD9B901B590E80F10B2
:10855000E047BDE800508CE80300194B93E80600A3
:10856000914208BF704719B12CE9F00FC1F838C02B
:108570001A60906BB0E8F00F80F309886FF0020E7C
:108580007047104A13689942FAD801B552F821C0D1
:108590000FC8E047BDE80050CCF80000704701B5B7
:1085A0000AF0F2FDBDE80140EFF3098CD5E701B513
:1085B0000AF0B2FDBDE80140EFF3098CCDE7000001
:1085C000F40B0020C0820100002301461A46184621
:1085D00000F0F6BA08B5074B044613B1002100F0CD
:1085E0003FFB054B1868836A03B19847204600F0AB
:1085F00085FB00BF618C00000C6A010038B50A4C95
:108600000A4D641BA4100AD004F18043013B05EB22
:108610008305013C55F804399847002CF9D1BDE891
:10862000384010F00BB800BF588601005486010096
:10863000032A70B412D940EA0105AD0704460B467F
:1086400020D11946204653F8045B54F8046BAE421F
:1086500018D1043A032A20461946F2D8541E72B1A2
:1086600003780A789A4208BF241806D00CE010F864
:10867000013F11F8012F934206D1A042F7D100200B
:1086800070BC7047541EEBE7981A70BC704700BF6F
:10869000844641EA000313F003036DD1403A41D30D
:1086A00051F8043B40F8043B51F8043B40F8043BCC
:1086B00051F8043B40F8043B51F8043B40F8043BBC
:1086C00051F8043B40F8043B51F8043B40F8043BAC
:1086D00051F8043B40F8043B51F8043B40F8043B9C
:1086E00051F8043B40F8043B51F8043B40F8043B8C
:1086F00051F8043B40F8043B51F8043B40F8043B7C
:1087000051F8043B40F8043B51F8043B40F8043B6B
:1087100051F8043B40F8043B51F8043B40F8043B5B
:10872000403ABDD2303211D351F8043B40F8043BFB
:1087300051F8043B40F8043B51F8043B40F8043B3B
:1087400051F8043B40F8043B103AEDD20C3205D30B
:1087500051F8043B40F8043B043AF9D2043208D003
:10876000D2071CBF11F8013B00F8013B01D30B8875
:1087700003806046704700BF082A13D38B078DD053
:1087800010F003038AD0C3F10403D21ADB071CBF25
:1087900011F8013B00F8013B80D331F8023B20F88F
:1087A000023B7BE7043AD9D3013A11F8013B00F8C8
:1087B000013BF9D20B7803704B7843708B78837050
:1087C000604670478842F0B40DD98B1883420AD9AD
:1087D000841832B1224613F8014D02F8014D994236
:1087E000F9D1F0BC70470F2A0ED80346541E002A58
:1087F000F7D001340C44013B11F8012B03F8012F91
:10880000A142F9D1F0BC704740EA01039B073BD17C
:10881000A2F110073F0901F1200606EB071601F14E
:10882000100300F1100453F8105C44F8105C53F886
:108830000C5C44F80C5C53F8085C44F8085C53F892
:10884000045C44F8045C1033B34204F11004EAD130
:108850007B1C1B0112F00C0F194402F00F0503449E
:1088600015D0043DAD0803EB850C1C1F0E4656F8D1
:10887000047B44F8047F6445F9D10135AD002B44F5
:10888000294402F00302B1E7541E0346B1E72A4629
:10889000ACE700BFF0B4860746D0541E002A3CD097
:1088A000CAB2034602E014F1FF3436D303F8012BB9
:1088B0009D07F8D1032C29D9CDB245EA05250F2C07
:1088C00045EA054533D9A4F11006360903F120071E
:1088D00007EB061703F1100242E9045542E902557D
:1088E0001032BA42F8D1721C14F00C0F03EB0212D2
:1088F00004F00F0613D0331F23F003030433134493
:1089000042F8045B9342FBD106F003042CB1C9B2D8
:108910001C4403F8011B9C42FBD1F0BC7047344659
:108920001346002CF3D1F8E714460346C2E71A4673
:108930002646E0E7830710B5044610D10268A2F18D
:10894000013323EA020313F0803F08D150F8042FCB
:10895000A2F1013323EA020313F0803FF6D003783B
:108960001BB110F8013F002BFBD100F003F82046AB
:1089700010BD00BF80EA0102844612F0030F4FD100
:1089800011F0030F32D14DF8044D11F0040F51F8DE
:10899000043B0BD0A3F101329A4312F0803F04BF95
:1089A0004CF8043B51F8043B16D100BF51F8044B7E
:1089B000A3F101329A4312F0803FA4F101320BD1AE
:1089C0004CF8043BA24312F0803F04BF51F8043B33
:1089D0004CF8044BEAD023460CF8013B13F0FF0F90
:1089E0004FEA3323F8D15DF8044B704711F0010FC3
:1089F00006D011F8012B0CF8012B002A08BF704794
:108A000011F0020FBFD031F8022B12F0FF0F16BF8A
:108A10002CF8022B8CF8002012F47F4FB3D1704752
:108A200011F8012B0CF8012B002AF9D1704700BF77
:108A30000000000000000000000000000000000036
:108A400090F800F06DE9024520F007016FF0000C8E
:108A500010F0070491F820F040F049804FF0000436
:108A60006FF00700D1E9002391F840F000F1080011
:108A700082FA4CF2A4FA8CF283FA4CF3A2FA8CF349
:108A80004BBBD1E9022382FA4CF200F10800A4FAB0
:108A90008CF283FA4CF3A2FA8CF3E3B9D1E9042304
:108AA00082FA4CF200F10800A4FA8CF283FA4CF33B
:108AB000A2FA8CF37BB9D1E9062301F1200182FAF5
:108AC0004CF200F10800A4FA8CF283FA4CF3A2FAFB
:108AD0008CF3002BC6D0002A04BF04301A4612BA09
:108AE000B2FA82F2FDE8024500EBD2007047D1E90C
:108AF000002304F00305C4F100004FEAC50514F09B
:108B0000040F91F840F00CFA05F562EA05021CBF6B
:108B100063EA050362464FF00004A9E7002A46D045
:108B200040EA010313F00303F0B425D1032A23D94B
:108B300004680D68AC423CD1043A35D0A4F101354B
:108B400025EA040414F0803F2ED1071D0D1D0DE011
:108B500057F8043B0E68A3F10134B34224EA03043E
:108B600027D1043A20D014F0803F1DD1032A294692
:108B7000384605F10405EBD803780D789D4202F1E3
:108B8000FF360ED186B17BB1044602E082180BD0CD
:108B900053B114F8013F11F8015FAB42A6EB040298
:108BA000F4D0581BF0BC70470020F0BC7047104652
:108BB000704703780D789D4202F1FF36E3D0F0E76D
:108BC0002DE9F843224C25680DB36C681F2C3BDC63
:108BD000984691460F46064688B1D5F8880028B3D6
:108BE000D0F8003140F824900122A24000EB84012B
:108BF0001343022EC0F80031C1F8808010D0A31CAE
:108C000001346C6045F823700020BDE8F883114EF4
:108C1000114D2560002ED8D03468C5F88840D4E7BF
:108C2000D0F804311A43C0F80421E8E70B4B5BB1DC
:108C30004FF48470AFF3008030B100236C68C0E95A
:108C40004033C5F88800CDE74FF0FF30DDE700BFC7
:108C5000780D002000000000EC0C00200000000057
:108C60002DE9F04FDFF8908083B0D8F800500190E4
:108C70000F464FF0010A8DB16C68D5F88860013C51
:108C80000CD405F1080B67B12EB106F1800353F83F
:108C90002430BB4205D014F1FF34F4D203B0BDE858
:108CA000F08F6B685BF82420013BA34216BF0023C2
:108CB0006C604BF82430002AEDD0D5F80490B6B1A2
:108CC000D6F800110AFA04F30B4210D0D6F80401CA
:108CD00056F8241003420CD1019890476B68D8F8DD
:108CE00000204B4501D1AA42D5D01546C3E7904795
:108CF000F4E708469047F1E7780D0020FEE700BF53
:108D000000F0ECBC427873B50446807826791304F1
:108D100043EA0023E0781843637946EA0326A379FF
:108D200046EA0346E37946EA03662378013B0D46AB
:108D300036BA0B2B00F2E180DFE803F03655AFCAFC
:108D4000CDD0D4DA7B17062606F108039D4240F009
:108D5000D480314604F1080201F037FB01460028B7
:108D600040F0CB802A46204627E001F027FB05464D
:108D7000002800F0C28008220021204600F00EFEEC
:108D800032460821284618E0A37961791B0243EA9C
:108D90000143E179194301F024FB002840F0AD8044
:108DA000207800F015FE0AE0012D0CD1284600F0D5
:108DB0000FFE01F0E7FA0B22294600F0EFFD00F06C
:108DC000DBFC02B070BD0C2D40F09780651C28467E
:108DD00001F09EFA002840F09080207800F0F8FD25
:108DE0000B220121CEE7012D0BD101F0CFFA00BA01
:108DF0000190207800F0ECFD042229460DEB0200E2
:108E0000DBE7052D79D1A378607840EA0320E37889
:108E100040EA0340237940EA036000BA01F09AFA7D
:108E200000286AD114F8010B00F0D2FD04220121C0
:108E300099E7012D12D101F0B5FA00BA009001F0C6
:108E4000B7FA00BA0190207800F0C2FD042229464A
:108E5000684600F0A3FD04220521CFE7092D4CD17F
:108E6000A3786078617940EA0320E37840EA034020
:108E7000237940EA0360A37941EA0321E37941EAD7
:108E80000341237A41EA036100BA09BA884234D81F
:108E900001F070FA2A46002165E7012D0AD103206E
:108EA00000F096FD01F078FA2A468DF80400294674
:108EB00001A882E7022D20D1101E18BF012001F069
:108EC00053FA14F8010B00F083FD012211464AE722
:108ED00001F0DCF961E701F0F1F95EE71F2363704F
:108EE0000222D8E7102300216370A17003223AE721
:108EF000034B01221A70082053E7202051E700BFDE
:108F00007D0D002030B587B00D4604460B220021B0
:108F100003A8FFF7BFFCC5B12378132B0CD80F2B88
:108F200003D893B143F220235DE0113B022B0ED80E
:108F3000DFE803F05F620400202BF3D10B22002155
:108F400003A800F02BFD00F017FC07B030BD112383
:108F50008DF80C3063788DF80D30013B062B45D829
:108F6000DFE803F0040D141A203A3F0002224849BA
:108F70008DF80E200DF10F00FFF78AFBDEE70222CD
:108F8000ADF808208DF80E2002A9F3E74FF48173A5
:108F9000ADF808300222F5E701F09AF801228DF8C9
:108FA0000800EFE701F03CF84FF47A746043019059
:108FB00001F0B6F80823444304220DEB03010DF140
:108FC0000F0002948DF80E30FFF762FB04220DEBC8
:108FD00002010DF11300CFE701222E498DF80E207A
:108FE000C8E743F22063ADF80C30A7E743F2204313
:108FF000F9E743F22033F6E76378013B092BF5D814
:1090000001A252F823F000BF31900000319000001F
:10901000319000003190000031900000319000004C
:10902000379000005F900000ED8F00007790000007
:1090300043F22073D7E7A378012B0DD1E378082BF7
:1090400001BF154A1370154B04220ABF1A7043F66C
:10905000200340F21373C6E743F22053C3E7A3781B
:10906000012BF9D1E3780E4A003B18BF012313709E
:1090700040F61303B7E7A378012BEDD1E378094A53
:10908000003B18BF0123137040F61323ABE700BF6A
:109090004E080020243C002052080020820D0020B1
:1090A000540800204C08002000F018BB08B500F060
:1090B00065FC7021084800F021FC7021074800F091
:1090C0002FFC7221064800F019FCBDE80840054855
:1090D000722100F025BC00BF058F0000018D00004B
:1090E000058D0000A99000001FB5044600F0F6FAB7
:1090F00040F611130021ADF804300B22012301A822
:109100000291ADF80C108DF80E108DF806308DF828
:10911000074000F043FC00F02FFB04B010BD00003E
:10912000022808B509D100F00DFC054A0023137090
:10913000044A01211170044A1370002008BD00BFC9
:10914000830D002054080020820D0020F8B500F5A2
:1091500084700E46440201F025F9054601F028F915
:10916000411B01F58023A34211D9A4F504376219EC
:1091700005EB410107EB050C0023101AFA18AA426F
:1091800008D2E25CF2540133B3F5007FF6D14FF41C
:109190000070F8BD914210D90CEB0302520802F5A1
:1091A000043213F0010F12780CBF120902F00F0203
:1091B000092A94BF30323732E4E7C25CE2E70000AC
:1091C00010B5002008F05CF900F048FA49F60513E4
:1091D00098422A492A4B3AD049F60612904238D092
:1091E00049F60412904236D1264A83F89C21C2F3F4
:1091F000072483F89D41C2F30744120E83F89E4171
:1092000083F89F21088000F09BFC00F0E1FE00F055
:10921000E7FD00F0E7FD00F05BFF1B4B02280CBFF1
:109220006420C820187010FB00F3584300F5FE407E
:109230004FF60163B0FBF3F0C0B200F0E7FD01F0C0
:1092400015F8FFF733FFBDE8104000F05BBA0F4A96
:10925000CBE70F4AC9E70F4A83F89C21C2F30720E6
:1092600083F89D01C2F30740120E83F89E0183F834
:109270009F2149F603130B80C5E700BF4E0800206D
:109280009C080020106A010053080020156A0100A4
:109290001A6A01001F6A010038B5284B1B68DB6998
:1092A000984738BB264C237893B108F007F9054658
:1092B00050BB02200AF08EFD224B257001221A704D
:1092C000214B224C1B884F2B19D80523237011E00A
:1092D00008F0F4F81E4D08B92B7863B101200AF0AC
:1092E00079FD194A01232370002313802B70174B3B
:1092F00007221A7038BD2378002BFBD0D5E7032056
:10930000FFF7F2FE2570F5E72378002BF2D008F086
:10931000D5F80028EED00C4A0C4913884F2B04D8FE
:109320000120087001331380E4E7772B8CBF032002
:109330000220782B0870DDD8F4E700BF307E0100F2
:10934000830D002054080020800D0020820D002095
:10935000850D002038B5624C2378022B39D100F0FE
:1093600095F9604BC8221A705F4B1A7852B10022EF
:109370001A702278012302B923705C4A022013700C
:10938000FFF7B2FE00F04EFB2378594D43BB594B1B
:109390001B782BBB2B781BBB574B1B78002B6FD03C
:1093A00000F028FBE0B1554B06221A7004232B7005
:1093B0002378002B60D14F4B1B78002B35D105F063
:1093C00057FD4A4B1B780BB94D4A137000232B7085
:1093D0002BE0002BC8D100F06DF9424B6422C2E7AC
:1093E0002B78072B21D801A252F823F0819400009A
:1093F00015940000619400006D940000B19300008A
:10940000B9940000899400000D9400003C4B962212
:109410001A700AE03B4B1A88462353436FF04F0201
:1094200093FBF2F3364A6A3B13702B78032B53D02D
:10943000334B187810FB00F3584300F5FE404FF60D
:109440000163B0FBF3F0C0B200F0E0FC2E4B1A78E1
:10945000002A44D000221A70BDE8384003F0DEBE76
:10946000274B50221A70294B0822D1E7274A13783C
:10947000002BDAD0013BD7E7022BD6D10623A6E793
:10948000184B1A781E4BC3E71D4A1378092B09D8CD
:10949000013313702378002BC7D1164B1B78002B98
:1094A00094D0C2E70A2B01D1C823F2E7BE2B94BFA8
:1094B000002303F1FF33ECE7154A13783BB1013B7E
:1094C000DBB2052B1370EAD10D4B0022A0E70A2373
:1094D00013700B4BC8229BE70C4B1878B4E738BDD0
:1094E000243C002053080020860D00205408002052
:1094F000820D0020840D00204C080020520800201E
:1095000055080020800D00207D0D00207E0D0020DC
:109510007C0D002010B5084C2378062B02D0082BB8
:1095200005D010BD00F076FB01232370F9E7BDE8FC
:10953000104000F065BB00BF52080020014B012223
:109540001A707047840D0020074A08B50023137075
:10955000064A01211170064A137000F0F3F9BDE8C4
:10956000084000F0BBB800BF830D00205408002065
:10957000820D002008B504490B22FFF759F808B9FD
:1095800000F04DFF002008BD246A010070B504F012
:109590002FF870B3224B1A68224BA0F10C0199549A
:1095A00000F5FA701344C0F3072058701E4B18687A
:1095B00003F0B0F828B11D4940F28312002007F0F3
:1095C0004FF81B4B17491A68002003F007F938B110
:1095D00003F0A6F9154940F28912002007F040F87F
:1095E00003F09EF928B111494FF4C772002007F02B
:1095F00037F800F0D7FE054600F0DAFE044600F02A
:10960000C5FE064600F0C8FE48B100F0BBFEA31937
:109610005B1B0849BDE87040002205F049B870BDE9
:109620006400002068000020307E0100306A0100E4
:10963000480800204D9100001FB500230C2201A90D
:109640001030019302930393FEF7F2FFC0B2B0FA19
:1096500080F0400905B05DF804FB00004FF0805336
:10966000084AD3F80031934208D0074949F6051259
:1096700049F603108B4208BF1046704749F60610A2
:10968000704700BF2028050033280500074B1B68E2
:109690001F2B07D84FF0A04203F5E073032142F8D7
:1096A00023107047024A03F01F03F5E7643D0020D2
:1096B00000030050074B1B681F2B07D84FF0A04238
:1096C00003F5E073022142F823107047024A03F0C9
:1096D0001F03F5E7643D002000030050074B1B68A3
:1096E0001F2B07D84FF0A04203F5E073022142F888
:1096F00023107047024A03F01F03F5E7880D00208E
:10970000000300504FF08053D3F80021144B9A42CD
:10971000144B21D109221A60134A1368D9071DD5A9
:10972000124B0121C3F80415116821F001011160E9
:10973000D3F80024D207FBD50022C3F80425BFF3D9
:109740004F8F0B490B4BCA6802F4E0621343CB60A6
:10975000BFF34F8F00BFFDE710221A60FFF7BEBFB7
:1097600033280500880D00200C12001000E0014095
:1097700000ED00E00400FA050A4B1B681F2B0CD813
:109780004FF0A04203F5E071032042F821000121CF
:1097900001FA03F3C2F80C357047034A03F01F03C4
:1097A000F0E700BF880D00200003005038B5064DDB
:1097B000064C2A8800212046FFF76CF800232B80F6
:1097C00043F62013238038BDA8150020A0110020E7
:1097D00008B50346084611460B4A12689A4203D060
:1097E0000A4A12689A4204D19847BDE80840FFF738
:1097F000DDBF074A1360074B1172506000221A70D8
:10980000BDE8084005F03CBBAC150020B0150020B9
:109810008C0D00205608002010F0010F38B5214DA6
:10982000044610D02B6819072AD51F4B5B6A98474E
:1098300048B11E490B7833B122041CD51C4BC2B26F
:109840001868FFF7C5FF220708D5174B17481B6A92
:109850004FF481619847174B04221A70630708D5AB
:10986000114B1548DB694FF481619847114B042275
:109870001A702C6038BD6304E5D5104BC2B2DFE727
:109880005A07E0D5084B5B6A9847230403D50A4979
:109890000B4BC2B2D4E76104D5D50749094BC2B21C
:1098A000CEE700BFBC150020F47F0100980D00201A
:1098B000B4150020AA150020A0110020B815002022
:1098C000AC150020B015002010B5074C23684BB133
:1098D000217A606898470023236063602372034BFA
:1098E00001221A7010BD00BF8C0D00205608002008
:1098F000014BDB68184700BFF47F0100712905D0D8
:10990000722905D0702905D1034B186000207047DB
:10991000024BFAE701207047B4150020B81500206B
:10992000712905D0722905D0702905D1034B186023
:1099300000207047024BFAE701207047AC15002069
:10994000B015002008B5FFF731FF4FF481620748DA
:109950000021FEF79FFF064A002313605360137235
:10996000044A1370044B01221A7008BD980D0020A0
:109970008C0D0020AA1500205608002010B5054CBB
:10998000FFF7E0FFA3680448984723690220BDE879
:1099900010401847F47F01001998000010B58C188A
:1099A000B4F5816F0B460CD8014606481844FEF703
:1099B0006FFE054B1A88944288BF1C80034B00221F
:1099C0001A7010BDA0110020A81500205608002014
:1099D000054B1870054B1A880AB901221A80044BEE
:1099E00000221A70704700BFA0110020A8150020A7
:1099F0005608002008B5084BDB6A9847074A03461B
:109A0000107838B103F00100054B1B7803430CBFFD
:109A10000120002008BD00BFF47F0100560800208F
:109A2000AA150020024A13780BB1013B137070474E
:109A3000AA1500204FF0805330B5D3F800210E4B0B
:109A40000E4C0F480F499A420F4A104B0AD11F255E
:109A500025601E2404600620106000220A600B228C
:109A60001A6030BD022525600324046001201060C7
:109A700007220A60F4E700BF33280500C015002064
:109A8000C4150020D0150020C8150020CC150020DA
:109A900010B5044608F0A0F8FFF70CFE4FF0A04305
:109AA0000222C3F80027C3F804270CB1FFF720FFF8
:109AB0001D4B1E4A1B681E49C3F3801313701D4BB8
:109AC000D3F804230A60D3F80413C3F808131A4B1D
:109AD0001B681F2B24D84FF0A04101EB830442F0F8
:109AE0000042D4F8000740F44030C4F800070120D9
:109AF00000FA03F3C1F820350E4B0021C3F87C11A6
:109B0000C3F80423084A402313604FF08043D3F87E
:109B10000413C3F808138021C3F80413106010BDA8
:109B2000064903F01F03D8E700E100E0D415002048
:109B3000D815002000600040683D00200003005060
:109B400008B54FF08043D3F80024D20242BF244A24
:109B500001211170D3F80034DB0342BF214B0122F5
:109B60001A70FFF767FF204B204AD3F804131160E7
:109B7000D3F80423C3F808231D4B1B681F2B2BD8D5
:109B80004FF0A04003F5E073002240F82320194B6A
:109B90001B681F2B1CD84FF0A04003F5E07341F069
:109BA000004140F82320104BC3F87C21C3F8041374
:109BB000114A402313604FF08043D3F80413C3F8D5
:109BC00008134FF4C071C3F804130123136008BDD8
:109BD0000A4803F01F03E0E7084803F01F03D1E73A
:109BE000860D0020850D002000600040D815002063
:109BF000683D0020CC15002000E100E0000300508B
:109C000008B50120FFF744FF4FF080430122C3F85D
:109C1000002508BD10B50020FFF73AFF30BF4FF018
:109C20008043D3F80423C3F808234FF4C072C3F869
:109C30000423234B01221A60224C217831B940229F
:109C4000C3F88020BFF34F8FBFF36F8F1E4BD3F845
:109C50000423C3F808231D4B1B681F2B2CD84FF07F
:109C6000A04202EB8300D0F8001721F44031C0F885
:109C70000017012101FA03F3C2F82035124B00222C
:109C8000C3F87C21124A1268C3F80423237813B165
:109C90000B4B40221A604FF0A0430322C3F8042765
:109CA0000222C3F808250122C3F80027BDE81040AE
:109CB000C3F8082507F06EBF064A03F01F03D0E77C
:109CC00000E100E0D415002000600040683D002065
:109CD000D815002000030050134BD3F87C2110B599
:109CE000EAB10022C3F87C21104B1B681F2B17D848
:109CF0004FF0A042D2F82005012404FA03F10842F3
:109D00000DD002EB8303C2F82015D3F8000720F42E
:109D10004030C3F80007064BC2F820151C7010BD78
:109D2000044A03F01F03E5E700600040683D00209F
:109D3000850D0020000300504FF0804310B5D3F88C
:109D40001C212AB10022C3F81C210A4B01221A70DF
:109D50004FF08043D3F8202152B10024C3F82041B2
:109D600008F096F90CF0FEF8034B1C70034B1C70C6
:109D700010BD00BF860D0020840D0020243C002073
:109D8000124B1B78013BDBB2FD2B1DD8104B4FF063
:109D90008062C3F88020BFF34F8FBFF36F8F0D4BEE
:109DA000D3F80425C3F808250B4A0121516011613D
:109DB0000A490022C1F81025C3F81025C3F814255C
:109DC000C3F81825C3F81C25704700BFDC15002018
:109DD00000E100E000F0014000A001400060004010
:109DE00070470000074B1B681F2B07D84FF0A0429D
:109DF00003F5E073032142F823107047024A03F091
:109E00001F03F5E7603D00200003005038B53B4CD0
:109E1000237883420ED070B9FFF7B2FF384B1B682E
:109E20001F2B62D84FF0A041012202FA03F3C1F8C0
:109E30000C35207038BDFF280DD1FFF7A1FF304B46
:109E40001B681F2B55D84FF0A041012202FA03F3E3
:109E5000C1F80835EDE7013BDBB2FD2B31D9294ACA
:109E60000321C2F808150721C2F8101500250121A9
:109E7000C2F80012C2F80455C2F8441540F6F611B3
:109E8000C2F840151E4A11681F4A42EA01221F49C2
:109E9000C1F810251E4A01F5A03101F5A271C2F8E2
:109EA0001015A1F5A031E439C2F8141501F5A0315F
:109EB000E031C2F81815A1F5A031A1F58871C2F8FA
:109EC0001C15104A00EB80014900FD2BC2F8441517
:109ED000AFD9104B4FF0806119600D4B0321C3F8CF
:109EE00004150123D3601360A3E70B4903F01F039C
:109EF0009AE7094903F01F03A7E700BFDC1500201C
:109F0000603D002000A001400300130000600040FD
:109F100000F0014000E100E0000300502DE9F047AF
:109F2000074600294DD00868284B002401255D60B4
:109F3000C3F80045C3F80042D3F80423C3F808234C
:109F40004FF03F0CC3F838451A46C3F808454FF0A8
:109F5000020EC3F80475A046C3F83455A1461E4648
:109F600004EB0C03013303EBD3735B1043EA032AC6
:109F7000C2F830A5C2F800E5C2F800911560D6F825
:109F800000A1BAF1000FFAD0B560D6F800A4756050
:109F9000C6F80085BAF1000F15D103F1FF3CACEB18
:109FA0000403002B00F10100DADC01B108604FF47A
:109FB00096635C43A009072F08BF00EB8000BDE853
:109FC000F0870846B0E71C46E9E700BF00300140D3
:109FD00008B5FFF72FFD0F4B1B681F2B16D84FF04E
:109FE000A04203F5E073032142F823100A4B1B68DB
:109FF0001F2B07D84FF0A04203F5E073002142F871
:10A00000231008BD054A03F01F03F5E7034A03F0D8
:10A010001F03E6E7C0150020C41500200003005010
:10A020004FF08053D3F80021044B9A4201D100F045
:10A030007DB8034B00211868FFF770BF3328050077
:10A04000D01500202DE9F3411E4E00230193336803
:10A050001F2B00F131004FF032040D46B0FBF4F439
:10A060002BD84FF0A041012202FA03F3164FC1F89A
:10A07000083540F6B178386801A9FFF74FFF4FF473
:10A080007A7308FB00F0B0FBF3F0019BA34203D20C
:10A09000002DF0D0A842EED333681F2B09D84FF023
:10A0A000A041012202FA03F3C1F80C3502B0BDE869
:10A0B000F081064903F01F03F3E7044903F01F038F
:10A0C000D1E700BFC0150020C815002000030050D4
:10A0D00038B5114B1C681F2C1AD84FF0A043D3F889
:10A0E000105540F20E6140F6B83025FA04F4FFF73F
:10A0F000A9FF14F0010F40F20D6304D1984294BF00
:10A100000120032038BD98428CBF02200020F9E7CF
:10A11000024B04F01F04E2E7CC15002000030050BE
:10A1200040F6E44140F6B830FFF78CBF73B52D4BD5
:10A1300000210322C3F8001501A8C3F8F02501226D
:10A14000C3F8F815C3F8F415C3F83026C3F82C0685
:10A150004FF40030C3F818050D20C3F810051C4655
:10A16000C3F81415100100F1804003EB021500F54F
:10A17000E0400132D3F81865C5F81865082AC0F820
:10A180001015C0F81415EDD10122C3F800251A608E
:10A19000D4F80031002BFBD00023C4F80031012398
:10A1A0006360104B1A46D3F804110029FBD000213C
:10A1B000C3F8041101219960D2F81431002BFBD0AF
:10A1C0000023C2F81431BDF8040000B220EAE070A8
:10A1D000C0EB0010C0EB0010800A00EB800002B062
:10A1E00070BD00BF007000400B4B30B521F0030183
:10A1F0000124C3F804451144801A8A4203D1002087
:10A20000C3F8040530BD841852F8045B2560D3F808
:10A210000044E407FBD5F0E700E00140064B0222D2
:10A22000C3F80425C3F80805D3F80024D207FBD5EA
:10A230000020C3F80405704700E0014010B5084C49
:10A24000084B094920460B2240F8043BFEF720FA50
:10A2500000234FF4F032E37322616361A36110BD08
:10A260005808002067666373046B01004FF40031E7
:10A27000044B0A689A4203D103481C22FEF708BA2D
:10A28000FFF7DCBF676663735808002008B50A480B
:10A290001C224FF40031FEF7CBF950B14FF40030DF
:10A2A000FFF7BCFF28B9044A1C214FF40030FFF728
:10A2B0009BFFC0B208BD00BF5808002010B54FF486
:10A2C0000030FFF7ABFF044608B9FFF7B7FF2046A1
:10A2D00010BD0000F0B50D4D06460FCD87B001ACA6
:10A2E0000FC42B68236001AF0024083657F8041B05
:10A2F00003223046FEF79CF928B10134052CF5D134
:10A30000002007B0F0BD0120FBE700BFA0680100FE
:10A3100038B5054604F02EF998B12846FFF7DAFF64
:10A3200030B109480B222946FEF7B2F9002038BDAA
:10A33000082229460448FEF7ABF9044904480322E1
:10A34000F2E70120F3E700BF5C0800200C6B01007E
:10A3500064080020B0F5F83F9DBF024B1861002053
:10A360000120704758080020014BD8730020704727
:10A3700058080020024B586199610020704700BFC7
:10A3800058080020004870475C080020014B1869FD
:10A39000704700BF58080020014BD87B704700BFB2
:10A3A00058080020014B5869704700BF580800202A
:10A3B000014B9869704700BF5808002000F5043031
:10A3C000B0F5802F28BF0020704710F504300B46F1
:10A3D00005D20344B3F5802F01D8FFF705BF012054
:10A3E000704738B500F5043401F5043544EA050337
:10A3F000C3F30B038BB9AC420FD8B4F5043F0CD3B5
:10A40000B5F5802F09D2204604F58054FFF706FFEA
:10A41000A54201D30028F6D038BD0120FCE708B5DD
:10A42000FFF74CFF28B9BDE808404FF4F031FFF7C3
:10A43000D8BF08BD08B5EFF3088400F00F030D2B5B
:10A4400001D1EFF30984E3699A0554BF04F12005B3
:10A4500004F12405C30658BF483505F0E1FEEFF3CB
:10A46000098005F0DDFEEFF3088005F0D9FEEFF37B
:10A47000148005F0D5FE284605F0D2FE606905F08F
:10A48000CFFEA06905F0CCFEE0690E4C05F0C8FED9
:10A49000E06A05F0C5FEA06A05F0C2FE206B05F07B
:10A4A000BFFEE06B05F0BCFE606B05F0B9FEA06B73
:10A4B00005F0B6FE04494322002006F0D1F801F071
:10A4C00041FCFEE700ED00E0106B01007046FFF775
:10A4D000B1FF704710B5EFF3108472B60023C1606E
:10A4E00082600360436084F3108810BD38B5044671
:10A4F000EFF3108572B64368C268D154436882682E
:10A5000001339342436009D30B494FF030020CBF33
:10A510000120002006F0A4F800236360D4E90003C2
:10A52000C01A05494FF0350218BF012006F098F80F
:10A5300085F3108838BD00BF3C6B010070B5044640
:10A54000EFF3108672B6D0E90003C01A4FF0420252
:10A5500018BF01200C4906F083F82368E268D55C37
:10A56000A26801339342236009D307494FF04702A1
:10A570000CBF0120002006F073F80023236086F34F
:10A580001088284670BD00BF3C6B0100EFF31081BE
:10A5900072B6426803689A423BBF80688018D01A3E
:10A5A000C01A81F31088704738B5EFF3108572B682
:10A5B0008468FFF7EBFF85F31088013C201A38BD53
:10A5C000F8B515460C460646FFF7E0FF854228BF62
:10A5D00005466719BC4201D12846F8BD3046FFF751
:10A5E000ADFF04F8010BF5E7F8B515460C46064635
:10A5F000FFF7DAFF854228BF05466719BC4201D143
:10A600002846F8BD14F8011B3046FFF76FFFF5E749
:10A610000D4B0E4A1B68B0EB930F03D3012353700D
:10A620005360704700EB5303013BB3FBF0F002288B
:10A630004FF0000194BF01200323517088BFB0FB8D
:10A64000F3F05060704700BF480A0020E01500207A
:10A6500070B5064608460D46FEF7F2F901303C2873
:10A660000DD82846FEF7ECF9441C22462946304610
:10A67000FEF70EF8002386F83B30E0B270BD3C24B4
:10A68000F3E7FF230B704FF0011070472DE9F04FF7
:10A69000047884F080031F2B8BB00546894604D8CC
:10A6A00000F07AFD0BB0BDE8F08F04F16003DBB27F
:10A6B0005E2B02D8FFF7E5FFF4E70B4603F8014BEA
:10A6C00005931D2C00F2BC84DFE814F01E009400FA
:10A6D0009E00B600E801FA01F503BA04A404C40020
:10A6E000D600BA04BA04BA04BA04BA04DB004F01B3
:10A6F00065017501CC01E201E601BA04BA04BA04AD
:10A70000BA04BA04BA0480014378092B01F10205A6
:10A710000AD8012B10D9033B062B12D8DFE803F02F
:10A72000171B2236474C5000FE2B61D0FF2B59D00F
:10A73000F02B48D0F12B4BD089F8014004F10210E6
:10A74000B0E7BD492846FFF783FF0446F4E704F06D
:10A75000B1F80146F6E7B94906222846FDF798FF09
:10A760000624E9E7B64B1B69002BE5D093F8A52139
:10A7700093F8A41141EA022193F8A62193F8A73196
:10A7800041EA024151EA0361DCD1D5E7AC4B1B69D8
:10A79000002BD1D093F8A92193F8A81141EA022106
:10A7A00093F8AA2193F8AB3141EA0241EAE7A44BBE
:10A7B000D96F0029C6D1BFE7A14BD3F88010F8E7C5
:10A7C00004F08CF8C5E7312389F802300124B3E79F
:10A7D00000238B70E123CB70F5230B7105234B71A4
:10A7E0000424A9E740238B700023CB700224A3E745
:10A7F0000823E9E74378012B3CD9FF23914889F8E6
:10A80000013000F101104DE74378012B00F2DC80AC
:10A810008D4A012313704FF0A0420321C2F80417A0
:10A820000221C2F80815C2F80037C2F8083589F8C5
:10A8300001304FF00110E4E7834A002313704FF01A
:10A84000A0420221C2F800170120C2F8041789F8BB
:10A850000130D6E7827843787C4943EA02237C4A78
:10A860001268B2FBF1F203210232B2FBF1F2534360
:10A87000013BFDD10023C1E700238B704B70022008
:10A88000BFE78378C1784278007941EA002168798E
:10A8900041EA0041A87913F0010541EA00610AD0BC
:10A8A0004FF0A04012F0010F4FF0020414BFC0F8A7
:10A8B0000845C0F80C4513F002060AD04FF0A0403E
:10A8C00012F0020F4FF0010414BFC0F80845C0F8A1
:10A8D0000C45002939D003F0200001905D488142E9
:10A8E00028BF0146642000FB01FC5B495009D1F8F8
:10A8F00004B0029003F004074FEA520E5BB24FEA35
:10A9000092084FEAD21A4FF0A0442DB1D4F80405B2
:10A91000C0F34000824213D12EB1D4F8100500F0EC
:10A92000010086450CD117B1B8F1000F08D101988C
:10A9300008B1029820B9002B07DABAF1000F04D051
:10A940004868A0EB0B008445DFD84FF0A042434895
:10A95000D2F80435D2F810255200C3F3400302F0B8
:10A960000202134389F801304BE7AB78407840EAA4
:10A970000320EB7840EA03402B7950EA036004D1CE
:10A98000FF23374889F801303BE72F4B9860FFF7EA
:10A990003FFE0023F5E74478002C08BF4FF4807495
:10A9A000811C204600F098FC0023E01D89F801304E
:10A9B000C00801305DE04378234903F0030201320F
:10A9C000C3F380030A774B77002330E74FF000088A
:10A9D00081F80180012447788A1C2546811C4FF0AC
:10A9E000A04AA346013F02D244EA054009E789464E
:10A9F00019F8010B10F03F0643B208BF4026002BA8
:10AA0000B4BFCAF80087CAF818B50736494602939A
:10AA10000192F60800F09EFC019A029B0FB9CAF859
:10AA200018B5002B05F10105ADBFB1449219A41969
:10AA3000AD194946D6E700BF5F6B0100716B01009D
:10AA4000786A010001000200E015002040420F007A
:10AA5000480A0020C0C62D00001000E001000600DA
:10AA600001000400FF234B704278811C0120013A51
:10AA700003D2000440F00100C3E60B7813F03F035B
:10AA800008BF40230733DB08013319441844EEE7BD
:10AA9000FF2340784B708CE7FF23C8E6B54B427824
:10AAA0001A74C178827842EA01229A820279417945
:10AAB00042EA0122DA820023AF4889F80130A0E699
:10AAC000431C0693AB4B82781B780192012B00F15B
:10AAD000030440F0E181A94B4FF00008CD1C83F83E
:10AAE000008046464046CDF80C809A46019BFBB953
:10AAF000012811D1002E00F0B0819E4B9F4F9E8AFD
:10AB000009A90E2000F094FD022840F099811EB1A1
:10AB10003B78013E002BF3D0039B89F80130069B64
:10AB200089F80200E41A059BE81A40EA044068E646
:10AB30002346DFF840B213F8017B029317F0020FAF
:10AB400000F01E81002E4ED007F01103012BBBF840
:10AB500014B01CD109A9384600F06AFD022828D19A
:10AB6000BBF1000F05D09AF800300BF1FF3B002B32
:10AB7000F0D0029C23789A0740F16081DF0600F153
:10AB80005D810134019B013B0193F3D1B0E709A939
:10AB90000E2000F04DFD02280AD1BBF1000F05D0B8
:10ABA0009AF800300BF1FF3B002BF0D00026E0E7D5
:10ABB00000260128DDD1099B2B701A0A6A701A0C35
:10ABC0001B0EAA70EB702A1D002E43D03B0640D509
:10ABD000684BDB682B711A0A6A711A0C1B0EAA717A
:10ABE000EB7130460835634B17F01002B3F814B020
:10ABF00007F001015DD0A0786278DB8A049342EA15
:10AC00000022E07842EA0042207942EA006207929C
:10AC1000621D029201BB574CB4F814B009A9384622
:10AC200000F006FD0228014629D1BBF1000F05D036
:10AC30009AF800300BF1FF3B002BEFD04D4B9A6997
:10AC4000099B1340079A9A422DD041F01000C0B2E0
:10AC50008FE730461546C6E70021384600F0E8FC8D
:10AC6000022809D1BBF1000F83D09AF800300BF114
:10AC7000FF3B002BF0D07CE70128CCD079E7A3691B
:10AC8000099A012803EA0203D8D1079A9A42D5D03B
:10AC9000049B002BD2D0049A9AF80030013A049217
:10ACA000002BB9D0CAE701287FF463AF4FF000084A
:10ACB00026E091B3002EF9D10021384600F0B8FC0F
:10ACC00002282C4B0AD1BBF1000F3FF46FAF9AF86A
:10ACD00000200BF1FF3B002AEED04AE701287FF469
:10ACE00048AF3E0640F1A480DB682B701A0A6A70F8
:10ACF0001A0C1B0EAA70EB704FF0000806460435C4
:10AD0000039B9AF8002001330393019B013B002A27
:10AD10007FF42FAF029C0193E8E609A9384600F0C2
:10AD200087FC0228134B0AD1BBF1000F3FF421AF7F
:10AD30009AF800200BF1FF3B002AEED019E701281A
:10AD40007FF417AF3C060AD5DB682A46190A02F8D9
:10AD5000043B6970190C1B0EA970EB701546099B1A
:10AD60002B701A0A6A701A0C1B0EAA70EB7004354D
:10AD70009CE700BFE0150020010005000016002040
:10AD8000F6B1BBF81430049309A90E2000F050FC72
:10AD9000022809D1049B002B3FF4EBAE9AF8002067
:10ADA000013B002AEFD0E4E601287FF4E2AE099BE4
:10ADB0002B701A0A6A701A0C1B0EAA70EB700435FD
:10ADC000A278637843EA0223E27843EA02432279D5
:10ADD00017F0200F43EA026304F10502029209937F
:10ADE0009A4A03D093610026012089E7968A09A92F
:10ADF000384600F01DFC022808D1002E3FF4B9AE01
:10AE00009AF80030013E002BF1D0CFE601287FF404
:10AE1000CDAE390610D5DBF80C302B701A0A6A70EB
:10AE20001A0C1B0EAA70EB7080460435002667E7EB
:10AE30004FF00008064663E78046F7E70534A1E6D1
:10AE400001287FF469AE099B2B701A0A6A701A0CEC
:10AE50001B0EAA70EB7004355EE6B8F1000F3FF4EC
:10AE60005BAE7A4B7A4F9E8A00210E2000F0E0FB09
:10AE700002287FF451AE002E3FF44EAE3B78013EE7
:10AE8000002BF1D048E62378990712D5DA0610D4C2
:10AE90000134019B013B0193019B002BF3D189F805
:10AEA000013089F80230069BE01A000440F00200ED
:10AEB000A7E40534EDE7654A1378012B93464FF07C
:10AEC000000340F0A280624C90F802802370C378A7
:10AED0000A1D58EA0328019200F09580077917F0BF
:10AEE000020611D1431DB045BBF814A06AD1002160
:10AEF0000E2000F09DFB022839D1BAF1010A36D3A9
:10AF00002378002BF3D032E017F0010010D0BBF80B
:10AF100014600021384600F08BFB022806D136B3BE
:10AF20002378013E002BF4D0002620E00128FBD13D
:10AF3000DDF804A04346A8EB0306CDF804A0B3B1A6
:10AF4000012B03D117F0010F18BF0E27BBF81420F7
:10AF5000039309A93846029200F06AFB0228039B7A
:10AF60001DD1029A1AB12178013A0029F0D0019B33
:10AF7000059A89F80160360A89F8030089F80260A9
:10AF8000981A2B799B075FBFAC78ED7844EA0524CB
:10AF900001344CBF40F4802040EA844031E4012871
:10AFA0000AF1040A03F1FF33E1D1099A0AF8042CEB
:10AFB000110A0AF8031C110C120E0AF8021C0AF8F6
:10AFC000012CB8E759781A7842EA0122997842EAC6
:10AFD0000142D97842EA01620992043309A938464C
:10AFE000029300F025FB0228029B08D1BAF1000F62
:10AFF000BDD022780AF1FF3A002AEFD0B7E7012846
:10B00000B5D101366FE740468EE74B708B70CB7041
:10B010000320B6E70D4B1B78012B0FD1C278837844
:10B0200043EA0223027943EA0243427909A943EA47
:10B0300002630020099300F0FBFA3CE5FF233BE5A7
:10B04000FF230B704FF00110FFF72CBBE015002021
:10B0500000160020F8B505787F2D15D10C46871C09
:10B0600004F8025B45784D704FF00216013D01D2A5
:10B070003046F8BD21463846FFF708FB064407EB8B
:10B08000104714FA80F4F1E7BDE8F840FFF7FEBA84
:10B09000064B0748986000221A701A7464219A615E
:10B0A000012259619A83FFF7B3BA00BFE01500206F
:10B0B00000127A0000230822C0F81832C0F81C32AF
:10B0C000C0F81022C0F8143270470346D0F81402BA
:10B0D00010B5B8B10138C3F81402D3F81C0203EB61
:10B0E00080140C6000F58071013033F8111011608C
:10B0F000D3F8102200F007000132C3F81C02C3F895
:10B100001022012010BD007800F17D03DBB2012B7D
:10B1100003D98C3818BF0120704700207047F8B55C
:10B120000446D0F810020D4616461F4690B3084656
:10B13000FFF7E9FF10B1012003F07CFED4F81032D4
:10B14000D4F81802412E03F1FF33C4F8103234BF93
:10B1500032464022294604EB8010FDF799FAD4F8D4
:10B160001812284604EB8111FFF774FFD4F8182257
:10B1700002F5807324F8130004EB82133B60D4F8CB
:10B180001432013202F007020133C4F81822C4F865
:10B1900014320120F8BD00007FB503780B70803BAE
:10B1A00006460D460D2B00F28E80DFE803F00717F0
:10B1B0002239448C8C8C54626C71758303F07AFB59
:10B1C0000646FDF73DFCC4B2687022463146A81C15
:10B1D000FDF75EFA04F58030023008E002A805F0C1
:10B1E00039F9072202A9681CFDF752FA374804B062
:10B1F00070BD02A805F02EF90422711C0DEB0200AF
:10B2000000240194FDF744FA019B029302A805F083
:10B2100007F9204605F032F901232D486B70E6E767
:10B220003E21A81C06F0B0FD044610B1012003F039
:10B230000BFE6C70CEE744780230214606F070FDBC
:10B24000012003F001FE0123E01800046B70184395
:10B2500000F10110CBE701234B70407820B903F0D7
:10B260001FFE4FF00210C2E70128F8D000234B70F8
:10B27000F7E701234B7005F0A7F810B9022008F09A
:10B28000A9FD1448B3E7407800F0C2FE6870E8E713
:10B2900000F02AFF6870F4E74478012003F0DEFD37
:10B2A0002146B01C00F0EAFE6870601C000440F00B
:10B2B0000100CDE700234B70407810B901F07AFB14
:10B2C000CFE70120FAE74FF0011090E709000100F5
:10B2D0000200050002000100002838D01C4BF0B528
:10B2E0000025421E8C4658684FF0A0442B464FF074
:10B2F000010E022716E013F0010F05F1FF3501469C
:10B3000006461CD0C4F808E5C4F80C750139FDD117
:10B31000C4F8087501460139FDD1013A511C4FEAC4
:10B32000530313D06646002DE5D116F8013B13F008
:10B33000010FB4464FF0070501460646E2D1C4F8B6
:10B340000CE5C4F80C75013EFDD1E1E7F0BD704796
:10B35000E01500202DE9F04110F03F0408BF402423
:10B36000030640F1A3800220DFF8C0C290460746E2
:10B370004FF0A043DCF80410C3F80C750D46013DF6
:10B38000FDD1D3F81055C3F808750E46013EFDD126
:10B39000ED01012C8E46EEB200F02681C3F80C05BB
:10B3A0000D46013DFDD1D3F81055C3F808050A46F6
:10B3B000013AFDD1ED01EDB2022C45EA560500F04F
:10B3C0001881C3F80C050A46013AFDD1D3F810657F
:10B3D000C3F808050A46013AFDD1F601F6B2032C7E
:10B3E00046EA550500F00A81C3F80C050A46013A01
:10B3F000FDD1D3F81065C3F808050A46013AFDD11E
:10B40000F601F6B2042C46EA550500F0FC80C3F8BC
:10B410000C050A46013AFDD1D3F81065C3F80805BA
:10B420000A46013AFDD1F601F6B2052C46EA550569
:10B4300000F0EE80C3F80C050A46013AFDD1D3F8BE
:10B440001065C3F808050A46013AFDD1F601F6B2C7
:10B45000062C46EA550500F0E080C3F80C050A46C4
:10B46000013AFDD1D3F81065C3F808050A46013A40
:10B47000FDD1F601F6B2072C46EA550500F0D28060
:10B48000C3F80C050A46013AFDD1D3F81065C3F89C
:10B4900008050139FDD1F101C9B241EA5505083C61
:10B4A00008F8015B7FF466AFBDE8F0815F4B0220D6
:10B4B0005A6884464FF0A043012611F8015BEF075C
:10B4C00054BFC3F80C65C3F808651746C3F80CC52C
:10B4D000013FFDD1C3F808C51746013FFDD1012C3E
:10B4E000E2D0AF0754BFC3F80C65C3F80865174630
:10B4F000C3F80C05013FFDD1C3F808051746013F0D
:10B50000FDD1022CD0D06F0754BFC3F80C65C3F82F
:10B5100008651746C3F80C05013FFDD1C3F80805BF
:10B520001746013FFDD1032CBED02F0754BFC3F8EF
:10B530000C65C3F808651746C3F80C05013FFDD13B
:10B54000C3F808051746013FFDD1042CACD0EF0627
:10B5500054BFC3F80C65C3F808651746C3F80C055B
:10B56000013FFDD1C3F808051746013FFDD1052C69
:10B570009AD0AF0654BFC3F80C65C3F808651746E8
:10B58000C3F80C05013FFDD1C3F808051746013F7C
:10B59000FDD1062C88D06F0654BFC3F80C65C3F8E4
:10B5A00008651746C3F80C05013FFDD1C3F808052F
:10B5B0001746013FFDD1072C4FEAD5153FF474AF74
:10B5C0007DB9C3F80C651546C3F80C05013DFDD1E6
:10B5D000C3F808051546013DFDD1083C7FF46DAF69
:10B5E00062E7C3F80865EEE7F50988F80050BDE8A2
:10B5F000F081AD0988F80050BDE8F0816D0988F848
:10B600000050BDE8F0812D0988F80050BDE8F081B8
:10B61000ED0888F80050BDE8F081AD0888F80050CA
:10B62000BDE8F0816D0888F800503DE7E015002086
:10B630002DE9F04F574E737805468B46002B00F0EE
:10B64000AB804FF0A04301220220E907C3F8082590
:10B65000C3F80C05C3F808054CBFC3F80825C3F8A8
:10B660000C254FF0A04202230120AF07C2F80C3591
:10B67000C2F808354CBFC2F80805C2F80C054FF0F7
:10B68000A0420220C2F80C056C07C2F808054FF072
:10B6900001004CBFC2F80805C2F80C056B084FF05A
:10B6A000A042022003EB9503C2F80C050124C2F866
:10B6B000080529074FEAD5002B444CBFC2F80845BE
:10B6C000C2F80C4503444FF0A042022013F0010FD2
:10B6D0004FF00103C2F80C05C2F8080514BFC2F808
:10B6E0000835C2F80C354FF0A043347F0222012008
:10B6F000C3F80C25C3F80825C3F80C05C3F80C25BE
:10B70000C3F80825C3F808050020C3F80C25C3F8C2
:10B710000825C3F8000720462CB10138C3F80C25D2
:10B72000C3F80825F9D14FF0A0430227C3F80C75E0
:10B73000D3F810C5C3F80875C3F80C75D3F81025F5
:10B74000C3F80875C3F80C75D3F81005C3F808756D
:10B750005200B8403A4000F004000CF0010C0243E3
:10B7600042EA0C02012A00F07B81022A00F0C28129
:10B77000042A00F0BF812134013CC3F80C75C3F8E2
:10B780000875F9D10121C3F81815D0B2C3F808150E
:10B79000BDE8F08FE015002073684FF0A042012053
:10B7A0000224C2F808051F46C2F80C45013FFDD12E
:10B7B000C2F808451C46013CFDD1EC074CBFC2F85D
:10B7C0000805C2F80C054FF0A0400222C0F80C2575
:10B7D0001C46013CFDD1C0F808251A46013AFDD1AE
:10B7E0000124A9074CBFC0F80845C0F80C454FF02C
:10B7F000A04002246A08C0F80C451F46013FFDD155
:10B80000C0F808451C46013CFDD101246F074CBF20
:10B81000C0F80845C0F80C454FF0A040022402EBE8
:10B820009502C0F80C451F46013FFDD1C0F8084500
:10B830001C46013CFDD1012429074CBFC0F8084536
:10B84000C0F80C454FF0A04002242A444FEAD50C22
:10B85000C0F80C451F46013FFDD1C0F808451C4605
:10B86000013CFDD1624412F0010F4FF0010214BF00
:10B87000C0F80825C0F80C254FF0A0420220C2F8FD
:10B880000C051C46013CFDD1C2F808051C46013CD4
:10B89000FDD10124C2F80C451F46C2F80C05013F3A
:10B8A000FDD1C2F808051F46013FFDD1C2F8084589
:10B8B0001C46C2F80C05013CFDD1C2F808051C4627
:10B8C000013CFDD1377F0024C2F800473C465FB100
:10B8D000C2F80C0519460139FDD1C2F80805194610
:10B8E0000139FDD1013CF3D14FF0A0440220C4F84E
:10B8F0000C051A46013AFDD1D4F810E5C4F8080544
:10B900001A46013AFDD1C4F80C051A46013AFDD198
:10B91000D4F81025C4F8080519460139FDD1C4F83A
:10B920000C0519460139FDD1D4F810C5C4F8080535
:10B9300019460139FDD152000CFA00FC02400CF00E
:10B94000040C42EA0C020EF0010E42EA0E02012A39
:10B950001BD0022A00F0FD80042A00F0FA80213773
:10B960000146C4F80C1518460138FDD1C4F8081575
:10B9700018460138FDD1013FF3D10123C4F8183531
:10B98000D0B2C4F80835BDE8F08F15F0020C40F0D5
:10B9900025815FB1C4F80C051A46013AFDD1C4F8FF
:10B9A00008051A46013AFDD1013FF3D14FF0A040FE
:10B9B0000124C0F81845DBF800200146A0462020ED
:10B9C000022412F0010F14BFC1F80885C1F80C85DC
:10B9D0009E461F46C1F80C45013FFDD1C1F8084500
:10B9E0001F46013FFDD1013894444FEA5202E8D18D
:10B9F0004FF0A04201211CF0010F14BFC2F808153E
:10BA0000C2F80C154FF0A0420221C2F80C151846DE
:10BA10000138FDD1C2F80815013BFDD101202B06EC
:10BA200042BF944B5B68F360337C93B14FF0A0410D
:10BA300001227468C1F80C250225C1F80C55224674
:10BA4000013AFDD1C1F808552246013AFDD1013B2A
:10BA5000F3D14FF0A0430122C3F80825BDE8F08FD1
:10BA600015F0020040F008812CB1013CC3F80C75C0
:10BA7000C3F80875F9D14FF0A0420127C2F8187534
:10BA8000DBF800302021022413F0010F14BFC2F8AC
:10BA90000875C2F80C7501391844C2F80C454FEA14
:10BAA0005303C2F80845EFD14FF0A0430122C70766
:10BAB0004CBFC3F80825C3F80C254FF0A043022261
:10BAC000C3F80C250120C3F808252D0642BF694B99
:10BAD0005B68F360337C002BBBD04FF0A0420121A8
:10BAE000C2F80C150221013BC2F80C15C2F808156A
:10BAF000F9D1AEE7767F002E6DD015F0020740F049
:10BB00000381002C00F00B814FF0A0430221013C87
:10BB1000C3F80C15C3F80815F9D10121C3F818159D
:10BB20007EB105F0020767B94FF0A0410123C1F8CB
:10BB30000C3502202123013BC1F80C05C1F8080592
:10BB4000F9D14FF0A0430121D0B2C3F80815BDE8E8
:10BB5000F08F96F81DC0BCF1000F34D015F0020E26
:10BB600040F0C180002F00F0E3804FF0A04002249D
:10BB7000C0F80C4519460139FDD1C0F808451946F1
:10BB80000139FDD1013FF3D10121C0F81815BCF1F5
:10BB9000000FD6D005F0020EBEF1000FD1D14FF04C
:10BBA000A0440121C4F80C1502252121C4F80C552C
:10BBB00018460138FDD1C4F8085518460138FDD1A2
:10BBC0000139F3D1BDE7002FCFD14FF0A0430121C0
:10BBD000C3F81815B5E7002C96D1F6E74FF000082A
:10BBE00081468246C6464FF0200CC4F80CA51A4682
:10BBF000013AFDD1D4F81025C4F808A502F00102DD
:10BC000018460138FDD1D007BCF1010C964440EA3A
:10BC10005808EAD1C4F80C951A46013AFDD1D4F877
:10BC20001025C4F80895013BFDD18EEA020E1EF0E6
:10BC3000010F0CBF01200820BBF1000F02D0CBF890
:10BC40000080377F7FB172684FF0A0410224C1F8B5
:10BC50000C451346013BFDD1C1F808451346013B95
:10BC6000FDD1013FF3D14FF0A0430122C3F81825C5
:10BC7000D5E600BF001000E04FF0000EB946F446D4
:10BC80002020C3F80C75D3F81025C3F8087502F00E
:10BC900001024FEAC2780138944448EA5E0EF0D1BE
:10BCA000C3F80C95D3F81025C3F808958CEA020C5C
:10BCB0001CF0010F0CBF01200820BBF1000F02D0C7
:10BCC000CBF800E0347F44B14FF0A0430222013CA6
:10BCD000C3F80C25C3F80825F9D14FF0A043012281
:10BCE000C3F81825F1E621214FF0A0440226C4F83C
:10BCF0000C6518460138FDD1C4F8086518460138AE
:10BD0000FDD10139F3D12DE721234FF0A0410220CD
:10BD1000013BC1F80C05C1F80805F9D1F1E64FF077
:10BD2000A0430121C3F81815002F7FF40AAFFBE6EA
:10BD30004FF0A0410120C1F81805BEF1000F7FF4BB
:10BD400000AF2CE7BFF34F8F0549064BCA6802F4DA
:10BD5000E0621343CB60BFF34F8F00BFFDE700BF2E
:10BD600000ED00E00400FA05DFF854C0F0B54FF034
:10BD7000FF33002401278C4203DB93FAA3F0C04376
:10BD8000F0BD065D0722002516F0010F1CBF07FA63
:10BD900002FE45EA0E05013A4FEA5606F4D283EA5E
:10BDA00005630822002B02F1FF324FEA4303B8BFBC
:10BDB00083EA0C0312F0FF02F4D10134DBE700BF89
:10BDC000B71DC104DFF854C0F0B500240127C043FB
:10BDD00090FAA0F0944203DB90FAA0F0C043F0BDCB
:10BDE0000E5D0723002516F0010F1CBF07FA03FEA6
:10BDF00045EA0E05013B4FEA5606F4D280EA05609B
:10BE00000823002803F1FF334FEA4000B8BF80EA5F
:10BE10000C0013F0FF03F4D10134DBE7B71DC104BC
:10BE200000F098BBF0B5164689B00022CDE9062295
:10BE30000D460592441C06AF05AB01934FF4807389
:10BE400000930297234607AA3146284600F0E2FFF6
:10BE500038B9069A1AB10598214600F081FA09B05E
:10BE6000F0BD02280CD1069A1AB9079BF61A1D4498
:10BE7000E2E70598214600F073FA0028F5D0EEE7D6
:10BE8000012809D1069A2AB10598214600F068FADE
:10BE90000028E4D11320E2E704280DD0431FDBB2D1
:10BEA000012BC9D8053818BF012004494FF4B072DE
:10BEB00004F0D6FB1620D2E71520D0E7776B0100FF
:10BEC00010B540F2011204460021FCF7E3FC00F03B
:10BED0007BFF00232370BDE8104000F00FBA00F094
:10BEE0000DBA08B504F054FC431E5842584108BD31
:10BEF00008B500231A4600F013F9003818BF0120D6
:10BF000008BDF0B5044690F830002F2885B00F46E4
:10BF100015462DD8C0F13006964228BF1646324647
:10BF20002044FCF7B5FB94F830103144C9B22F29F6
:10BF300084F8301027D900231A46204600F0F0F884
:10BF400020B303AB00220093114602AB00F028F9A6
:10BF5000D0B9029894F830206063214600F000FACE
:10BF600090B9636B94F8302013443744AD1B63637E
:10BF7000606B2A46394600F0F3F928B9626B2A440F
:10BF80006263142000E0002005B0F0BD1C20FBE738
:10BF900008B507F0E5FC054B05491B681B1A58421C
:10BFA00058416222BDE8084004F05ABB1017002037
:10BFB000776B010000F0CEBA70B5084E33680446C6
:10BFC0000D46984740B933692946204698470028CE
:10BFD0000CBF0320012070BD0020FCE77408002086
:10BFE00010B500F10804032207482146FCF796FD2E
:10BFF00040B1064803222146FCF790FD00280CBF03
:10C000000120032010BD00BF0C6B0100A96B0100D3
:10C0100070B5144D2E78044636B1852200201249A1
:10C0200004F01EFB022070BD012801D98B22F5E728
:10C0300007F096FC0D4B4FF48272186031460C48A5
:10C04000FCF728FC01232B700A4B094803EB04146E
:10C05000094B1C60636898470028E4D003232B70C9
:10C06000E1E700BF0C170020776B010010170020DC
:10C07000081600207408002004160020F8B5164D9C
:10C080002B78012B04460E462F4607D01349A422D5
:10C09000002004F0E5FA02242046F8BDFFF778FFFF
:10C0A0000F4B10481B6821469B683246984713285F
:10C0B000044602D102232B70EEE7142800D048B9C1
:10C0C00038780649431E58424FF0B202584104F0F6
:10C0D000C7FAE1E70323EEE70C170020776B0100B6
:10C0E000041600200816002010B5094C207828B945
:10C0F0000849C02204F0B4FA022010BDFFF748FF3F
:10C10000054B06481B68DB68984700232370F4E75B
:10C110000C170020776B0100041600200816002081
:10C1200030B5054608462F2885B094BF0020012071
:10C13000184947221C4604F093FA0C2205F120010D
:10C1400001A8FCF7A5FA0CB9134B1C70134B029A0B
:10C150009A420ED103F13653019803F5672303F297
:10C160006F63984213D0FC3BC31A5842584105B044
:10C1700030BD284604F0F8FA28B114B9064B012264
:10C180001A700320F3E7002C18BF0320EFE702200A
:10C19000EDE700BFAD6B01004E1700202028056EB3
:10C1A0002DE9F047DDF8208006460D4691461F46F2
:10C1B00013B1B8F1000F09D171224049002004F0F9
:10C1C0004FFA4FF002094846BDE8F0874FF0000AE9
:10C1D000C3F800A0C8F800A002F0C0FC044600B3F9
:10C1E000022E0CD1B9F1000F02D0B5F5004F55D198
:10C1F000334B1C684FF400454FF0000905E0032E57
:10C20000F0D0002425464FF01C0904F0E5F808B9E9
:10C21000012E50D0B9F1000FD5D1002C47D1B82252
:10C22000CBE702F09DFC0028EBD0012E08D1B9F13C
:10C23000000F01D0002D36D1214B00251C68DBE713
:10C24000032EDED11F4B1A69002ADAD00C32537844
:10C25000157845EA0325937845EA0345D37855EAEE
:10C2600003650DD15179137943EA0123917943EAAA
:10C270000143D17953EA016302D1134B1C68BBE738
:10C28000517A137A43EA0123917A43EA0143D17A3E
:10C2900043EA0163012BF0D01432D8E754465546E7
:10C2A0004FF01B09B1E725464FF01A09ADE73D6095
:10C2B000C8F8004087E74FF01C0984E7AD6B010028
:10C2C000706C0100786A0100307E010070B506468E
:10C2D0000C46154602F044FC48B1032E07D1064B2C
:10C2E0001B6923B129462046FDF7A6F908B90020AD
:10C2F00070BD1D20FCE700BF786A010038B50F4D06
:10C300002C783CB10E49DA22002004F0A9F902246D
:10C31000204638BD0B483022FF21FCF7BBFA012331
:10C320002B70094B1C70094B1C60094B1C60094B9E
:10C330001C60094B1C70094B1C70E9E75517002065
:10C34000AD6B0100181700204D1700204817002082
:10C3500050170020141700204C17002054170020FD
:10C360002DE9F04F704E15463278012A85B004460B
:10C37000884608D000206D49EF2204F071F90220B0
:10C3800005B0BDE8F08F6A4B197821B969491A7078
:10C39000086069490860694F3B78002B6DD1664A97
:10C3A00013685919A342116048D1DFF898A1DFF84A
:10C3B00098B1DAF80000C0F13009A94528BFA946B4
:10C3C00041464A465844FCF763F9DAF8000048440D
:10C3D0002F28CAF80000C844A5EB09054C4449D9E8
:10C3E000A0F1300358425841504940F2111204F074
:10C3F00037F9504ADAF80010126801235846FFF75F
:10C400008FFE4F4B187002ABDFF83491494900930F
:10C41000096899F8000003AB0122FFF7C1FE50B98B
:10C4200003F0EAFF70B1474B47491A6899F80000DA
:10C43000FFF74CFF30B103233370A1E7404B0322D9
:10C440001A70E0E73878394980F001004FF49A72A9
:10C4500004F006F9029800F05DF90028EBD1012301
:10C460003B70384B38491A68324B186800F0B6F9FF
:10C4700018B1E0E73B78002BF3D13B7833B12A4683
:10C480004146204600F0AAF90028D4D12C4B1B7855
:10C49000022B43D0032B03D0012B42D000206FE7A7
:10C4A0002A4B187800283FF46BAF294B18690028F5
:10C4B0003FF466AF00F10C025178137843EA012390
:10C4C000917843EA0143D17853EA01630BD1507963
:10C4D000137943EA0023907943EA0043D07953EA81
:10C4E000006002D14CE79C420CD35379107940EAAA
:10C4F0000320937940EA0340D37940EA0360844201
:10C50000034601D91432D7E700283FF439AF2C4451
:10C510009C42C3D302233370132031E74FF4F83326
:10C52000F5E74FF40043F2E755170020AD6B01002B
:10C530005417002050170020141700204C1700201B
:10C540004D17002048170020181700204E17002014
:10C55000786A010010B50E4B1C783CB920460D4995
:10C5600040F26B1204F07CF8022010BD00221A7019
:10C57000094B187808B100F0D3F9022CF5D0074B1D
:10C580001B78032BF1D0002808BF2520EDE700BF62
:10C5900055170020AD6B01004C1700204D170020EF
:10C5A0002DE9F041DFF85480104E98F80030104F1C
:10C5B0000446CBB90F4B32681B680F499B6838683B
:10C5C00098470123054688F8003032680A48FF2161
:10C5D000FCF760F93368B4FBF3F003FB1040241A56
:10C5E0003C602846BDE8F0810025EEE76C1B00208A
:10C5F000681B0020701B002058170020581B0020CB
:10C600002DE9F041DFF80881D8F800305B69054674
:10C610009847D8F8003006469B6928469847474611
:10C62000044606B148B9334940F23512002004F0FF
:10C6300017F802242046BDE8F081B6F5806F8CBF64
:10C64000002001202B494FF49D7204F009F84FF4AB
:10C650008060B0FBF6F07043A0F58063584258410B
:10C66000244940F23B1203F0FBFFA6428CBF00209E
:10C67000012020494FF49E7203F0F2FFB4FBF6F064
:10C6800006FB1040B0FA80F040091A491A4E40F2F9
:10C690003D1203F0E5FFB5FBF4F0184B04FB10501E
:10C6A0001C60174B281A1860D8F80030154D1B6A0B
:10C6B0003060B4F5806F28BF4FF480642C603BB1CC
:10C6C0009847044620B1D8F800305B689847B1E736
:10C6D0000D4B1B783BB13B683068DB6898470446DC
:10C6E00008B13B68F1E72A680848FF21FCF7D2F857
:10C6F00000249FE7E16B01005C1B0020601B002011
:10C70000681B00206C1B0020781B0020581700209D
:10C71000701B0020F8B5254E3578044635B1472208
:10C720002349002003F09CFF02242AE000282AD09D
:10C73000436843B3836833B3C36823B3036913B354
:10C74000436903B38369F3B1C369E3B14FF4806212
:10C75000FF211848FCF79EF8174B01221A70174B5F
:10C760001D70174B1D60174B1D60174B1D60174B3D
:10C770001D60174B1D60174D23682C6098470446B9
:10C7800018B12046F8BD4D22CAE7134B1B784BB9B0
:10C790002B681B699847074620B12B685B68984750
:10C7A0003C46EEE701233370EBE700BF791B002026
:10C7B000E16B010058170020581B0020641B00206B
:10C7C000681B00206C1B00205C1B0020601B0020ED
:10C7D000741B0020701B0020781B00202DE9F74FF0
:10C7E000454D95F80090B9F1010F83460E46144669
:10C7F000A84608D0002041497B2203F031FF0220E7
:10C8000003B0BDE8F08F3E4F3A7852B9FFF7F8FE1B
:10C8100010B102232B70F3E73A4A87F80090C2F870
:10C8200000B0394F374D38682A68BBFBF0F1B2FBD6
:10C83000F0FC00FB11B100FB1C20ABEB0101121A54
:10C84000914207D05846FFF7ABFE18B1022388F893
:10C850000030D5E7DFF8C4902A68D9F80000BBFBA8
:10C86000F0F1B2FBF0FC00FB11B100FB1C20ABEBC4
:10C870000101121A914234D1DFF894A0DAF80020B5
:10C8800039680A445A4504D85846FFF789FE0028FB
:10C89000DCD164B31D4BD9F800101A680A445A451C
:10C8A00004D85846FFF7ACFE0028CFD1184B3A68A1
:10C8B0001868184B0244A2EB0B02A242ABEB00003B
:10C8C00028BF2246314618440192FBF7E1FE019A47
:10C8D0001148B2FA82F14909017093441644A41A2E
:10C8E000CCE75846FFF78CFE0028C5D0AEE7C5F868
:10C8F00000B0204684E700BF791B0020E16B0100F7
:10C90000641B0020741B00206C1B00205C1B00209B
:10C91000681B002058170020581B0020601B0020B7
:10C9200070B5194E307830B91849CC2203F098FE12
:10C930000224204670BD012823D10020FFF730FEDD
:10C940000546134B1B685B6898474FF480620446AA
:10C95000FF211048FBF79EFF0F4B01221A700F4A70
:10C96000002313700E4A337013600E4A13600E4A90
:10C9700013600E4A13600E4A9C4208BF2C46136097
:10C98000D7E70025DDE700BF791B0020E16B010040
:10C99000701B002058170020581B0020641B00202B
:10C9A000681B00206C1B00205C1B0020601B00200B
:10C9B000741B002010B5044603F064FC014B1C708E
:10C9C00010BD00BF781B00204FF4807070474FF4FB
:10C9D00080507047024B1878431E584258417047A8
:10C9E000992B002008B50D4B187828B90C498322E3
:10C9F00003F036FE022008BD0020187004F0D4FCBD
:10CA000050B9084B1B780BB10020F4E702F0A6F8F0
:10CA10000028F9D12520EEE71F20ECE7992B002014
:10CA2000156C01009A2B002038B5174D2C783CB1BD
:10CA300016496222002003F013FE0224204638BD6E
:10CA400022462146204604F0ADFCD0B9104B1148D7
:10CA50001C70114B1C70114B1C70114B1C60114B46
:10CA60001C60114B1C70114B1C60114B1C60114B56
:10CA70004FF4805221461C60FBF70CFF01232B7002
:10CA8000DCE71E24DAE700BF992B0020156C0100BB
:10CA90009A2B0020991B0020981B0020901B00203F
:10CAA0008C1B0020941B0020841B0020801B002076
:10CAB000881B00207C1B002070B52D4D2B78012B8E
:10CAC00004462E4606D000202A49FF2203F0C8FD66
:10CAD000022070BDC0F30B0040B1264940F207129E
:10CAE000002003F0BDFD02202870F2E7224B1A78E7
:10CAF00052B1224A2249126809680A44A24203D06C
:10CB00001C494FF48772ECE7A4F50042B2F5B83F38
:10CB100003D2022333702120DBE701221A70174B66
:10CB20001C60174B4FF48052B4F5004F1A6016D2B8
:10CB300002F016F868B164B9204601F09BFE90B986
:10CB40004FF400424FF4807101F09DFE68B900205F
:10CB5000BFE7204601F08EFE0028F8D0D9E7232059
:10CB600002233370B5E71020FAE72020F8E700BF72
:10CB7000992B0020156C0100901B00208C1B0020BD
:10CB8000941B0020F8B5144E3378012B374607D09C
:10CB90000020124940F2371203F062FD0220F8BD76
:10CBA0000F4D2C7844B100200C4940F23D1203F0A7
:10CBB00057FD02203070F2E72046FFF77DFF18B1E5
:10CBC00002233B702220EAE704F58054B4F5004FBD
:10CBD000F2D101232B70E2E7992B0020156C0100A4
:10CBE000981B00202DE9F843DFF8D48198F8003035
:10CBF000012B05460C461746464608D06649A22238
:10CC0000002003F02DFD02242046BDE8F88310F03B
:10CC1000FF0F08D06049AB220020022403F020FD62
:10CC200088F80040F0E7FF2A02D912F0FF0007D091
:10CC3000B22259490020022403F012FD3470E3E7C8
:10CC4000C5F30B031344B3F5805F02D9B9225249EF
:10CC5000E3E7524B1B787BB9514B187808B9C122D6
:10CC6000F5E7504B1B689D4204D34F4A12681344AA
:10CC70009D4201D3C722DCE74C4B1A7842B14C4AA3
:10CC80004C49126809680A44954201D0CF22D0E786
:10CC9000B5F5F83F07D2EA19B2F5004F03D90223E0
:10CCA00033702024B0E701221A70414B1D60414BC4
:10CCB000B5F5004F1F6057D201F052FF002859D040
:10CCC000C5F5FF48DFF8FC9008F17C0847453A4677
:10CCD000D9F8000028BF42462146FFF773F8B5F5A2
:10CCE000805FC9F8000007D233483A4621462844FD
:10CCF000FBF7CEFC002487E7EB19B3F5004F39D1E1
:10CD0000C5F5FF43C5F5FF427D337E32E15CA35C90
:10CD100014F808201B0443EA01231343C5F5FF421E
:10CD20007F32A25C43EA026398421FD12246394611
:10CD3000284601F0A8FDD8B901F09CFD90B91E4A23
:10CD40004FF4805101F09FFD00280CBF00242024E7
:10CD500001F0F4FD194B01221A70002CCAD00223F5
:10CD6000337051E71024F3E72324F8E72724F6E78C
:10CD70002024F4E722463946284601F084FD044683
:10CD800000288CD13D44B5F5004FB3D301F0D6FD5A
:10CD90000A4B01221A7037E7156C0100981B00201E
:10CDA000901B00208C1B0020941B0020841B002063
:10CDB000801B0020881B0020991B00209A2B00203C
:10CDC000992B00207C1B0020F8B525220021094862
:10CDD000094F0A4E0A4D0B4CFBF75CFD0A480B4A03
:10CDE0000B490023037013703B6033702B7023706A
:10CDF0000B80F8BDA02B0020C82B0020C62B0020E4
:10CE00009E2B0020CC2B0020C52B0020CD2B0020FA
:10CE10009C2B00202DE9F04FB64E85B03478DDF81C
:10CE200040B0019105460846002102929A462F180B
:10CE3000CBF80010ECB12B783A2B19D0AE4B009305
:10CE40000B460E9A0393FF215046FBF723FD009BF0
:10CE5000DBF800101A68019B7D1B5D1B0F9B521AAB
:10CE60001A60029B1D60039B184605B0BDE8F08F59
:10CE70003170A24B1B78002B40F09A809E4A0092A2
:10CE8000BD423FD09E4EDFF89482DFF894922C464C
:10CE900020E00A2B1BD098F80010C1B3DA0699F8ED
:10CEA000002058BF0933B05C03F00F030343B354B1
:10CEB00096F800C00132D2B20CF1040E964589F802
:10CEC000002031DBB1FA81F1490988F80010A7424E
:10CED000254615D0254614F8013B0D2BF7D03A2BEB
:10CEE000D7D1252200213046FBF7D4FC854A002308
:10CEF000A742137088F8003089F800302546E9D140
:10CF0000DBF800300E9AD31A0E93002399E799F8B4
:10CF10000020242AD6D813F0100F03F00F0308BF07
:10CF200009331B01B354CDE7012318466246305C38
:10CF30000133DBB202449E45D2B21846F7DA002A2A
:10CF400040F0F0806F480378002BBBD13268F37853
:10CF500002F47F4EC2F3074272704EEA02024FEAB9
:10CF60001E2E86F802E04FF0010E80F800E00D2B37
:10CF7000A8D801A050F823F0EBCF000055D0000056
:10CF800017D00000C5CE00006FD00000C5CE000055
:10CF9000C5CE0000C5CE0000C5CE0000C5CE000045
:10CFA00061D00000C5CE0000C5CE0000EBCF000070
:10CFB000534C5248504E00962146002311F8042B42
:10CFC00003705046FBF764FB2178DBF800303268D1
:10CFD0000B44CBF800302068120CC0F30F20120471
:10CFE00002430A448A4432604AE7474B1B88002BBD
:10CFF0005AD046490988994256D0454909889942EC
:10D0000052D00E99DBF800208A1A0E92394A012379
:10D010001370002315E7DBF8002003930E9BFF211C
:10D020009A1A5046FBF736FC009B727918683479DF
:10D0300000901201DBF80010019E781B42EA0432D6
:10D04000009D1A600F9C029B301A691A21601860BB
:10D05000039B09E70E99DBF800208A1A0E92F0E68E
:10D0600030797379284A43EA002313802AE70E9B1C
:10D07000DBF80020FF219A1A5046FBF70BFC73796E
:10D08000009A3079DBF8004012681B0443EA006321
:10D090000F98121B0260009A791B019D1360029B7E
:10D0A000691A19600223DFE6009B1868194B00EA31
:10D0B00003010A4390423CD1104B174900201870DD
:10D0C00062465046FBF7E4FA3578DBF80000009B37
:10D0D00098F800101A680F4B2844CBF8000030680D
:10D0E0001340C0F30F20009A03432B44AA4413605B
:10D0F000E8E600BFCD2B0020C82B0020C52B002068
:10D10000A02B0020CC2B00209C2B002050080020BE
:10D110004E0800200000FFFFA42B0020C62B00209B
:10D120009E2B00200E9ADBF80030D31A0E930423B6
:10D1300087E60E99DBF800208A1A0E92024A012334
:10D140001D44137002237CE6C52B0020024B0021F6
:10D15000186805F0ABBF00BFF82B0020014B186822
:10D1600005F0B8BFF82B002008B506F0F9FB064B18
:10D1700006491B681B1A5842584140F26912BDE823
:10D18000084003F06DBA00BFFC2B0020746C010056
:10D1900038B5104D104C0FCD0FC40FCD0FC495E80E
:10D1A000030084E8030000F053FF0C4801F07AF913
:10D1B00001F016F90A4B18600A4B4FF400721A601E
:10D1C000094B01221A60094B094A400A1860094BB1
:10D1D0001A6038BDA86C0100D02B0020E5D30000F8
:10D1E000784F0020404F00203C4F0020384F002057
:10D1F000042C0020344F002010B50446FFF7A6FF92
:10D20000054B3CB11A780AB902221A70BDE81040E9
:10D21000FFF7A4BF1C70F9E7052E002008B5FFF743
:10D2200095FF074B1978074B1A788A4203D1022AD7
:10D2300004BF01221A70BDE80840FFF78FBF00BF8E
:10D24000042E0020052E00202DE9F8430646133851
:10D250000128454C454994BF002001204FF43A7203
:10D2600003F0FEF994F82030032B07D1BDE8F84312
:10D270003E494FF43B72002003F0F2B92368002BC3
:10D2800050D0A569E269AA424CD325B16568A2686D
:10D29000AA1A5542554105F0010294F8269084F8E7
:10D2A0002520002B40D194F82770033F18BF012799
:10D2B000002D3BD094F8248094F82330002B236970
:10D2C00008BF0025013333D060682849013040F29F
:10D2D0000A3218BF012003F0C3F9626823699B1A60
:10D2E0006269B2EB432F8CBF0123002316B30323E3
:10D2F00084F8203094F82030032B0CD194F821309E
:10D300003BB1FEF7F1FE002384F821309E4208BFB6
:10D310000646174B1E70B9F1000F23D1BDE8F84344
:10D32000FFF77CBF0025B6E70127C1E7A846C3E7A2
:10D330000023DBE7B9F1000F09D033B9002FD6D0B5
:10D34000B8F1000F08BF0426D1E70626CFE7002D6D
:10D35000CDD1B8F1000F01D00223C9E7002FC9D009
:10D360000123C5E7BDE8F883D02B0020746C0100D1
:10D37000CE2B002030B4194C94F82050032D06D148
:10D3800030BC174940F23522002003F069B9256806
:10D3900005B92060A068013094F8270008BFA1609B
:10D3A0000328A06908BF84F82730904207D9E069B4
:10D3B000904204D91AB1032030BCFFF745BF481C86
:10D3C00002D0A0688842F6D1032B03D094F827102E
:10D3D0009942F0D1A2610020EEE700BFD02B0020DF
:10D3E000746C01002DE9F041354C1D460746884616
:10D3F000164600F009FA94F82030032B1FD0B8F13C
:10D40000020F16D1D4F80080B04518D1284601F09B
:10D410003BF80646284601F013F804463846FEF766
:10D42000DFFD3246034621464046BDE8F041FFF7A6
:10D43000A1BFB8F1000F04D0B8F1010F1BD0BDE8B7
:10D44000F0813846FEF7CCFD0328F8D0284601F0DD
:10D4500026F88307F3D43846FEF7C2FD0746284670
:10D4600001F012F80446284600F0EAFF3B46014668
:10D4700022463046D9E72368B342E0D194F82230FF
:10D4800033B100234FF0FF322360A260A361D6E7DF
:10D490000C4D0FCD0FC40FCD0FC495E8030084E8E9
:10D4A0000300FFF753FE084B1A78012A04D1074AFC
:10D4B0001278022A08BF1A70BDE8F041FFF74EBE8D
:10D4C000D02B0020A86C0100052E0020042E002087
:10D4D000F8B5414D414C0646FFF746FEFFF736FED4
:10D4E0002A7823789A4203D1BDE8F840FFF736BE88
:10D4F0003B4940F2F912012003F0B2F82B78022BDD
:10D5000011D1384B93F82030012B55D008D9023B6C
:10D51000012B05D9324940F20B22002003F0A0F87C
:10D520004FF4FA7304E0002B37D12278022A3BD162
:10D530002D4A11684EF65F20814203D80E4499426D
:10D540001660D1D926782F782E70012E08BF0223BD
:10D550004FF0000508BF23701560FFF7FFFD022F95
:10D5600016D1204C94F82030032B05D001232846F7
:10D5700084F82630FFF768FE94F820001849C31E8F
:10D58000584240F21112584103F06AF800F0DAF9FB
:10D59000012E17D9022E19D0F8BD012B04D1237802
:10D5A000022B0CD0002BC3D00D4940F21B220020CF
:10D5B00003F056F80023BBE744F62063B8E740F6D3
:10D5C000C413B5E7094B00221A60E5E7FFF7E0FD59
:10D5D000064B0122F8E700BF042E0020052E002094
:10D5E000746C0100D02B0020002C0020704F002014
:10D5F00008B5FFF7B9FD014B187808BDCE2B002008
:10D6000008B506F0ADF9094B1860002005F03CFDA7
:10D61000074B1860FFF7BCFD064A00231370064A4B
:10D620001370064A1360064A136008BDFC2B0020E5
:10D63000F82B0020042E0020052E0020002C0020B6
:10D64000704F002070B504460D461646FFF78CFD5E
:10D65000064B1B684BB1012001F000FC3246294605
:10D660002046BDE8704000F023BF70BD704F002021
:10D670002DE9F041054688461646FFF775FD534BE8
:10D680001B68CBB1524B534C00221A6094F82030E7
:10D69000032B11D0012001F0E1FB32464146284620
:10D6A00000F032FF94F82030032B05D094F822309C
:10D6B00023B163689D423ED2BDE8F08171024046CD
:10D6C000FEF77AFC0328074620D094F8210042494F
:10D6D00040F2852280F0010002F0C2FF681C18BFF2
:10D6E00001203D4940F2862202F0BAFF636801330F
:10D6F00094F8273008BF6560032B636808BF84F87F
:10D7000027709D4207D00320FFF79EFD94F822303A
:10D71000002BD1D0CDE794F82730BB42F3D1384667
:10D72000FEF776FC0028EFD10123E56084F8213074
:10D7300084F82230E8E7E3689D420AD0BCD223692E
:10D74000013308BF25612369AB4294BF2361256182
:10D75000B2E7E369354403EB4623770294F823608C
:10D76000E361E56026B10020BDE8F041FFF76CBD44
:10D7700019494FF43172012002F072FF164994F8F2
:10D78000210040F2C52202F06BFF39464046FEF709
:10D7900075FC1328054610D1FEF7A6FC01230546AB
:10D7A00084F8216084F8233084F82430FBF7CCFE21
:10D7B00063691F4467612846D6E7142803BF012325
:10D7C00084F82430354684F82460F1E7704F002057
:10D7D000002C0020D02B0020746C010070B5064690
:10D7E00007480D46FBF72CF904462DB136B9024621
:10D7F00003492846FAF74CFF204670BD0024FBE79A
:10D80000D06C010000207047F7B507460C46FFF7C3
:10D81000F9FF20B903F050FE18B1022C0AD103B071
:10D82000F0BD03F04BFE0028F7D102F0D5FD002833
:10D83000F3D1F4E7002C6FD101230DF10701384635
:10D840008DF80730FBF796FE10BB3A4E4FF0FF35D0
:10D8500031680B223846FAF7EBFE00B9357901340E
:10D86000102C06F10806F3D16B1C1DD00F2D4CD8DF
:10D87000DFE805F008150E1E272B2D313337393D13
:10D880003F43454901F06CF910B1012002F03AFC28
:10D890009DF80730002BC2D0FFF7C0FCBFE7264938
:10D8A000E222002002F0DCFE00238DF80730EFE7D3
:10D8B000224B1C68236898472369984763689847F8
:10D8C000E6E7012002F068FDE2E70020FAE7012028
:10D8D00002F068FDDCE70020FAE7012002F068FDB5
:10D8E000D6E70020FAE7002002F0C0FCD0E70120D4
:10D8F000FAE7012002F062FDCAE70020FAE7012002
:10D9000002F0C0FCC4E70020FAE70B494FF488722C
:10D91000002002F0A5FEBBE7012C80D108490B22B4
:10D920003846FAF785FE00287FF479AF02F0B4FE9E
:10D93000B2E700BFCC7101003C6D0100307E0100F8
:10D94000AB71010008B501F009F920B1FFF750FEF5
:10D9500008B9FEF7F7F901F003F920B102F01AFC5B
:10D9600030B1FEF7EFF9054A13680133136008BDC3
:10D9700002F082FC0128F6D1F3E700BF4C2E002014
:10D980002DE9F04FA5B004AE2E9C0746884691467F
:10D990000021802230469A46FAF77CFF631E31460A
:10D9A0007E3413F8012F1AB19C4201F8012BF8D1F3
:10D9B000DFF828B135462B78402B0ED05BB9AD1B74
:10D9C0000195009653464A464146384602F013FEFA
:10D9D00025B0BDE8F08F0135EDE76B78562B33D8D5
:10D9E000412B01D83A4C37E0423B142BFAD801A224
:10D9F00052F823F09DDA0000E5D90000AFDA00000C
:10DA0000E5D90000E5D90000E5D90000A3DA00005F
:10DA1000E5D90000E5D90000E5D90000E5D900000E
:10DA200053DA0000E5D90000E5D90000E5D900008F
:10DA3000E5D90000BBDA0000E5D90000A9DA000052
:10DA400097DA0000B5DA0000623BDAB2142ACCD9CA
:10DA5000C8E700F047FF04462846FAF7F1FF0390B5
:10DA60002046FAF7EDFF039A1118023903462944BC
:10DA700024A8884229D9023AA91CE8180393FAF786
:10DA8000A1FE039B21461A462846FAF701FE2B7891
:10DA9000002B90D193E700F00DFFDCE700F00EFFC4
:10DAA000D9E700F00FFFD6E700F010FFD3E700F052
:10DAB00011FFD0E700F012FFCDE79BF82A00054CDC
:10DAC000054B002808BF1C46C6E7154477E700BF92
:10DAD0006B6D0100A26A0100716D0100786A01009E
:10DAE000F7B50F4600B1F1B9450256020F4B00934E
:10DAF0002A4600233146384602F09BFD0C4B00932A
:10DB0000044603462A4631463846FFF739FF094B9B
:10DB10000093044423462A463146384602F089FDE4
:10DB2000204403B0F0BD0020FBE700BFAA6D010058
:10DB30007A6E01007D6E01002DE9F7430A9C009486
:10DB4000984605460E46174602F073FD4FF002094F
:10DB5000124B00933A4608EB000331460446CDF8D9
:10DB60000490284602F047FD0B9B0093044408EB09
:10DB700004033A463146284602F05BFD084B009309
:10DB80000444CDF8049008EB04033A463146284695
:10DB900002F031FD204403B0BDE8F083AA6E01001D
:10DBA0003D6F01002DE9F74F0D4691460446FFF702
:10DBB0001FFD064600F042FE0746304600F052FECA
:10DBC00006460CB1002D4CD14FEA442A264B019752
:10DBD0004FEA492900935246002349462846FFF759
:10DBE000ABFF224B00930446034652464946284663
:10DBF00002F01FFDDFF880B004444FF00108002759
:10DC00006EB9022301931A4B0093524623464946AC
:10DC1000284602F0F0FC204403B0BDE8F08F052F49
:10DC2000EFD0B8F1000F0AD102230193114B0093FA
:10DC3000524623464946284602F0DDFC0444F307D9
:10DC40000BD55BF8273000935246234649462846B9
:10DC500002F0EFFC4FF0000804440137C6F347061A
:10DC6000CEE70020D8E700BFA06E0100A66E01003D
:10DC70003D6F0100AD6E0100B871010070B4049EEB
:10DC8000044D054C002E08BF2C46049470BCFFF7D1
:10DC900053BF00BFB06E0100A58001002DE9F04127
:10DCA00086B00DF10C0804460D4640460D991F46FE
:10DCB000164602F062FC06AB1844002300F80C3C48
:10DCC0000C9B0093CDF804803B4632462946204603
:10DCD000FFF732FF06B0BDE8F08100002DE9F04FFC
:10DCE00087B000230E46029308B1002979D13E4B3C
:10DCF0001B78012B59D0022B3C4B14BF4FF000086E
:10DD00009846440255023A4B009322460023294686
:10DD1000304602F08EFC374B0193374B0093074699
:10DD20000346224629463046FFF706FF334B1B8841
:10DD300001930744324B009322463B462946304626
:10DD4000FFF7ACFF07EB000AB8F1000F0AD02D4A2D
:10DD500000925346CDF80480224629463046FFF70C
:10DD6000EBFE824402A802F077FA0746C8B1029A95
:10DD7000BAB1254A0092534622462946304602F05F
:10DD800058FCDFF888B082444FF000080DF10C0910
:10DD90005FFA88F2974204D90AF10A02B2F5007FCD
:10DDA00006D3504607B0BDE8F08FDFF86480A8E7DF
